:020000040000FA
:040000000241EE3299
:01000B0032C2
:0100130032BA
:01001B0032B2
:0100230032AA
:03002B000234D0CC
:01003300329A
:01003B003292
:01004300328A
:03004B00021D6231
:01005300327A
:01005B003272
:01006300326A
:03006B00020D2D56
:01007300325A
:03007B00020DC5AE
:0342560002007EE5
:05007E0012021480FED7
:0A008300C01A85811AC082C083E50F
:09008D00812406F5817C007D0050
:0E009600C3EC9490ED64809481400302018CD1
:0E00A400C374C89CE464808DF063F08095F016
:0D00B200500B7490C39CFE74019DFF8004F0
:0400BF008C068D0717
:0C00C300A81A0886028A82C002C004C08D
:0A00CF0005C006C00778AE79117A6B
:0C00D9000012186AD007D006D005D00431
:0B00E500D002E51A2403F8E4F608F648
:0C00F000E51A2403F8C3E69E08E66480CD
:0C00FC008FF063F08095F0501FE51A248F
:0C01080003F8E51A2405F9E6F70809E6FB
:0C011400F7E51A2403F8740126F6E4084D
:0401200036F680CC63
:0C0124008A82C004C005C006C00778CE67
:0501300079117A0012B4
:0C013500186AD007D006D005D004E51AE7
:0E0141002403F8E4F608F674C8C39EFAE49F9F
:01014F00FBB4
:0C015000E51A2403F8C3E69A08E6648070
:0C015C008BF063F08095F0501FE51A2432
:0C01680003F8E51A2405F9E6F70809E69B
:0C017400F7E51A2403F8740126F6E408ED
:0401800036F680CC03
:050184000CBC00010DA0
:03018900020096DB
:06018C00851A81D01A2241
:0E01920090F47DE0FAA3E0FB4A7033C2AF7533
:0801A0009F037AF87BFF7D0745
:0A01A800ED20E71DED24B1FFE43463
:0C01B200F2FE8A828B83E493FCA3AA82F5
:0B01BE00AB838F828E83ECF01D80DF8E
:0701C900759F01D2AF800E0B
:0E01D0008B0490F2B8ECF07B0090F2B7EAF0EE
:0E01DE0090F2B7E0FB7A0090F2B8E0FC7D00F2
:0B01EC00EC2AFAED3BFB74B1C0E0749C
:0B01F700F2C0E0E4C0E0C002C00390D2
:070202004C55785E79927AF9
:0B0209000312186AE58124FBF5812236
:0502140078DD79377A66
:050219000012186A78D4
:04021E008A79137A4C
:050222000012186A78CB
:040227000F79127ABF
:05022B000012186A78C2
:040230005479117A72
:080234000012186A900001128B
:05023C000083787A79CF
:04024100857A0112A7
:05024500186A787E79C3
:04024A00297A0012FB
:07024E00186A9015E375F03A
:040255000078D079E4
:04025900157A001200
:05025D00186A78277902
:04026200187A0012F4
:09026600186A904D5675F080787D
:04026F00B1791D7ACA
:050273000012186A9062
:080278004D6375F08078B17947
:040280001D7A0012D1
:0E028400186A90DF61E0C423541FFA43022081
:070292008A8278E4791D7AED
:050299000012186A903C
:08029E004D7975F08078B1790B
:0402A6001D7A0012AB
:0502AA00186A78497993
:0402AF00127A0012AD
:0802B300186A900000787979C7
:0402BB00327A001281
:0E02BF00186AE4C0E0C0E0C0E090F49975F069
:0602CD0000780F79807A31
:0B02D3000112186A1581158115817851
:0402DE004879D07A11
:0502E2000312186A7808
:0402E70047791E7ABB
:0502EB000012186A1268
:0E02F0000192E4C0E0C0E0C0E090F4B975F007
:0602FE0000780F79807A00
:0B0304000112186A158115811581781F
:04030F008079127A65
:0C0313000012186A7408C0E0E4C0E07436
:0A031F00B1C0E074F2C0E0E4C0E0F9
:0903290090E56F75F00078EF79A2
:04033200477A0012F4
:0B033600186AE58124FBF581786879E6
:04034100987A031291
:0E034500186AE4C0E0C0E0C0E090F48975F0F2
:0603530000780F79807AAA
:0C0359000112186A158115811581E4C09D
:0C036500E0C0E0C0E090F4E575F0007826
:040371000F79807A06
:0B0375000112186A15811581158178AE
:040380003E79127A36
:050384000012186A7868
:040389008179897A73
:08038D000112186A900004122D
:090395000083904D8175F0807821
:04039E006F79207AD9
:0503A2000012186A784A
:0403A7004F79127AFE
:0403AB000012186ABA
:0503AF00785579127A77
:0503B4000012186A3080
:0503B900005478CB792F
:0403BE00AA7A021203
:0C03C200186AE5828583F045F060407801
:0403CE00F179AA7A9D
:0C03D2000212186AAA82AB83C002C003AA
:0503DE00785979347A22
:0C03E3000012186AAC82AD83D003D00277
:0C03EF00EAC39CFAEB9DFB1ABAFF011B4D
:0C03FB00C374FF9A747F9B500978357919
:04040700A87A0212BB
:02040B00186A6D
:02040D00C2002B
:05040F0078E079877A16
:060414000112186A858246
:07041A000A85830BC3E49582
:0A0421000AE46480850BF063F080AC
:07042B0095F050030203AF3E
:0E043200904DDFE493FAA3E493FBA3E493FC64
:0E044000C002C003C004C002C003C004D0024A
:0C044E00D001D00012186A858208858356
:0A045A0009D004D003D002E50845E4
:06046400097003020519F6
:05046A00786E79A97A0B
:05046F000312186A9061
:0E0474004DD6E493FAA3E493FBA3E493FCC0FB
:0A04820002C003C004789179AD7A3E
:0C048C000312186AAD82AE83AFF0D004FA
:0E049800D003D002C002C003C0047480C0E0D4
:0E04A600E4C0E0C002C003C0048D828E838FCC
:0C04B400F0D002D001D00012186A85823E
:0A04C0000885830915811581D00419
:0C04CA00D003D002C3E49508E4648085F0
:0A04D60009F063F08095F0503AAA97
:0804E00008AB098A828B8378C6
:0404E8008379AD7AED
:0504EC000312186A90E4
:0E04F1004E36E493FAA3E493FBA3E493FCC01D
:0E04FF0002C003C004C002C003C004D002D07B
:0C050D0001D00012186AD004D003D00204
:0D05190053BEFC438701000203AF02187CB3
:0D4D5600436F6E74696B6920322E350A00C0
:0E4D63004E373430204E616E6F53656E736FA5
:084D7100722028434332340094
:084D79002D46313238290A00F1
:024E8A00000026
:0805260075820178AE79117AAB
:05052E000012186A90A4
:0A053300E674E0FA20E1030205C0BF
:09053D00904D8A75F08078B179C7
:040546001D7A001208
:0C054A00186A90E670E0FAA3E08A82785C
:04055600E4791D7AAD
:05055A000012186A9078
:08055F004D8D75F08078B17933
:040567001D7A0012E7
:0E056B00186A90E66AE0FAA3E0FBA3E0FC8ABF
:0E057900828B838CF01248A9A31248A9F58248
:0505870078E4791D7A03
:05058C000012186A9046
:0E059100E66AE0FAA3E0FBA3E0FC8A828B831B
:0D059F008CF01248A9FAA31248A98A8278AC
:0405AC00E4791D7A57
:0805B0000012186A75820A7836
:0405B800B679CD7AC9
:0405BC000212186AA5
:0805C00075820178CE79117AF1
:0505C8000012186A0298
:0205CD00187C98
:0805CF0075820478AE79117AFF
:0C05D7000012186A7428C0E0E4C0E0E4E0
:0B05E300C0E090E00075F00078827925
:0405EE00477A001236
:0E05F200186A15811581158190E02EE0240114
:0E060000F0A3E03400F090E02EE0FAA3E0FB5F
:0E060E00EA30E00D90E028E0FAA3E0FBA3E064
:03061C00FC80114E
:0E061F0090E02BE0FDA3E0FEA3E0FF8D028E35
:03062D00038F0434
:0E063000C002C003C0047402C0E0E4C0E07465
:0A063E002EC0E074E0C0E0E4C0E06C
:0906480090E00075F00078EF79F4
:04065100477A0012D2
:0E065500186AE58124FBF581D004D003D002A1
:0C0663007402C0E0E4C0E07400C0E07469
:0C066F00E0C0E0E4C0E08A828B838CF0E5
:05067B0078DA79357A00
:0C0680000012186AE58124FBF5817582E8
:06068C000478CE79117A1A
:050692000012186A02CD
:02069700187CCD
:0A069900C01A85811A05817A007BE2
:0906A300007C007D007E007F0058
:0E06AC00C3EA9403EB648094804003020726A7
:0A06BA00C002C003EE246EFAEF3414
:0C06C400E0FB74112AF582E43BF583A8EA
:0A06D0001A08E0F6A81A088A828BC7
:0C06DA0083E0D003D002602EA81A08E6CE
:0806E6006006A81A08B6012203
:0C06EE00A81A08E6701CC002C003EC242F
:0A06FA006EFAED34E0FB74112AF5EE
:0C07040082E43BF5837401F0D003D002C6
:0E071000741C2CFCE43DFD741C2EFEE43FFF27
:05071E000ABA00010B06
:030723000206AC1F
:06072600851A81D01A02C1
:02072C00187C37
:0A072E00C01AE581F51A2410F581C8
:0A073800E51A04F87620087601AAFD
:0C0742001A0A74022AF876060876307451
:0E074E00042AF8760308760174062AF8766409
:0E075C0008765374082AF87600087600740AAE
:0E076A002AF87600087600740C2AF87600084B
:0C0778007600740E2AF87600087600AABD
:0A0784001A0A7B007C40746FC0E08D
:0C078E0074E5C0E0E4C0E08A828B838C3C
:06079A00F0785579A07A09
:0B07A0000212186A158115811581AA4C
:0C07AB001A0A7B007C407401C0E0E4C02E
:0E07B700E0C0E0C0E0C0E08A828B838CF07866
:0407C5004479937A66
:0B07C9000212186AE58124FBF581850F
:0507D4001A81D01A0299
:0207D900187C8A
:0A07DB00C01AE581F51A2410F5811B
:0E07E500AA82AB83ACF07D011248A9FEA312DC
:0B07F30048A9FFBE0005BF0002800CFB
:0907FE00BEC906BF00030209AAEE
:03080700020A23BF
:0D080A00C002C003C004C002C003C00478D7
:040817002E79077AB5
:05081B000012186A78CC
:040820009979067A42
:0B0824000012186AD004D003D002E5D7
:0A082F001A04F876FE087680AE1A6F
:0E0839000E74022EF8760008760074042EF875
:0E084700760008760074062EF876000876001B
:0E08550074082EF87602087615740A2EF876CE
:0E08630020087600740C2EF8760008760274D9
:0C0871000E2EF87603087602AE1A0E7FF9
:0E087D00007A40E4C0E0C0E0C0E0740BC0E0D0
:0C088B0074B8C0E08E828F838AF0782A57
:0508970079817A0312D3
:0E089C00186AAA82AB83ACF0E58124FBF581DB
:0E08AA0090E028EAF0A3EBF0A3ECF074102A23
:0D08B800FAE43BFB8A828B838CF0740B12F8
:0908C5004259A374B9124259E52D
:0A08CE001A04F87620087601AA1A31
:0E08D8000A74022AF8760608763074042AF8AC
:0E08E600760308760174062AF87664087653C5
:0E08F40074082AF87602087615740A2AF87637
:0E09020020087600740C2AF87600087602743D
:0C0910000E2AF87603087602AA1A0A7B69
:0E091C00007C40E4C0E0C0E0C0E0740BC0E02E
:0C092A0074B8C0E08A828B838CF0782ABD
:0509360079817A031233
:0E093B00186AAA82AB83ACF0E58124FBF5813B
:0E09490090E02BEAF0A3EBF0A3ECF074102A80
:0D095700FAE43BFB8A828B838CF0740B1258
:0E0964004259A374BA124259C002C003C00423
:0E097200E4C0E07401C0E090E03075F0007861
:040980005779A97A80
:0C0984000212186A15811581D004D003FE
:08099000D002D004D003D00214
:0E0998007D008A828B838CF074C9124259A3B1
:0409A600E4124259BC
:0909AA00ED7006758201020A35A8
:0D09B30090E03075F000C002C003C0047871
:0409C0004F79AA7A47
:0C09C4000212186AE5828583F0D004D08E
:0E09D00003D00245F06026C002C003C00478C8
:0409DE00CF79057A4E
:0509E2000012186A90EC
:0809E700E03075F00078CE79D4
:0409EF00A97A0212CD
:0A09F300186AD004D003D002809BE4
:0C09FD0090E03AE0FDE51A24FCF8E6B5B5
:0B0A0900058DC002C003C004782679F0
:040A1400057A00124D
:0B0A1800186AD004D003D00202099835
:0D0A23008A828B838CF0E4124259A3E41206
:050A300042597582032C
:060A3500851A81D01A02AF
:020A3B00187C25
:034D81007FF400BC
:064D84002BF50000000009
:034D8A003078007E
:0E4D8D0020627974657320726573706F6E73A7
:054D9B00653D307800C9
:054E8C00000000DB073F
:054E910000000000001C
:020000040003F7
:0E800000AA82AB83ACF090E045E0FDA3E0FE69
:0E800E00A3E0FFED4E4F602390E045E0C0E0A0
:0E801C00A3E0C0E0A3E0C0E08A828B838CF07A
:0E802A00D002D001D00012186AAA827B00801A
:018038000344
:038039007582004D
:03803C0002187CAB
:0E803F00AAF0AB83E58290E045F0A3EBF0A33E
:05804D00EAF002187CBE
:0980520090E03B75F000784F79D5
:04805B00AA7A0212E9
:0E805F00186AE5828583F045F0600F90E03BE3
:08806D0075F00078CE79A97AC4
:048075000212186A71
:0380790002187C6E
:0E807C0090E580E0FABA061490E5AFE0FA5302
:0A808A000202BA0209785279807AE6
:048094000312186A51
:0380980002187C4F
:0C809B0090E670E0FAA3E0FB4A60297850
:0480A7007C79807AE6
:0880AB000312186A75820178C6
:0480B3004779B37ADC
:0580B7000212186A909E
:0C80BC00E670E0FAA3E0FB4A6009782CB3
:0580C80079847A031227
:0280CD00186A2F
:0380CF0002187C18
:0A80D200C01A85811AAA82AB83ACA4
:0E80DC00F074152AFAE43BFB90F496E0FDA345
:0D80EA00E0FEA3E0FF8A828B838CF0ED1294
:0A80F7004259A3EE124259A3EF1202
:0E810100425974032AFAE43BFB8A828B838C7A
:0C810F00F0E51A24FAF8E6124259A30821
:0B811B00E6124259A308E6124259D0B8
:048126001A02187CA5
:0A812A00C01A85811A058105810540
:0C81340081AA82AB83ACF0E51A24FBF8B2
:0E814000E6C0E008E6C0E08A828B838CF0780F
:04814E00B979AF7AD2
:0C8152000212186AAA82AB83ACF01581FF
:0C815E001581A81A08A60208A60308A6AE
:0C816A0004A81A08E608460846700790B2
:068176000000F5F0805A44
:0C817C00A81A08741526FDE40836FE0859
:0E818800860790F496E0FAA3E0FBA3E0FC8DDE
:0E819600828E838FF0EA124259A3EB124259F7
:0E81A400A3EC12425974032DFDE43EFE8D82C1
:0B81B2008E838FF0E51A24F8F8E61227
:0C81BD004259A308E6124259A308E6123A
:0C81C9004259A81A08868208868308869E
:0181D500F0B9
:0681D600851A81D01A0297
:0281DC00187C0D
:0A81DE00C01A85811AC082C083E533
:0C81E800812412F581E51A2403F876FFCB
:0C81F400087602E51A2403FC74022CF843
:0E820000760008760074042CF87600087600EC
:0E820E0074062CF8760008760074082CF876BA
:0E821C0000087600740A2CF8760008760074CC
:0E822A000C2CF87600087600740E2CF8760006
:0C823800087601E51A2403FC7D007E405E
:0C824400E51A24FAF8E6C0E008E6C0E005
:0C82500008E6C0E0A81A08E6C0E008E656
:0B825C00C0E08C828D838EF0782A79C0
:04826700817A031203
:0E826B00186AAC82AD83AEF0E58124FBF5818C
:0E827900EC4D4E601C74102CFFE43DFA8E0399
:0B8287008F828A838BF0A81A08E61291
:088292004259A308E61242590B
:0A829A008C828D838EF0851A81D04E
:0482A4001A02187C26
:0A82A800C01A85811A0581058105C1
:0982B20081AA82BA01030283B81B
:0682BB00BA02030283ED8C
:0582C100BA87028009EC
:0682C600BA880302834F99
:0382CC000283F634
:0C82CF00E51A24FAF886020886030886E7
:0C82DB0004A81A08A60208A60308A604BE
:0682E7007D7E7EE67F00B3
:0A82ED00C3ED948CEE94E7EF9400CB
:0582F70040030283F6C4
:0E82FC0074152DFAE43EFB8F048A828B838C6E
:0C830A00F01248A9FAA31248A9FBA31224
:0C83160048A9FCA81A08E6B5020C08E60D
:0A832200B5030708E6B50402800267
:02832C008018B7
:0E832E0074102DFAE43EFB8F048A828B838C40
:0A833C00F0E4124259A3E412425982
:09834600741B2DFDE43EFE809E37
:0A834F00E51A24FAF8E6B43B0C0826
:0B835900E6B4E00708E6B40002800272
:02836400800F88
:0983660090E03B75F000784F79BE
:04836F00AA7A0212D2
:02837300186A86
:0A837500E51A24FAF8E6B44A0C08F1
:0B837F00E6B4E00708E6B4000280024C
:02838A00806A07
:09838C0090E04A75F000784F7989
:04839500AA7A0212AC
:0C839900186AE5828583F045F060527898
:0483A5004279827A1D
:0583A9000212186A78C1
:0483AE002C79847A28
:0683B2000312186A803E70
:0C83B800E51A24FAF8E608460846603290
:0C83C400E51A24FAF890E67BE6F008A326
:0C83D000E6F008A3E6F075820578477916
:0483DC00B37A02125C
:0583E000186A782C79F9
:0483E500847A031281
:0483E900186A800985
:0583ED00789B79807A05
:0483F2000312186AF0
:0683F600851A81D01A0275
:0283FC00187CEB
:0E83FE00E4C0E0C0E0C0E07402C0E090F4898A
:08840C0075F00078A579887A6B
:0B8414000112186AE58124FCF581903C
:0B841F00E670E4F0A3F090F4C5F0025A
:02842A00187CBC
:0A842C00C01AE581F51A2407F58156
:0E84360090E670E0FAA3E0FB4A700302878B29
:0E844400C3E49A74059B500A90E670E4F0A31E
:04845200F002878B22
:0E84560090E592E0FAA3E0FB4A705790E5949F
:0E846400E0FAA3E0FB4A704C90E596E0FAA324
:0E847200E0FB4A704190E598E0FAA3E0FB4A77
:0E848000703690E59AE0FAA3E0FB4A702B906C
:0E848E00E59CE0FAA3E0FB4A702090E59EE03A
:0E849C00FAA3E0FB4A701590E5A0E0FAA3E019
:0E84AA00FB4A700A90E670E4F0A3F002878BA4
:0B84B80090E592E0FABAFF0302877122
:0984C30090E59275F000789E79B5
:0484CC00927A02128C
:0984D000186AE58260087A927BCB
:0584D900E57C00804776
:0984DE0090E59275F000783A79FE
:0484E7009A7A021269
:0E84EB00186AAD82AE83AFF0ED4E4F7024786C
:0484F9000279907AFA
:0C84FD000212186AAD82AE83AFF08D024F
:0E8509008E038F04ED4E4F701390E670E4F079
:05851700A3F002878BB8
:09851C0074132DFAE43EFB8F04F8
:0D8525008A828B838CF0C002C003C00478F2
:04853200EB79D87A8F
:0C8536000312186AE5828583F0D004D09F
:0E85420003D00245F0600A90E670E4F0A3F06A
:0385500002878B14
:0D8553008A828B838CF0C002C003C00478C4
:0485600020798D7A77
:0C8564000212186AAD82AE83AFF0D004A2
:0C857000D003D002A81A08A60508A60631
:0B857C0008A607ED4E4F60030286D3F7
:0E858700E4C0E0E4C0E0E4C0E0C0E0C0E08A90
:0A859500828B838CF0788479897A58
:0C859F000212186AAD82AE83AFF0E581D5
:0C85AB0024FBF581A81A08A60508A60606
:0E85B70008A607ED4E4F700A90E670E4F0A3A0
:0485C500F002878BAE
:0985C90090E58275F00078347928
:0485D200967A021281
:0E85D600186AAD82AE83AFF0ED4E4F6032A852
:0C85E4001A08740126FDE40836FE088623
:0E85F00007C005C006C007E4C0E0C0E0C0E060
:0985FE0090E58275F00078D9794E
:04860700C47A02121D
:0A860B00186AE58124FAF581803039
:0C861500A81A08740126FDE40836FE08CF
:0E8621008607C005C006C007E4C0E0C0E0C088
:0A862F00E090000075F00078D979A2
:04863900C47A0212EB
:08863D00186AE58124FAF581B9
:0E86450090E069E0FDA3E0FEA3E0FFA3E0FAF1
:0E86530074E8C0E07403C0E0E4C0E0C0E08D55
:0C866100828E838FF0EA1246F8C8E51AFA
:0E866D002404C8A68208A68308A6F008F6E535
:0C867B008124FCF581A81A08742126FE59
:0C868700E40836FF088602E51A2404F817
:0E869300E6C0E008E6C0E008E6C0E008E6C089
:0A86A100E08E828F838AF0785D7905
:0486AB000E7A001231
:0C86AF00186AE58124FCF581A81A087403
:0E86BB002B26FAE40836FB0886048A828B839D
:0A86C9008CF074011242590287710F
:0C86D300A81A08742D26FAE40836FB08EB
:0E86DF0086048A828B838CF01248A9FD700AF3
:0A86ED0090E670E4F0A3F002878B22
:0E86F700BD02518A828B838CF07403124259AB
:0C870500A81A08741926FAE40836FB08CC
:0E87110086047405C0E0E4C0E0C0E0C0E08A69
:0A871F00828B838CF0785D790E7A6E
:0B8729000012186AE58124FCF581A80D
:0C8734001A08742B26FAE40836FB0886AD
:0B874000048A828B838CF0E412425903
:0C874B00A81A08741126FAE40836FB088E
:0B87570086048A828B838CF078007906
:04876200807A031204
:0B876600186A90E670E4F0A3F0801A9F
:0A87710090000075F0007800798098
:06877B007A0312186A9057
:0A878100E670E4F0A3F090F4C5F0F8
:06878B00851A81D01A02DC
:02879100187C52
:0E879300AA82AB83ACF0C002C003C004740124
:0B87A100C0E090F48975F000782F799B
:0487AC00887A0112B4
:0B87B000186AE58124FCF58102187CAA
:0E87BB0090E675E0FAA3E0FBA3E0FCEA4B4C6D
:0B87C900600974282AFAE43BFB8014CE
:0E87D40090E67BE0FDA3E0FEA3E0FF74152D10
:0687E200FAE43EFB8F04E7
:0E87E8008A828B838CF01248A9FDA31248A947
:0E87F600FEA31248A9FFED4E4F603C74032A0B
:0E880400FAE43BFB8A828B838CF01248A9FABF
:0E881200A31248A9FBA31248A9FCC002C00390
:0E882000C00490E03AE0C0E08D828E838FF0BD
:05882E0078A579887AAD
:0A8833000112186AE58124FCF581AA
:03883D0002187CA2
:0A884000C01A85811AAA82AB83AC2E
:0E884A00F07D011248A9FEA31248A9FFBE004E
:0688580005BF0002800BC9
:08885E00BE0005BF0302805CAF
:038866000288FE87
:0A886900C002C003C004780079804B
:088873007A0112186AE58290F7
:0E887B00E03AF07440C0E0E4C0E090E03B75ED
:07888900F000785779A97A8D
:098890000212186A1581158178A5
:04889900E679AE7A54
:05889D000212186A78C8
:0488A200C979907A86
:0A88A6000312186AD004D003D002B8
:0E88B0007D008A828B838CF0E4124259A374FF
:0488BE000312425906
:0888C200ED700575820180468E
:0C88CA00C002C003C004E51A24F9F8E65F
:0C88D600C0E008E6C0E008E6C0E0E51ADB
:0A88E20024FCF8868278A879827AD7
:0C88EC000312186A158115811581D00453
:0688F800D003D00280B2A3
:0D88FE008A828B838CF0E4124259A3E412AD
:05890B004259758203D2
:05891000D01A02187CE2
:020000040000FA
:054E960000000040884F
:054E9B0003000000000F
:060A3D0053F4FE02187CD8
:060A430053F4FE02187CD2
:060A490043F40102187CD9
:050A4F00D29002187CAA
:050A5400C29002187CB5
:0A0A5900A290E433FAF58202187C43
:060A630043FE0102187CB5
:060A690053FEFE02187CA2
:090A6F00438D01439A1002187C2A
:0A0A7800538DFEE58D7003539AEFD5
:030A820002187CDB
:0E0A85007401558DFA7B008A828B8302187CE7
:060A9300438C0202187CF6
:060A9900538CFD02187CE5
:0E0A9F007401558AFA7B008A828B8302187CD0
:080AAD00C2EB758A0002187CFF
:060AB50053F3EF02187C70
:060ABB0053F3EF02187C6A
:060AC10043F31002187C53
:050AC700D28402187C3E
:050ACC00C28402187C49
:0A0AD100A284E433FAF58202187CD7
:060ADB0043FD1002187C2F
:060AE10053FDEF02187C3A
:0E0AE700438C1090E048E0FA4410F043B82031
:030AF50002187C68
:0E0AF80090E048E054EFF090E048E0FA54F04F
:040B06006002800306
:030B0A00538CEF1A
:030B0D0002187C4F
:0E0B100090E048E0FA5302107B008A828B834B
:030B1E0002187C3E
:060B2100438C0102187C68
:060B2700538CFE02187C55
:0E0B2D0074105589FA7B008A828B8302187C33
:080B3B00C2C575890002187C97
:050B43007859790A7ADF
:090B48000012186AE58270209089
:080B5100000C75F04078B47946
:040B59001F7A0012ED
:0B0B5D00186AAA82AB83EA4BB40100C7
:080B6800E433FA7003FA800285
:020B70007A0108
:0C0B7200EA3395E0FB8A828B8302187C3A
:0C0B7E00AA82AB83BA8105BB000280068E
:060B8A00BA8212BB000F4D
:050B90007885790A7A66
:0A0B95000012186AAA82AB838003E5
:030B9F00900000C3
:030BA20002187CBA
:0A0BA500C01A85811AAA82AB83BA38
:070BAF008005BB0002800B72
:080BB600BA8105BB0002802397
:030BBE00020C36F0
:050BC1007893790A7A27
:050BC6000012186A781E
:040BCB003D790A7AEC
:050BCF000012186A7815
:040BD40069790A7AB7
:090BD8000012186A900001805817
:0B0BE100E51A24FBF8E60846603D78AA
:040BEC0085790A7A83
:0C0BF0000012186AE5828583F045F07061
:0C0BFC0034C0E0C0E090000C75F04078C0
:040C0800EE791E7AE9
:090C0C000012186A1581158178A7
:040C1500AD790A7A31
:050C19000012186A78CA
:040C1E006F790A7A66
:060C22000012186A8009AF
:050C28007878790A7ADA
:040C2D000012186A2F
:050C31009000018003AA
:030C36009000002B
:050C3900D01A02187C36
:050C3E0078D1790A7A6B
:090C43000012186AE5827020908D
:080C4C00001075F04078B47946
:040C54001F7A0012F1
:0B0C5800186AAA82AB83EA4BB40100CB
:080C6300E433FA7003FA800289
:020C6B007A010C
:0C0C6D00EA3395E0FB8A828B8302187C3E
:0C0C7900AA82AB83BA8105BB0002800692
:060C8500BA8212BB000F51
:050C8B007810790B7ADE
:0A0C90000012186AAA82AB838003E9
:030C9A00900000C7
:030C9D0002187CBE
:0A0CA000C01A85811AAA82AB83BA3C
:070CAA008005BB0002800879
:080CB100BA8171BB006E8017CF
:050CB90078B5790A7A0C
:050CBE000012186A7825
:040CC300E1790A7A4F
:090CC7000012186A900001805827
:0B0CD000E51A24FBF8E60846603D78BA
:040CDB0010790B7A07
:0C0CDF000012186AE5828583F045F07071
:0C0CEB0034C0E0C0E090001075F04078CC
:040CF700EE791E7AFA
:090CFB000012186A1581158178B8
:040D04003B790B7AB2
:050D08000012186A78DA
:040D0D00E7790A7AFE
:060D11000012186A8009BF
:050D170078F8790A7A6A
:040D1C000012186A3F
:050D20009000018003BA
:030D25009000003B
:050D2800D01A02187C46
:0C0D2D00C021C0E0C0F0C082C083C00242
:0E0D3900C003C004C005C006C007C000C00152
:0A0D4700C0D075D000C2AF782D793E
:040D51000B7A001207
:0E0D5500186AE5828583F045F0604190001039
:080D630075F04078B4791F7AA5
:0C0D6B000012186AE5828583F045F060F4
:0E0D7700297420C0E0E4C0E090001075F04048
:050D850078EE791E7AF2
:090D8A000012186A158115819010
:080D93004DAC75F080787B790E
:040D9B00197A0012AF
:020D9F00186AD0
:0E0DA100758900C2C5D2AFD0D0D001D000D02D
:0E0DAF0007D006D005D004D003D002D083D0E8
:080DBD0082D0F0D0E0D0213219
:0C0DC500C021C0E0C0F0C082C083C002AA
:0E0DD100C003C004C005C006C007C000C001BA
:0A0DDF00C0D075D000C2AF789F7934
:040DE9000A7A001270
:0E0DED00186AE5828583F045F0604190000CA5
:080DFB0075F04078B4791F7A0D
:0C0E03000012186AE5828583F045F0605B
:0E0E0F00297420C0E0E4C0E090000C75F040B3
:050E1D0078EE791E7A59
:090E22000012186A158115819077
:080E2B004DA075F080787B7981
:040E3300197A001216
:020E3700186A37
:0E0E3900758A00C2EBD2AFD0D0D001D000D06D
:0E0E470007D006D005D004D003D002D083D04F
:080E550082D0F0D0E0D0213280
:034DA000B84D808B
:024DA300430BC0
:024DA50000A567
:024DA7000B00FF
:024DA9007E0B7F
:014DAB000007
:034DAC00C14D8076
:024DAF003E0CB8
:024DB10000A060
:024DB3000C00F2
:024DB500790C77
:014DB70000FB
:094DB800427574746F6E20310025
:094DC100427574746F6E2032001B
:020000040002F8
:0E80000074B8C0E0E4C0E0E4C0E090E139757F
:07800E00F000788279477A47
:0C8015000012186A158115811581743461
:0E802100C0E0E4C0E0E4C0E090E1F175F000E2
:05802F00788279477A18
:0C8034000012186A158115811581745422
:0E804000C0E0E4C0E0E4C0E090E22575F0008E
:05804E00788279477AF9
:0C8053000012186A15811581158174DD7A
:0E805F00C0E0E4C0E0E4C0E090E05C75F0003A
:05806D00788279477ADA
:0C8072000012186A15811581158174BC7C
:0E807E00C0E0E4C0E0E4C0E090E27975F000FC
:05808C00788279477ABB
:0B8091000012186A15811581158190FE
:0C809C00E335741CF090E3367412F09091
:0E80A800E05CE4F0A37405F0A3E4F0A3F09014
:0E80B600E0607440F090E06174C0F0A37427A5
:0B80C400F0A37409F0A3E4F0787A79CF
:0480CF00A17A02127E
:0E80D300186AAA82AB83ACF0FD90E065EAF07B
:0E80E100A3EBF0A3ECF0A3EDF090E0697410B7
:0E80EF00F0A37427F0A3E4F0A3F090E06DF08E
:0E80FD0090E33774FEF0A37480F090E339E452
:0E810B00F0A3F090E33BF0A3E4F090E33DF02E
:0E811900A3E4F0E4C0E0C0E0C0E0C0E0E4C0D9
:0E812700E0C0E0C0E0C0E0E4C0E0E4C0E0740E
:0C81350040C0E090E33775F00078C87996
:04814100907A02121C
:0C814500186AE58124F5F581746FC0E034
:0C81510074E5C0E0E4C0E090E33775F096
:06815D0000785579A07ABC
:0C8163000212186A158115811581740143
:0E816F00C0E0E4C0E0C0E0C0E0C0E090E33754
:08817D0075F000784479937A53
:0B8185000212186AE58124FBF58190CE
:0E819000E33774FFF0A37402F090E339E4F0DB
:0E819E00A3F090E33BF0A3E4F090E33DF0A3E8
:0E81AC00E4F090E33FF0A3E4F090E341F0A391
:0E81BA00E4F090E343F0A3E4F090E345F0A37B
:0C81C8007401F090E33775F00078FC794A
:0481D400977A021282
:0D81D800186A90E33774FFF0A37402F09072
:0E81E500E339E4F0A3F090E33BF0A3E4F09064
:0E81F300E33DF0A3E4F090E33FF0A3E4F0904E
:0E820100E341F0A3E4F090E343F0A3E4F09037
:0E820F00E345F0A37402F090E33775F00078B9
:04821D00FC79977AD7
:0C8221000212186A740CC0E0E4C0E09087
:08822D00E04A75F00078577972
:04823500A97A02120E
:09823900186A1581158102187CF8
:0A824200C01AE581F51A2407F58142
:08824C0090E34A746EF0A37484
:05825400E0F0A3E4F0DE
:0E82590090E34AE0FAA3E0FBA3E0FCC3EA9442
:0A826700C2EB94E0EC940050678A2B
:0E827100828B838CF01248A9604D74132AFD95
:0E827F00E43BFE8C078D828E838FF01248A99F
:0E828D00703974142AFAE43BFB8A828B838CCE
:06829B00F078A3790F7AD0
:0C82A1000012186AE5828583F045F06049
:0E82AD001A90E34AE0FAA3E0FBA3E0FC8A8209
:0982BB008B838CF0784779957AE9
:0482C4000212186A20
:0D82C80090E34AE0241CF0A3E03400F00233
:0282D5008259CC
:0882D70090E35974F1F0A37467
:0582DF00E1F0A3E4F052
:0E82E40090E359E0FAA3E0FBA3E0FCC3EA94A8
:0A82F20025EB94E2EC940050678A3B
:0E82FC00828B838CF01248A9604D74192AFD04
:0E830A00E43BFE8C078D828E838FF01248A913
:0E831800703974112AFAE43BFB8A828B838C45
:06832600F078A3790F7A44
:0C832C000012186AE5828583F045F060BD
:0E8338001A90E359E0FAA3E0FBA3E0FC8A826E
:098346008B838CF07888798F7A22
:04834F000212186A94
:0D83530090E359E0241AF0A3E03400F0029A
:0283600082E4B5
:0883620090E3567439F0A37496
:05836A00E1F0A3E4F0C6
:0C836F0090E356E51A2404F8E0F6A3E0C1
:0C837B0008F6A3E008F6E51A2404F8C395
:0A838700E694F108E694E108E6949C
:068391000040030287C852
:0C839700E51A2404F88682088683088614
:0983A300F01248A970030287B929
:0C83AC00E51A2404F8742D26FDE40836C0
:0E83B800FE0886078D828E838FF01248A9FD85
:0883C6006015BD010302851FD3
:0683CE00BD030302856AF5
:0683D400BD040302860552
:0383DA000287B95E
:0C83DD00E51A2404F8742B26FDE4083691
:0E83E900FE0886078D828E838FF01248A9FD54
:0383F700BD0300C3
:0C83FA004019E51A2404F88682088683E6
:088406000886F078F3798C7A06
:05840E000212186A02D1
:0284130087B927
:0C841500E51A2404F8742126FDE4083662
:0C842100FE0886078D828E838FF078A302
:05842D00790F7A001236
:0E843200186AE5828583F045F070030287B971
:0E84400090E670E0FDA3E0FE4D60030287B9F8
:0C844E0090E356E0FAA3E0FBA3E0FCA8DA
:0C845A001A08742B2AF6E43B08F608A66A
:0C84660004A81A0886820886830886F0A5
:0C8472001248A9FE0EA81A08868208868F
:0D847E00830886F0EE1242590ABA00010B85
:0E848B00C002C003C004E4C0E0C0E0C0E09046
:0A849900000075F00078D979C47A6C
:0B84A3000212186AE58124FAF58190AE
:0E84AE00E069E0FAA3E0FBA3E0FCA3E0FD74AC
:0E84BC00E8C0E07403C0E0E4C0E0C0E08A82E3
:0E84CA008B838CF0ED1246F8AA82AB83ACF0E7
:0C84D800FDE58124FCF58190E356A81A14
:0C84E40008E0F6A3E008F6A3E008F6A804
:0C84F0001A08742126F6E40836F6C002D3
:0C84FC00C003C004C005A81A088682084E
:0A85080086830886F0785D790E7A0C
:0B8512000012186AE58124FCF58102CC
:02851D0087B91C
:0C851F00E51A2404F8741926FEE408365E
:0C852B00FF0886028E828F838AF078A3FE
:05853700790F7A00122B
:0E853C00186AE5828583F045F070030287B966
:0E854A0090E356E0FAA3E0FBA3E0FC742D2AB8
:0D855800FAE43BFB8A828B838CF0740212E4
:0585650042590287B934
:0C856A00E51A2404F8741926FAE4083617
:0C857600FB0886048A828B838CF078A3BB
:05858200790F7A0012E0
:0E858700186AE5828583F045F070030287B91B
:0C85950090E356A81A08E0F6A3E008F6F0
:0C85A100A3E008F6A81A08742D26FEE4DA
:0E85AD000836FF0886028E828F838AF07404DF
:0C85BB00124259A81A08742B26FAE40892
:0D85C70036FB0886048A828B838CF0E41258
:0C85D4004259A81A08742126FAE408365F
:0E85E000FB088604E4C0E0C0E0C0E0C0E08A12
:0A85EE00828B838CF0785D790E7AA1
:0B85F8000012186AE58124FCF58102E6
:0286030087B935
:0C860500E51A2404F8742B26FAE4083669
:0E861100FB0886048A828B838CF01248A9FA3B
:03861F00BA03009B
:0586220050030286A2D6
:0C862700E51A2404F8740126FAE4083671
:0C863300FB0886048A828B838CF078A6FA
:05863F00798F7A0212A0
:0E864400186AAB82AC83ADF090E359EBF0A363
:0E865200ECF0A3EDF0BB0008BC0005BD00027B
:02866000802375
:0E86620074192BFEE43CFF8D028E828F838AFA
:0D867000F01248A9700F8B828C838DF0787A
:04867D0088798F7AEF
:048681000212186A5F
:0E86850090E356E0FAA3E0FBA3E0FC8A828BB0
:08869300838CF078F3798C7AF6
:05869B000212186A0242
:0286A00087B998
:0C86A200E51A2404F8742126FAE40836D6
:0C86AE00FB0886048A828B838CF078A382
:0586BA00790F7A0012A7
:0E86BF00186AE5828583F045F070030287B9E2
:0E86CD0090E670E0FAA3E0FB4A60030287B972
:0C86DB0090E356E51A2404F8E0F6A3E052
:0C86E70008F6A3E008F6E51A2404F87475
:0E86F3002B26FEE40836FF0886028E828F8357
:0E8701008AF01248A9FB0B8E828F838AF0EB60
:0C870F00124259E51A2404F8740126FAFD
:0E871B00E40836FB088604C002C003C004C098
:0C87290002C003C00490000075F000784E
:04873500D979C47AB0
:0B8739000212186AE58124FAF5819015
:0E874400E069E0FAA3E0FBA3E0FCA3E0FE7412
:0E875200E8C0E07403C0E0E4C0E0C0E08A824A
:0C8760008B838CF0EE1246F8C8E51A245A
:0E876C0004C8A68208A68308A6F008F6E581D8
:0E877A0024FCF58190E356E0FFA3E0FAA3E0B3
:0C878800FB74212FFFE43AFAE51A2404E8
:0E879400F8E6C0E008E6C0E008E6C0E008E64F
:0B87A200C0E08F828A838BF0785D7945
:0487AD000E7A00122E
:0887B100186AE58124FCF58142
:0D87B90090E356E0242EF0A3E03400F0021F
:0287C600836FBF
:0987C80090E04A75F00078A179F7
:0487D100A97A02126D
:0687D500186A851A81D02C
:0487DB001A02187CEA
:0A87DF00C01A85811AC082C083C051
:0C87E900F0058105810581E51A24F3F8F4
:0E87F50086050886060886078D828E838FF023
:0C880300E4124259A3E4124259A3E4120B
:06880F004259A81A08E519
:0C8815001A2404F9E6F70809E6F7080940
:0C882100E6F7E51A24F6F8E6C423541F1D
:01882D00FC4E
:0C882E00C005C006C007E51A24FCF8864F
:0C883A00057E00C004C007E51A24FAF80F
:0E884600E6C0E008E6C0E08D828E8312440E8C
:0D885400AD82AE8315811581D007D004A838
:0C8861001A08ED26FDEE0836FE0886071A
:0C886D00E51A2404F8C3E69D08E69E0806
:0D887900E69FD007D006D005400302894CD1
:0C888600E51A2404F88682088683088620
:09889200F01248A9700302891CD0
:0C889B00C005C006C0078C057E00E51A71
:0E88A7002404F8740126FFE40836FA0886035C
:0D88B500C004C005C006C007C005C006E530
:0C88C2001A24F7F8E6C0E008E6C0E00861
:0C88CE00E6C0E08F828A838BF078AC79E2
:0488DA00447A0012CA
:0E88DE00186AAA82AB83E58124FBF581D007DE
:0E88EC00D006D005D004D007D006D005EA4B48
:0C88FA00703B8D828E838FF0E51A240401
:0E890600F8E6124259A308E6124259A308E609
:088914001242597582008060D7
:0C891C008D828E838FF0E51A2404F8E6AB
:0D892800124259A308E6124259A308E612B4
:028935004259A5
:0A893700E51A2404F8E51A24FAF901
:0B894100E726F609E70836F602882E4C
:0E894C008D828E838FF01248A9FDA31248A9D8
:0E895A00FEA31248A9FFE4BD0007BE0004BF43
:0389680000010407
:04896B00FDB4010056
:0A896F00E433FD600575820180030A
:0389790075820202
:06897C00851A81D01A02E9
:02898200187C5F
:0A898400C01A85811AC082C083C0AA
:0C898E00F0E5812409F5817456C0E07406
:0B899A00E3C0E0E4C0E07480C0E0A88F
:0C89A5001A08E6C0E008E6C0E008E6C0E2
:0D89B100E0742EC0E0E4C0E07404C0E0906B
:0889BE00E13975F00078DF7962
:0489C600877A021298
:0E89CA00186AAD82E58124F6F5817E00BD01BC
:0689D80005BE0002800351
:0389DE00028BD237
:0E89E10090E356E0FFA3E0FAA3E0FB8F828A4A
:0D89EF00838BF074011242590FBF00010A82
:0C89FC007410C0E0E4C0E0A81A08E6C057
:0E8A0800E008E6C0E008E6C0E08F828A838BBB
:068A1600F078EF79477AC9
:0B8A1C000012186AE58124FBF581E5DB
:0C8A27001A24FAF8B6000A08B600060887
:058A3300B600028040C6
:0E8A380090E356E0FAA3E0FBA3E0FC74112AE1
:0C8A4600FAE43BFB7408C0E0E4C0E0E58B
:0C8A52001A24FAF8E6C0E008E6C0E008CC
:0C8A5E00E6C0E08A828B838CF078EF7910
:048A6A00477A001235
:0A8A6E00186AE58124FBF5818031D0
:0E8A780090E356E0FAA3E0FBA3E0FC74112AA1
:0E8A8600FAE43BFB7408C0E0E4C0E0E4C0E0AA
:0A8A94008A828B838CF07882794788
:0B8A9E007A0012186A158115811581FD
:0C8AA90090E356E51A2407F8E0F6A3E07D
:0C8AB50008F6A3E008F6E51A2407F874A0
:0E8AC1002C26FFE40836FA0886038F828A838B
:0C8ACF008BF0E51A24F9F8E6124259E594
:0C8ADB001A2407F8742D26FAE40836FB74
:0C8AE7000886048A828B838CF0E51A2438
:0C8AF300F8F8E6124259E51A2407F8745E
:0E8AFF001926FAE40836FB088604E4C0E0C03D
:0C8B0D00E0C0E0C0E08A828B838CF0782E
:048B19005D790E7AFA
:0B8B1D000012186AE58124FCF581902D
:0E8B2800E356E0FAA3E0FBA3E0FC74212AFA76
:0E8B3600E43BFBE4C0E0C0E0C0E0C0E08A82A7
:098B44008B838CF0785D790E7AC8
:0B8B4D000012186AE58124FCF58190FD
:0E8B5800E356E0FCA3E0FDA3E0FE742B2CFF2F
:0D8B6600E43DFA8E038F828A838BF0E412C7
:0B8B730042598C828D838EF078F279DD
:048B7E008F7A0312D5
:0E8B8200186A90E356E0FAA3E0FBA3E0FC744F
:0D8B9000292AFDE43BFBC003C004C00578AA
:048B9D005979347A54
:0C8BA1000012186AAF82AA83D005D0042D
:0E8BAD00D0038D828B838CF0EF124259A3EA25
:0E8BBB0012425990E356E0FAA3E0FBA3E0FC5F
:098BC9008A828B838CF0028CEB94
:088BD200BD0205BE0002800394
:038BDA00028CE525
:0C8BDD00E51A2407F8E4F608F608760014
:058BE900785979347A8F
:098BEE000012186AAD82AE83E5A5
:088BF7001A2404F8763908760F
:048BFF00E108760013
:0A8C0300E51A2404F8C3E694F10812
:0A8C0D00E694E108E69400505FE5EC
:0C8C17001A2404F886820886830886F080
:0C8C23001248A9603EE51A2404F87429E8
:0E8C2F0026FCE40836FA0886038C828A838BC2
:0E8C3D00F01248A9FAA31248A9FBC3EA9DEB66
:0A8C4B009E5018E51A2404F8E51AFB
:0E8C55002407F9E6F70809E6F70809E6F78AAA
:038C6300058B0678
:0C8C6600E51A2404F8742E26F6E4083603
:038C7200F6808EFB
:0C8C7500E51A2407F8B6000A08B600064D
:068C810008B60002805E4F
:0C8C8700E51A2407F88682088683088618
:068C9300F078F3798C7A01
:058C99000212186AE55B
:0A8C9E001A24F8F8E6C0E0E51A24F5
:0C8CA800F9F8E6C0E0E51A24FAF8E6C08E
:0C8CB400E008E6C0E008E6C0E0A81A08EE
:0B8CC00086820886830886F07884799D
:048CCB00897A02128E
:0E8CCF00186AAA82AB83ACF0E58124FBF58124
:088CDD008A828B838CF0800673
:068CE50090000075F00094
:068CEB00851A81D01A0277
:028CF100187CED
:0E8CF300AA82AB83ACF0BA0008BB0005BC003F
:038D0100028019D4
:0E8D04008A828B838CF0E41242598A828B8320
:078D12008CF078F2798F7AF2
:048D19000312186ABF
:038D1D0002187CBD
:0B8D2000AA82AB83ACF07456C0E07474
:0C8D2B00E3C0E0E4C0E07480C0E0C002DF
:0E8D3700C003C004742EC0E0E4C0E07404C0A9
:0A8D4500E090E13975F00078DF7965
:048D4F00877A02120B
:0E8D5300186AAA82E58124F6F581EA704D9037
:0E8D6100E356E0FAA3E0FBA3E0FC74292AFA33
:0C8D6F00E43BFBC002C003C0047859794B
:048D7B00347A001234
:0E8D7F00186AAD82AE83D004D003D0028A827F
:0E8D8D008B838CF0ED124259A3EE12425990E6
:0E8D9B00E356E0FAA3E0FBA3E0FC8A828B83A0
:048DA9008CF08006C4
:068DAD0090000075F000CB
:038DB30002187C27
:0C8DB600AA82AB83ACF090E3567439F055
:078DC200A374E1F0A3E4F04B
:0E8DC90090E356E0FDA3E0FEA3E0FFC3ED94AF
:0A8DD700F1EE94E1EF9400506A8D74
:0E8DE100828E838FF01248A9605074112DFD10
:0E8DEF00E43EFEC002C003C0047408C0E0E40D
:0E8DFD00C0E0C005C006C0078A828B838CF0E0
:058E0B0078AC79447A07
:0C8E10000012186AAD82AE83E58124FBDD
:0D8E1C00F581D004D003D002ED4E7013900C
:0E8E2900E356E0FDA3E0FEA3E0FF8D828E8302
:048E37008FF0801523
:0D8E3B0090E356E0242EF0A3E03400F00296
:028E48008DC9D2
:068E4A0090000075F0002D
:038E500002187C89
:0A8E5300C01A85811AAA82AB83AC15
:0C8E5D00F0C002C003C0047459C0E074EF
:0C8E6900E3C0E0E4C0E07480C0E0C002A0
:0E8E7500C003C004741AC0E0E4C0E07402C080
:0A8E8300E090E1F175F00078DF796E
:048E8D00877A0212CC
:0E8E9100186AAD82E58124F6F581D004D00385
:078E9F00D002BD01028003B7
:038EA600028F7DBB
:0E8EA90090E359E0FDA3E0FEA3E0FF8D828E72
:0D8EB700838FF074011242590DBD00010EB1
:0E8EC4007410C0E0E4C0E0C002C003C0048D22
:0A8ED200828E838FF078EF79477AE3
:0B8EDC000012186AE58124FBF581E517
:0C8EE7001A24F9F8E60846084608466020
:0E8EF3005990E359E0FAA3E0FBA3E0FC7411F0
:0C8F01002AFAE43BFBE51A24F9F8E6C06C
:0E8F0D00E008E6C0E008E6C0E008E6C0E08A42
:0A8F1B00828B838CF0785D790E7A6A
:0B8F25000012186AE58124FCF5819021
:0E8F3000E359E0FAA3E0FBA3E0FC74192AFA6F
:0E8F3E00E43BFB8A828B838CF0E41242598064
:018F4C001D07
:0E8F4D0090E359E0FAA3E0FBA3E0FC74192ABC
:0D8F5B00FAE43BFB8A828B838CF0740112D8
:028F680042596C
:0E8F6A0090E359E0FAA3E0FBA3E0FC8A828BBF
:058F7800838CF080066F
:068F7D0090000075F000F9
:058F8300D01A02187C69
:0E8F8800AA82AB83ACF0BA0008BB0005BC00A7
:038F960002800A4C
:0A8F99008A828B838CF0E4124259A7
:038FA30002187C35
:0B8FA600AA82AB83ACF07459C0E074E9
:0C8FB100E3C0E0E4C0E07480C0E0C00257
:0E8FBD00C003C004741AC0E0E4C0E07402C037
:0A8FCB00E090E1F175F00078DF7925
:048FD500877A021283
:0E8FD900186AAA82E58124F6F581EA701390E9
:0E8FE700E359E0FAA3E0FBA3E0FC8A828B834F
:048FF5008CF0800676
:068FF90090000075F0007D
:038FFF0002187CD9
:0D90020090E347E4F0A3F0A3F090E359746D
:09900F00F1F0A374E1F0A3E4F018
:0E90180090E359E0FAA3E0FBA3E0FCC3EA9466
:0A90260025EB94E2EC9400400302F5
:0290300090B4FA
:0E9032008A828B838CF01248A960680ABA000B
:02904000010B22
:0A9042008A828B838CF07820798DF0
:0C904C007A0212186AAA82AB83ACF0BA58
:0A9058000008BB0005BC0002802ADE
:0E906200742D2AFAE43BFB8A828B838CF01279
:0E90700048A9601890E359E0FAA3E0FBA3E0E2
:06907E00FC0ABA00010B20
:089084008A828B838CF0803995
:0E908C0090E359E0FAA3E0FBA3E0FC90E34779
:0B909A0074012AF0E43BA3F0A3ECF00B
:0D90A50090E359E0241AF0A3E03400F0023B
:0290B200901814
:0E90B40090E347E0FAA3E0FBA3E0FC8A828B86
:0390C200838CF0AC
:0390C50002187C12
:0A90C800C01A85811AAA82AB83AC9E
:0C90D200F0C002C003C0047453C0E0747E
:0A90DE00E3C0E0E4C0E0E51A24FC62
:0E90E800F8E6C0E0C002C003C004741CC0E083
:0E90F600E4C0E07403C0E090E22575F000785D
:04910400DF79877A0E
:0C9108000212186AAD82E58124F6F581A0
:0B911400D004D003D002BD0102800394
:03911F0002920EAB
:0E91220090E353E0FDA3E0FEA3E0FF8D828EFC
:0D913000838FF074011242590DBD00010E35
:0E913D007410C0E0E4C0E0C002C003C0048DA6
:0A914B00828E838FF078EF79477A67
:0B9155000012186AE58124FBF58190F0
:0E916000E353E0FAA3E0FBA3E0FC74112AFD48
:0C916E00E43BFE8C078D828E838FF0E5C1
:0C917A001A24FCF8E612425974122AFD77
:0C918600E43BFE8C078D828E838FF0E5A9
:0C9192001A24FBF8E6124259741B2AFD57
:0C919E00E43BFE8C078D828E838FF0E591
:0C91AA001A24FAF8E612425974132AFD48
:0C91B600E43BFE8C078D828E838FF0E579
:0C91C2001A24F6F8E6124259A308E6123F
:0C91CE004259A308E6124259A308E61219
:0E91DA00425974172AFDE43BFE8C078D828EED
:0C91E800838FF0E51A24F2F8E6124259D9
:0E91F400A308E6124259A308E6124259A30846
:0C920200E61242598A828B838CF08006B1
:06920E0090000075F00065
:05921400D01A02187CD5
:0E921900AA82AB83ACF0BA0008BB0005BC0013
:0392270002800AB8
:0A922A008A828B838CF0E412425913
:0392340002187CA1
:0A923700C01A85811AAA82AB83AC2D
:0A924100F07453C0E074E3C0E0E4F1
:0C924B00C0E0E51A24FCF8E6C0E0C00218
:0E925700C003C004741CC0E0E4C0E07403C097
:0A926500E090E22575F00078DF7953
:04926F00877A0212E6
:0E927300186AAA82E58124F6F581EA7013904C
:0E928100E353E0FAA3E0FBA3E0FC8A828B83B8
:04928F008CF08006D9
:0692930090000075F000E0
:05929900D01A02187C50
:0A929E00C01A85811AC082C083C087
:0992A800F090E3537425F0A37467
:0592B100E2F0A3E4F06F
:0E92B60090E353E0FDA3E0FEA3E0FFC3ED94C0
:0A92C40079EE94E2EF9400506C8DF7
:0E92CE00828E838FF01248A9605274112DFA1F
:0E92DC00E43EFB8F048A828B838CF01248A93B
:0C92EA00C423541FFB7C000DBD00010ECE
:0C92F600C003C004A81A08E6C0E008E6A7
:0D930200C0E008E6C0E08D828E838FF07819
:04930F00AC79447A77
:0C9313000012186AAB82AC83E58124FBD9
:0B931F00F581EB4C7005758201801297
:0D932A0090E353E0241CF0A3E03400F002B7
:0293370092B6EC
:039339007582003A
:06933C00851A81D01A021F
:02934200187C95
:0A934400C01A85811AAA82AB83AC1F
:0C934E00F0C002C003C004744AC0E07408
:0C935A00E3C0E0E4C0E07480C0E0C002AA
:0E936600C003C004741CC0E0E4C0E07403C087
:0A937400E090E06E75F00078DF79FC
:04937E00877A0212D6
:0E938200186AAD82E58124F6F581D004D0038F
:07939000D002BD01028003C1
:0393970002953C00
:0E939A0090E34AE0FDA3E0FEA3E0FF8D828E8B
:0D93A800838FF074011242590DBD00010EBB
:0E93B500C002C003C0047410C0E0E4C0E0C0F9
:0C93C30002C003C0048D828E838FF078FE
:0493CF00EF79477A71
:0B93D3000012186AE58124FBF5819070
:0E93DE00E34AE0FDA3E0FEA3E0FF74122DFAC7
:0C93EC00E43EFB8F048A828B838CF0E54A
:0C93F8001A24F8F8E6124259D004D00301
:0C940400D002E51A24F9F8E608460846F4
:0E94100008467022C002C003C00474132DFA77
:0E941E00E43EFB8F048A828B838CF074011273
:0A942C004259D004D003D002805B47
:0E943600C002C003C00474132DFAE43EFB8F85
:0E944400048A828B838CF0E412425974142D3A
:0C945200FDE43EFEC002C003C004E51AA9
:0E945E0024F9F8E6C0E008E6C0E008E6C0E049
:0C946C0008E6C0E08D828E838FF0785DF2
:05947800790E7A0012DC
:0E947D00186AE58124FCF581D004D003D002EA
:06948B00D004D003D00262
:0E94910090E34AE0FDA3E0FEA3E0FF74112D7E
:0D949F00FDE43EFE8D828E838FF07401127D
:0994AC00425990E33774FFF0907F
:0D94B500E3387402F090E339E4F0A3F09086
:0E94C200E33BF0A3E4F090E33DF0A3E4F09070
:0B94D000E33FF0A3E4F090E341F090D4
:0E94DB00E3427401F090E34374FFF0740D2A35
:0D94E900FDE43BFE8C078D828E838FF01218
:0E94F60048A990E344F0740E2AFAE43BFB8A86
:0E950400828B838CF01248A9FAA31248A9FBAF
:0E95120090E345EAF0A3EBF090E33775F0002C
:0595200078FC79977A48
:059525000212186A901B
:0E952A00E34AE0FAA3E0FBA3E0FC8A828B8315
:049538008CF080062D
:06953C0090000075F00034
:05954200D01A02187CA4
:0E954700AA82AB83ACF0BA0009BB0006BC00E0
:049555000302963146
:0D95590090E33774FFF090E3387402F09057
:0E956600E339E4F0A3F090E33BF0A3E4F090CF
:0E957400E33DF0A3E4F090E33FF0A3E4F090B9
:0A958200E341F090E3427401F09021
:0E958C00E34374FFF074012AFDE43BFE8C07FC
:0E959A00740D2DFDE43EFE8D828E838FF01247
:0E95A80048A990E344F074012AFDE43BFE8CD8
:0E95B60007740E2DFDE43EFE8D828E838FF035
:0A95C4001248A9FDA31248A9FE9069
:0E95CE00E345EDF0A3EEF090E33775F000C03A
:0A95DC0002C003C00478BF79987A3A
:0C95E6000212186AAD82AE83AFF0D00410
:0E95F200D003D00290E34DEDF0A3EEF0A3EF16
:0C960000F0BD0008BE0005BF0002801B8A
:0D960C008D828E838FF0C002C003C00478F1
:04961900A179987A21
:0A961D000212186AD004D003D00234
:0A9627008A828B838CF0E412425912
:0396310002187CA0
:0B963400AA82AB83ACF0744AC0E07463
:0C963F00E3C0E0E4C0E07480C0E0C002C2
:0E964B00C003C004741CC0E0E4C0E07403C09F
:0A965900E090E06E75F00078DF7914
:04966300877A0212EE
:0E966700186AAA82E58124F6F581EA70139054
:0E967500E34AE0FAA3E0FBA3E0FC8A828B83C9
:049683008CF08006E1
:0696870090000075F000E8
:03968D0002187C44
:0A969000AA8290E34A746EF0A374FE
:0A969A00E0F0A3E4F0E4BAFF0104DD
:0196A400FBCA
:0E96A50090E34AE0FCA3E0FDA3E0FEC3EC94DA
:0A96B300C2ED94E0EE9400400302C3
:0296BD00973CD8
:0E96BF008C828D838EF01248A96063EB7021BF
:0E96CD0074112CFCE43DFD8C828D838EF01216
:0E96DB0048A9FC7D00EAFE3395E0FFECB506E1
:0596E90043EDB5073F51
:0E96EE0090E34AE0FCA3E0FDA3E0FE74012C33
:0D96FC00FFE43DF88E018F82888389F01213
:0E97090048A9FFBFFE1E74022CFFE43DF88E3F
:0E971700018F82888389F01248A9FFBF800865
:089725008C828D838EF080150B
:0D972D0090E34AE0241CF0A3E03400F002B9
:02973A0096A5F2
:06973C0090000075F00032
:0397420002187C8E
:0A974500AA8290E34A746EF0A37448
:0A974F00E0F0A3E4F0E4BAFF010427
:01975900FB14
:0E975A0090E34AE0FCA3E0FDA3E0FEC3EC9424
:0A976800C2ED94E0EE94004003020D
:0297720097F36B
:0E9774008C828D838EF01248A96065EB702107
:0E97820074112CFCE43DFD8C828D838EF01260
:0E97900048A9FC7D00EAFE3395E0FFECB5062B
:05979E0045EDB5074197
:0E97A30090E34AE0FCA3E0FDA3E0FE74012C7D
:0D97B100FFE43DF88E018F82888389F0125D
:0E97BE0048A9FFBFFE1874022CFFE43DF88E90
:0E97CC00018F82888389F01248A9FFBF8002B6
:0297DA00800805
:0897DC008C828D838EF0801554
:0D97E40090E34AE0241CF0A3E03400F00202
:0297F100975A85
:0697F30090000075F0007B
:0397F90002187CD7
:0D97FC00AA82AB83ACF0C002C003C00474AD
:0A9809004DC0E074E3C0E0E4C0E0ED
:0E9813007480C0E0C002C003C0047411C0E045
:0E982100E4C0E07405C0E090E0E475F000786B
:04982F00DF79877ADC
:0C9833000212186AAD82E58124F6F5816E
:0E983F00D004D003D002BD015090E34DE0FDF7
:0E984D00A3E0FEA3E0FF8D828E838FF07401F6
:08985B001242590DBD00010E7F
:0E9863007410C0E0E4C0E0C002C003C0048D79
:0A987100828E838FF078EF79477A3A
:0B987B000012186AE58124FBF58190C3
:0E988600E34DE0FAA3E0FBA3E0FC8A828B83B3
:049894008CF08006CE
:0698980090000075F000D5
:03989E0002187C31
:0E98A100AA82AB83ACF0BA0008BB0005BC0085
:0398AF0002800A2A
:0A98B2008A828B838CF0E412425985
:0398BC0002187C13
:0B98BF00AA82AB83ACF0744DC0E074D3
:0C98CA00E3C0E0E4C0E07480C0E0C00235
:0E98D600C003C0047411C0E0E4C0E07405C01B
:0A98E400E090E0E475F00078DF7911
:0498EE00877A021261
:0E98F200186AAA82E58124F6F581EA701390C7
:0E990000E34DE0FAA3E0FBA3E0FC8A828B8338
:04990E008CF0800653
:0699120090000075F0005A
:0399180002187CB6
:0D991B00AA82AB83ACF0C002C003C004748C
:0A99280050C0E074E3C0E0E4C0E0CA
:0E9932007480C0E0C002C003C0047411C0E025
:0E994000E4C0E07402C0E090E0C275F0007870
:04994E00DF79877ABC
:0C9952000212186AAD82E58124F6F5814E
:0E995E00D004D003D002BD015090E350E0FDD4
:0E996C00A3E0FEA3E0FF8D828E838FF07401D6
:08997A001242590DBD00010E5F
:0E9982007410C0E0E4C0E0C002C003C0048D59
:0A999000828E838FF078EF79477A1A
:0B999A000012186AE58124FBF58190A3
:0E99A500E350E0FAA3E0FBA3E0FC8A828B8390
:0499B3008CF08006AE
:0699B70090000075F000B5
:0399BD0002187C11
:0E99C000AA82AB83ACF0BA0008BB0005BC0065
:0399CE0002800A0A
:0A99D1008A828B838CF0E412425965
:0399DB0002187CF3
:0B99DE00AA82AB83ACF07450C0E074B0
:0C99E900E3C0E0E4C0E07480C0E0C00215
:0E99F500C003C0047411C0E0E4C0E07402C0FE
:0A9A0300E090E0C275F00078DF7912
:049A0D00877A021240
:0E9A1100186AAA82E58124F6F581EA701390A6
:0E9A1F00E350E0FAA3E0FBA3E0FC8A828B8315
:049A2D008CF0800633
:069A310090000075F0003A
:039A370002187C96
:0A9A3A00C01A85811AC082C083C0E3
:0C9A4400F005810581E4FDFEFFE51A2419
:0C9A500004F8760090E35C7479F0A374D5
:059A5C00E2F0A3E4F0BC
:0E9A610090E35CE0FCA3E0FAA3E0FBC3EC940E
:0A9A6F0035EA94E3EB940040030293
:029A79009B57F9
:0E9A7B008C828A838BF01248A97003029B48EC
:0E9A8900C005C006C00774112CFDE43AFE8B28
:0C9A9700078D828E838FF0E51A2405F8FD
:0A9AA3001248A9F6E51A2405F8E5BB
:0C9AAD001A2404F9C3E697D007D006D0B5
:069AB900055003029B486A
:0C9ABF00C005C006C007E51A2405F8E643
:0E9ACB00C423541FFD7E0074012CFFE43AFA00
:0E9AD900C005C006C007C005C006C007C00219
:0C9AE700C003A81A08868208868308863F
:069AF300F078AC79447A22
:0C9AF9000012186AAA82AB83E58124FBEE
:0E9B0500F581D007D006D005D007D006D005D8
:0E9B1300EA4B703190E35CE0FDA3E0FEA3E0BE
:0E9B2100FF74112DFAE43EFB8F048A828B83C1
:0C9B2F008CF01248A9FAE51A2404F8A6EC
:0D9B3B00028D028E038F048A058B068C07B5
:0D9B480090E35CE0242FF0A3E03400F00275
:029B55009A6113
:0A9B57008D828E838FF0851A81D075
:049B61001A02187C50
:0A9B6500C01A85811AAA82AB83ACF6
:0C9B6F00F0C002C003C004745CC0E074CD
:0A9B7B00E3C0E0E4C0E0E51A24FCBA
:0E9B8500F8E6C0E0C002C003C004742FC0E0C8
:0E9B9300E4C0E07404C0E090E27975F0007860
:049BA100DF79877A67
:0C9BA5000212186AAD82E58124F6F581F9
:0B9BB100D004D003D002BD01028003ED
:039BBC00029C9B6D
:0E9BBF0090E35CE0FDA3E0FEA3E0FF8D828E4C
:0D9BCD00838FF074011242590DBD00010E8E
:0E9BDA007410C0E0E4C0E0C002C003C0048DFF
:0A9BE800828E838FF078EF79477AC0
:0B9BF2000012186AE58124FBF5819049
:0E9BFD00E35CE0FAA3E0FBA3E0FC74112AFD98
:0C9C0B00E43BFE8C078D828E838FF0E519
:0C9C17001A24FCF8E612425974132AFAD1
:0C9C2300E43BFB7410C0E0E4C0E0E51A74
:0E9C2F0024F9F8E6C0E008E6C0E008E6C0E070
:0A9C3D008A828B838CF078EF794760
:0C9C47007A0012186AE58124FBF5819078
:0E9C5300E35CE0FAA3E0FBA3E0FC74122AFD40
:0C9C6100E43BFE8C078D828E838FF0E5C3
:0C9C6D001A24F8F8E612425974232AFA6F
:0E9C7900E43BFB740CC0E0E4C0E0E4C0E08A11
:0A9C8700828B838CF0788279477A93
:0A9C91000012186A15811581158173
:0E9C9B0090E35CE0FAA3E0FBA3E0FC8A828B7E
:089CA900838CF0D01A02187C34
:0D9CB100AA82AB83ACF0E412425902187C89
:0C9CBE00AA82AB83ACF090E35C7479F0F8
:079CCA00A374E2F0A3E4F033
:0E9CD10090E35CE0FDA3E0FEA3E0FFC3ED9492
:0A9CDF0035EE94E3EF9400506C8D15
:0E9CE900828E838FF01248A9605274132DFDF5
:0E9CF700E43EFEC002C003C0047410C0E0E4EE
:0E9D0500C0E0C002C003C0048D828E838FF0C8
:059D130078AC79447AF0
:0C9D18000012186AAD82AE83E58124FBC6
:0D9D2400F581D004D003D002ED4E701590F3
:0E9D3100E35CE0FDA3E0FEA3E0FF8D828E83E5
:069D3F008FF0E41242590E
:0D9D450090E35CE0242FF0A3E03400F00276
:029D52009CD1A2
:039D540002187C76
:0A9D5700C01A85811AC082C083C0C3
:0D9D6100F0E581240CF581E4FAFEFFFDE53C
:0A9D6E001A24FAF8E51A2407F9E6B2
:0C9D7800F70809E6F70809E6F7E51A24E9
:0E9D840007F886820886830886F01248A9FB3D
:0C9D9200BBFE32C006C007C005E51A2465
:0E9D9E0007F8740126FDE40836FE0886078DDE
:0E9DAC00828E838FF01248A9FDBD8009D0057C
:079DBA00D007D006029F1A3A
:069DC100D005D007D0061A
:069DC700BBFF03029F1A1E
:089DCD0090E34A746EF0A374E8
:059DD500E0F0A3E4F042
:0C9DDA0090E34AE51A240AF8E0F6A3E042
:0C9DE60008F6A3E008F6E51A240AF8C30A
:0A9DF200E694C208E694E008E69447
:069DFC00004003029F324B
:0C9E0200E51A240AF88682088683088688
:099E0E00F01248A97003029F0B39
:0C9E1700C006C007C005E51A240AF87454
:0E9E23001126FDE40836FE0886078D828E8328
:0B9E31008FF01248A9FDBD010280095E
:099E3C00D005D007D006029F0BEF
:0C9E4500E51A240AF8740126FDE4083632
:0E9E5100FE0886078D828E838FF01248A9FDD1
:059E5F00BDFE028008B9
:089E6400D005D007D006802BC9
:0C9E6C00E51A240AF8740226FDE408360A
:0E9E7800FE0886078D828E838FF01248A9FDAA
:0B9E8600BD8008D005D007D006807A10
:069E9100D005D007D00649
:0E9E9700C006C007C00590E34AE0FDA3E0FE50
:089EA500A3E0FF0DBD00010E5A
:0D9EAD00C002C006C007C005C006C007E522
:0C9EBA001A2407F886820886830886F0C8
:059EC60078C479A07AC8
:0C9ECB000212186AAD8215811581158104
:0E9ED700D007D006D0028D03C3EB9AD005D081
:0C9EE50007D00640218B0290E34AE51AEA
:0E9EF1002404F8E0F6A3E008F6A3E008F6E586
:0C9EFF001A2404F8860608860708860569
:0D9F0B0090E34AE0241CF0A3E03400F002D3
:029F18009DDAD0
:089F1A00758201789079967AB6
:0C9F22000212186AAA82AB83ACF08A0617
:049F2E008B078C050C
:0B9F3200BE0008BF0005BD0002800358
:039F3D0002A0215E
:0C9F4000A81A0886820886830886F0E4D0
:099F4C00124259A3E4124259A883
:0C9F55001A08740226FAE40836FB08869D
:0E9F6100048A828B838CF0E4124259A3E4122E
:0C9F6F004259A81A08740426FAE40836C7
:0E9F7B00FB0886048A828B838CF0E412425924
:0C9F8900A3E4124259A81A08740626FA34
:0E9F9500E40836FB0886048A828B838CF0E495
:099FA300124259A3E4124259A82C
:0C9FAC001A08740826FAE40836FB088640
:0E9FB800048A828B838CF0E4124259A3E412D7
:0C9FC6004259A81A08740A26FAE408366A
:0E9FD200FB0886048A828B838CF0E4124259CD
:0C9FE000A3E4124259A81A08740C26FAD7
:0E9FEC00E40836FB0886048A828B838CF0E43E
:099FFA00124259A3E4124259A8D5
:0CA003001A08740E26FAE40836FB0886E2
:0EA00F00048A828B838CF0E4124259A3E4127F
:04A01D004259802CF8
:05A021000EBE00010F5E
:0EA026007410C0E0E4C0E0C006C007C005A88A
:0BA034001A0886820886830886F078F0
:04A03F00EF79477AF4
:0AA043000012186AE58124FBF58184
:06A04D00851A81D01A0201
:02A05300187C77
:0AA05500C01A85811AAA82AB83AC01
:0EA05F00F074082AFDE43BFE8C07C002C0032B
:0CA06D00C0047408C0E0E4C0E0E51A2460
:0EA07900FAF8E6C0E008E6C0E008E6C0E08DB8
:0AA08700828E838FF078EF79477A1C
:0CA091000012186AE58124FBF581D00460
:0EA09D00D003D00274082AFAE43BFB8A828BBF
:0EA0AB00838CF01248A9FD6305028A828B8324
:09A0B9008CF0ED124259D01A029C
:02A0C200187C08
:0AA0C400C01A85811AC082C083C053
:0CA0CE00F0058105817D00E51A2405F8ED
:09A0DA007600E51A2404F8760072
:08A0E300E51A2404F8B6100090
:05A0EB00400302A1701A
:0AA0F000C005A81A08E51A2404F9B7
:0CA0FA00E726FDE40836FA088603E51AA4
:0CA1060024FAF88604088606088607E59F
:0CA112001A2404F8E62CFCE43EFE8D82CA
:0EA11E008A838BF01248A9FA8C828E838FF010
:0AA12C001248A9FBEAB50302800403
:04A13600D0058014BC
:0CA13A00D005E51A2405F8740826F6E5A7
:08A146001A2405F886058017B4
:07A14E00EB62028D037C00AF
:03A15500BC080043
:0DA158005014EA20E7100BEA2AFA0C80F000
:09A16500E51A2404F80602A0E347
:02A16E008B055F
:08A170008D82851A81D01A02CC
:02A17800187C51
:0AA17A00C01AE581F51A2408F581EA
:0EA1840090E061E0FAA3E0FBA3E0FCA3E0FDA5
:0CA19200A81A08EDC313080808F6EC1327
:0CA19E0018F6EB1318F6EA1318F67861B7
:05A1AA0079327A001279
:0CA1AF00186AAF827E00C006C00778610D
:05A1BB0079327A001268
:0EA1C000186AAA82AB83D007D006EA2EFEEB07
:0EA1CE003FFF90E061E0FAA3E0FBA3E0FCA3FA
:0CA1DC00E0FDE51A2405F8EDC3130808A7
:0EA1E80008F6EC1318F6EB1318F6EA1318F647
:0CA1F600E51A2405F8E62AFA08E63BFB0F
:0CA2020008E63CFC08E63DFDE51A2405DA
:0EA20E00F8EAC396F6EB0896F6EC0896F6ED25
:0CA21C000896F68E028F03E4FCFDE51AA4
:0EA228002405F8E6C0E008E6C0E008E6C0E065
:0EA2360008E6C0E08A828B838CF0ED12456C46
:0EA24400AA82AB83ACF0FDE58124FCF581A875
:0CA252001A08EA26FAEB0836FBEC083686
:0CA25E00FCED0836FD8A828B838CF085B5
:05A26A001A81D01A0268
:02A26F00187C59
:020000040000FA
:0A0E5D00C01A85811AC082C083C04C
:0C0E6700F0A81A08740426FDE40836FE0A
:0C0E73000886078D828E838FF0E51A241C
:0E0E7F00F9F8E6124259A308E6124259A308F8
:0B0E8D00E6124259A308E61242597811
:040E98006279347ACD
:0C0E9C000012186AAD82AE83AFF0FAA815
:0C0EA8001A0886820886830886F0ED1286
:0A0EB4004259A3EE124259A3EF12B7
:080EBE004259A3EA12425985D2
:050EC6001A81D01A02A0
:020ECB00187C91
:0A0ECD00C01A85811AC082C083C0DC
:0C0ED700F0E5812407F581A81A08868246
:0C0EE3000886830886F0E51A2404F91242
:0B0EEF0048A9F7A31248A909F7A312B5
:0B0EFA0048A909F7A31248A909F7A8AE
:0C0F05001A08740426FAE40836FB08867B
:0D0F1100048A828B838CF01248A9FCA31285
:0A0F1E0048A9FDA31248A9FEA31282
:0C0F280048A9FFE51A2404F8EC26FCEDB3
:0C0F34000836FDEE0836FEEF0836FFA878
:0C0F40001A0886820886830886F0EC12EE
:0A0F4C004259A3ED124259A3EE1220
:080F56004259A3EF1242598534
:050F5E001A81D01A0207
:020F6300187CF8
:0D0F6500AA82AB83ACF0C002C003C00478C8
:040F72006279347AF2
:0C0F76000012186AAD82AE83AFF0F8D014
:0D0F820004D003D0028A828B838CF0ED1224
:0A0F8F004259A3EE124259A3EF12DB
:080F99004259A3E8124259027B
:020FA100187CBA
:0A0FA300C01AE581F51A240CF5814F
:0D0FAD00AA82AB83ACF0C002C003C0047880
:040FBA006279347AAA
:050FBE000012186AA8F2
:0C0FC3001A08A68208A68308A6F008F60B
:0D0FCF00D004D003D0028A828B838CF0E521
:0A0FDC001A2405F81248A9F6A31222
:0C0FE60048A908F6A31248A908F6A312B7
:0E0FF20048A908F674042AFDE43BFE8C078D26
:0E100000828E838FF01248A9FAA31248A9FB32
:0B100E00A31248A9FCA31248A9FDE5AD
:0C1019001A2405F8EA26FAEB0836FBEC76
:0B1025000836FCED0836FDA81A08E5AF
:0C1030001A2409F9E6C39AF708E69B09A8
:0C103C00F708E69C09F708E69D09F7E5B7
:0C1048001A2409F8C3E694FF08E694FFA0
:0E10540008E694FF08E6947FE433FD3395E050
:0A106200FE8D828E83851A81D01A5C
:03106C0002187CEB
:0E106F00AA82AB83ACF01248A9FDA31248A9D7
:0E107D00FEA31248A9FFA31248A9F874042A82
:0E108B00FAE43BFB8A828B838CF01248A9FAB0
:0C109900A31248A9FBA31248A9FCA31253
:0E10A50048A9F9EA2DFDEB3EFEEC3FFFE938CD
:0C10B300F8C005C006C007C000786279D4
:0410BF00347A00126D
:0E10C300186AAA82AB83ACF0F9D000D007D037
:0E10D10006D005EDC39AFDEE9BFEEF9CFFE8F6
:0B10DF0099F88D828E838FF002187C40
:0D10EA00AA82AB83ACF0C002C003C0047842
:0410F7006279347A6C
:0C10FB000012186AAD82AE83AFF0F8D08E
:0E11070004D003D0028A828B838CF01248A998
:0D111500FAA31248A9FBA31248A9FCA312DB
:0E11220048A9F9EDC39AFDEE9BFEEF9CFFE895
:0B11300099F88D828E838FF002187CEE
:020000040001F9
:0D80000090E35FE0FA90E35F04F08A8202F3
:02800D00187CDD
:0A800F00C01A85811AC082C083C028
:0E801900F090F493E0FDA3E0FEA3E0FF8D02E3
:048027008E038F0431
:0C802B00A81A08E6B5020C08E6B5030729
:0780370008E6B504028021F8
:0B803E00BA0008BB0005BC0002801661
:0E8049008A828B838CF01248A9FAA31248A9F0
:08805700FBA31248A9FC80CC38
:0C805F00A81A08E6B5020C08E6B50307F5
:07806B0008E6B504028002E3
:02807200800389
:0380740002810482
:0C807700A81A0886820886830886F0EDAF
:0B808300124259A3EE124259A3EF1263
:06808E004259A81A0890F7
:0D809400F493E6F008A3E6F008A3E6F0A8D8
:0C80A1001A08740826FAE40836FB08866A
:0D80AD00048A828B838CF07401124259A862
:0C80BA001A08740626FAE40836FB088653
:0E80C600048A828B838CF0E4124259A3E412E8
:0C80D4004259E51A24FAF8E6C0E008E67C
:0C80E000C0E008E6C0E07481C0E0A81A0F
:0C80EC000886820886830886F078A57953
:0480F800887A01126F
:0880FC00186AE58124FCF581FE
:06810400851A81D01A0269
:02810A00187CDF
:0A810C00C01A85811AC082C083C02A
:0E811600F0E5812409F58190F496E0FDA3E0E8
:0C812400FEA3E0FFE51A2407F8A60508FA
:0E813000A60608A60790F493E0FDA3E0FEA3C8
:0C813E00E0FFE51A2404F8A60508A606D8
:03814A0008A6077D
:0A814D00E51A2404F8A91A0986F0C7
:0E815700E7B5F0120886F009E7B5F00A0886D1
:08816500F009E7B5F0028033D8
:0C816D00E51A2404F8B6000A08B6000663
:0681790008B6000280219F
:0C817F00E51A2404F8868208868308862E
:0E818B00F01248A91818F6A31248A908F6A386
:078199001248A908F680ADB1
:0C81A000E51A2404F8B6000B08B600072E
:0781AC0008B6000302841174
:0C81B300A81A0886820886830886F078E7
:0481BF004B79897AF5
:0C81C3000112186AE5828583F045F07017
:0481CF000302832202
:0C81D300A81A08740826FAE40836FB0815
:0D81DF0086048A828B838CF0E41242599052
:0C81EC00F493E0FAA3E0FBA3E0FCE51A2A
:0B81F8002404F8A60208A60308A60451
:0C820300E51A2404F8B6000A08B60006CC
:06820F0008B600028070B9
:0A821500A81A08E51A2404F986F0FF
:0E821F00E7B5F0120886F009E7B5F00A088608
:08822D00F009E7B5F002802E14
:0C823500A81A08E6C0E008E6C0E008E671
:0C824100C0E07487C0E0E51A2404F88651
:0A824D00820886830886F07819790C
:04825700847A011212
:08825B00186AE58124FCF5819D
:0C826300E51A2404F88682088683088649
:0E826F00F01248A91818F6A31248A908F6A3A1
:08827D001248A908F602820371
:0C828500A81A08740326FAE40836FB0867
:0E82910086048A828B838CF01248A9FDA3120A
:0E829F0048A9FEA31248A9FFBD0008BE0005B5
:0582AD00BF000280701B
:0A82B200A81A08E51A24FAF986F06C
:0E82BC00E7B5F0120886F009E7B5F00A08866B
:0882CA00F009E7B5F002805055
:0C82D200A81A0890F496E6F008A3E6F065
:0C82DE0008A3E6F0A81A08740626FAE4CB
:0E82EA000836FB088604C005C006C007E4C0C5
:0E82F800E0C0E0C0E07483C0E0C005C006C076
:0E830600078A828B838CF0D002D001D0001247
:0E831400186AE58124FCF581D007D006D0055B
:0C83220090F493E0FDA3E0FEA3E0FFA8B0
:0C832E001A08E6B5050C08E6B5060708BD
:06833A00E6B50702800217
:02834000802299
:0E8342008D828E838FF01248A9FAA31248A9EB
:0E835000FBA31248A9FC90F493EAF0A3EBF013
:06835E00A3ECF00283FF16
:0C8364008D028E038F04E51A2404F8A695
:078370000208A60308A604A1
:0C837700E51A2404F8B6000A08B6000657
:0683830008B6000280763E
:0C838900E51A2404F88682088683088622
:0C839500F01248A9FAA31248A9FBA31299
:0C83A10048A9FCA81A08E6B5020C08E682
:0A83AD00B5030708E6B504028002DC
:0283B70080360E
:0C83B900A81A0886820886830886F01245
:0A83C50048A9FDA31248A9FEA31267
:0C83CF0048A9FFE51A2404F886820886FD
:0E83DB00830886F0ED124259A3EE124259A318
:0683E900EF124259801062
:0C83EF00E51A2404F8A60208A60308A65C
:0483FB00040283777E
:0C83FF00E51A2407F890F496E6F008A3B5
:06840B00E6F008A3E6F014
:06841100851A81D01A0259
:02841700187CCF
:0A841900C01A85811AC082C083C01A
:0C842300F0A81A08740826FDE40836FED4
:0E842F000886078D828E838FF01248A9FA20EE
:05843D00E0030285468A
:0C844200A81A08740326FAE40836FB08A8
:0E844E0086048A828B838CF01248A9FAA3124E
:0E845C0048A9FBA31248A9FCBA0009BB000600
:06846A00BC000302854680
:0C847000A81A0890F496E6F008A3E6F0C5
:0D847C0008A3E6F08D828E838FF07402124B
:0C8489004259C005C006C007A81A0874BC
:0E8495000626FDE40836FE088607C003C00474
:0C84A300C005C006C007E51A24F9F8E681
:0C84AF00C0E008E6C0E008E6C0E0E51A06
:0E84BB0024FCF8E6C0E0C002C003C0048D82BD
:0E84C9008E838FF0D002D001D00012186AAA64
:0E84D70082E58124FCF581D007D006D005D0C7
:0E84E50004D003EA3395E0FBBA020BBB00089B
:0884F300D007D006D005801669
:0E84FB00D007D006D005BA0305BB00028008EA
:08850900E51A24FCF8B6832AF0
:0C851100A81A08E6C0E008E6C0E008E692
:0C851D00C0E0A81A088682088683088641
:06852900F0780C79817A64
:0C852F000112186A158115811581800B5E
:0B853B008D828E838FF0740112425974
:06854600851A81D01A0223
:02854C00187C99
:0E854E00AA82AB83ACF090F496E0C0E0A3E00C
:0D855C00C0E0A3E0C0E08A828B838CF07841
:048569000C79817A8E
:0B856D000112186A15811581158102AA
:02857800187C6D
:0C857A0090E35F748AF090E361E4F090FD
:0D858600E360F090F493F0A3E4F0A3F09014
:0B859300F496F0A3E4F0A3F002187CC3
:0A859E00C01A85811A0581058105C8
:0E85A8008190E442E4F090F493E0FAA3E0FB4B
:0C85B600A3E0FCA81A08A60208A603080F
:0285C200A6040D
:0C85C400A81A08B6000B08B6000708B69D
:0585D0000003028656C5
:0C85D500A81A08740926FDE40836FE0808
:0E85E10086078D828E838FF01248A96048A80D
:0C85EF001A08740826FAE40836FB088617
:0E85FB00048A828B838CF074011242598D82A7
:0E8609008E838FF0E4124259E4C0E0C0E0C05E
:0C861700E07482C0E0A81A088682088681
:09862300830886F0781979847A45
:0A862C000112186AE58124FCF581B3
:0C863600A81A0886820886830886F012C5
:0D86420048A91818F6A31248A908F6A312BB
:07864F0048A908F60285C4EA
:06865600851A81D01A0212
:02865C00187C88
:0A865E0090E360E0FA70030287DD8C
:0C86680090E361E0FB75F007A4FC2462C5
:0C867400F582E434E3F583E090E443F089
:0A868000EC2462FCE434E3FD8C827C
:0E868A008D83A3E0FEA3E0FFA3E0F890E4449C
:0E869800EEF0A3EFF0A3E8F08C828D83A3A395
:0E86A600A3A3E0FCA3E0FDA3E0FE90E447ECFC
:0E86B400F0A3EDF0A3EEF07C000BBB00010C78
:0E86C200C0027420C0E0E4C0E08B828C831202
:0E86D0004A73AB8215811581D00290E361EBF5
:0E86DE00F0EA1490E360F090E447E0FAA3E0C5
:0E86EC00FBA3E0FCBA0008BB0005BC00028046
:0186FA00037C
:0386FB0002879C57
:0E86FE0090F493E0FDA3E0FEA3E0FF90E44AB9
:08870C00EDF0A3EEF0A3EFF085
:0E87140090E44AE0FDA3E0FEA3E0FFBD0009F3
:09872200BE0006BF00030287DD62
:0A872B0090E442E0FD6009789E79B9
:04873500857A01122E
:02873900186ABC
:0E873B0090E44AE0FDA3E0FEA3E0FF90E444DA
:0E874900E0C0E0A3E0C0E0A3E0C0E090E443A5
:0C875700E0C0E08D828E838FF0781979ED
:04876300847A011201
:0E876700186AE58124FCF58190E44AE0FDA348
:0E877500E0FEA3E0FF8D828E838FF01248A9F4
:0C878300FDA31248A9FEA31248A9FF9014
:0D878F00E44AEDF0A3EEF0A3EFF002871432
:0E879C0090E443E0FDBD811474082AFEE43B26
:0E87AA00FF8C008E828F8388F074011242597A
:0E87B80090E444E0C0E0A3E0C0E0A3E0C0E035
:0B87C600C0058A828B838CF078197943
:0487D100847A011293
:0887D500186AE58124FCF5811E
:0387DD0002187C03
:0A87E00090E442E0FA6009789E7907
:0487EA00857A011279
:0287EE00186A07
:0587F000785E79867A35
:0587F5000112186A905A
:0E87FA00E360E0FA7B0090E442E0FC7D00ECDE
:0C8808002AFAED3BFB8A828B8302187C6D
:0E88140090E360E0FA7B0090E442E0FC7D001F
:0D882200EC2AFAED3BFB8A828B8302187C66
:0A882F00C01A85811AAA82AB83AC3F
:0E883900F090E360E0FDBD2005900001805945
:0E88470090E361E0FEED2E541FFE90E44DF034
:0C885500EE75F007A4FE2462F582E43406
:0A886100E3F583E51A24FCF8E6F0C5
:0A886B00EE2462FEE434E3FF8E8287
:0C8875008F83A3E51A24F9F8E6F0A308AD
:0E888100E6F0A308E6F08E828F83A3A3A3A3E4
:0E888F00EAF0A3EBF0A3ECF090E360ED04F050
:03889D0090000048
:0588A000D01A02187C53
:0A88A500C01A85811AAA82AB83ACC9
:0E88AF00F090F496E0FDA3E0FEA3E0FFC0050C
:0C88BD00C006C007E51A24F9F8E6C0E088
:0C88C90008E6C0E008E6C0E0E51A24FC68
:0C88D500F8E6C0E08A828B838CF07819F2
:0588E10079847A011208
:0E88E600186AE58124FCF581D007D006D00584
:0C88F40090F496EDF0A3EEF0A3EFF0D0AE
:048900001A02187CC3
:0E890400AA82AB83ACF0BA0008BB0005BC0031
:03891200028033AD
:0E89150074082AFDE43BFE8C078D828E838F52
:0A892300F01248A9FDBD0102800317
:03892D00BD021870
:0E89300074092AFAE43BFB8A828B838CF07474
:0A893E000112425990E4427401F066
:0389480002187C96
:0E894B00AA82AB83ACF074082AFAE43BFB8AE4
:0E895900828B838CF01248A9FAE4BA00010464
:04896700FAB401005D
:0C896B00E433FA7B008A828B8302187CC4
:020000040000FA
:034EA0000000000F
:034EA3000000000C
:0E113B0090E44FE0FA90E44EE062028A82787F
:041149006079267A29
:05114D000012186A0207
:02115200187C07
:05115400783A79267ACB
:051159000012186A906D
:09115E00E44FE4F090E44EF002CD
:02116700187CF2
:0E11690090E44FE0FA90E44EE06202EAF4FAFD
:09117700F582C00278F979117AC1
:081180000012186A900190783A
:04118800F479337A49
:09118C000012186AD0028A827870
:04119500F979117A59
:051199000012186A02BB
:02119E00187CBB
:0511A000783D79267A7C
:0711A5000012186AAA820281
:0211AC00187CAD
:0D11AE00AA8290E44EE0FBF4FCEA520490AB
:0A11BB00E44EEA4BF08C82783B7999
:0411C500117A001289
:0511C900186A02187C09
:0D11CE00AA8290E44EE0FBEA5BFCEAF4909C
:0911DB00E44E5BF08C82783B7954
:0411E400117A00126A
:0511E800186A02187CEA
:0511ED0078F979117A88
:0511F2000012186A0262
:0211F700187C62
:0C11F900AA8290E44FE06AF08A82783B02
:0512050079117A0012CE
:05120A00186A02187CC7
:0A120F0043FD08C283783079157A98
:051219000012186A78C4
:04121E00B179157A13
:051222000012186A78BB
:0412270051793B7A44
:08122B000012186A75820078B8
:041233003979157A76
:051237000012186A021C
:02123C00187C1C
:08123E00309705A283B392086A
:0312460002187C0F
:0612490075C90002187CCB
:06124F0043C90802187CEF
:0E125500740F55C944A0F5C9740F55C9445013
:05126300F5C902187C32
:05126800785579127AAF
:05126D000012186A02E6
:02127200187CE6
:0512740075C903C2AFC3
:071279000002127902187C4B
:020000040002F8
:0AA27100C01AE581F51A2407F581F3
:0EA27B0090E450E0FAA3E0FBA3E0FCEA4B4CB9
:0CA28900700A90E453E4F0A3F002A40E6D
:05A29500785979347ACC
:09A29A000012186AAA82AB83E5E8
:0CA2A3001A2403F8A60208A60390E45059
:0CA2AF00E0FCA3E0FDA3E0FEE51A24059E
:0CA2BB00F8A60408A60508A606E51A246B
:0EA2C70005F886820886830886F01248A9FFF3
:0CA2D500A31248A9FAE51A2405F8740247
:0EA2E10026FBE40836FC0886058B828C838DF4
:0EA2EF00F01248A9FBA31248A9FCEB2FFFECCC
:0CA2FD003AFAE51A2403F8EFC396FFEAD2
:0CA309000896FAA81A08A60708A602E5A4
:0CA315001A2405F8740426FCE40836FD48
:0EA321000886068C828D838EF01248A9FCA35C
:0AA32F001248A9FDA31248A9FEE59B
:0CA339001A2405F8A60408A60508A606CC
:0CA34500E51A2405F8B6000B08B6000766
:07A3510008B6000302A3FAA5
:0CA35800E51A2405F88682088683088632
:0BA36400F01248A9FCA31248A9FDE577
:0CA36F001A2405F8740226FEE40836FFEC
:0EA37B000886028E828F838AF01248A9FAA308
:0CA389001248A9FBEA2CFEEB3DFFE51A90
:0CA395002403F8EEC396FEEF0896FFA824
:0CA3A1001A08C3EE96EF0896501BEA2C39
:0CA3AD00FCEB3DFDE51A2403F8ECC39620
:0CA3B900FCED0896FDA81A08A60408A6F2
:01A3C5000592
:0CA3C600E51A2405F8740426FAE40836B1
:0EA3D200FB0886048A828B838CF01248A9FA5D
:0BA3E000A31248A9FBA31248A9FCE54A
:0CA3EB001A2405F8A60208A60308A60420
:03A3F70002A34579
:09A3FA00E51A2403F8A91A0990E0
:0BA40300E453E726F009E70836A3F059
:06A40E00851A81D01A023C
:02A41400187CB2
:0AA41600C01AE581F51A240CF58147
:0EA42000AA82AB83ACF07D011248A9FEA31204
:0BA42E0048A9FFBE0005BF0002800B24
:08A43900BE5A05BF0002801E9F
:03A4410002A81B53
:09A4440090E450E4F0A3F0A3F051
:0EA44D007D008A828B838CF0745A124259A3D0
:04A45B00E41242596C
:09A45F00ED700675820102A82DC2
:0AA46800E51A24FCF8B68702800311
:03A4720002A60D32
:0CA47500E51A24F9F8860508860608861A
:0CA4810007E51A2407F8A60508A606083F
:02A48D00A60720
:0EA48F0090E450E0FDA3E0FEA3E0FFED4E4F91
:0EA49D00606EC002C003C00474072DFAE43ED6
:0EA4AB00FB8F048A828B838CF01248A9FAA3DF
:0AA4B9001248A9FBA31248A9FCE514
:0CA4C3001A2407F8E6B5020C08E6B50301
:08A4CF000708E6B5040280084D
:08A4D700D004D003D002802E56
:0EA4DF00D004D003D00274042DFDE43EFE8DA7
:0EA4ED00828E838FF01248A9FDA31248A9FEAB
:0EA4FB00A31248A9FF90E450EDF0A3EEF0A3E9
:04A50900EFF080826D
:0EA50D0090E450E0FDA3E0FEA3E0FFED4E4F12
:05A51B00700302A44DD5
:0BA52000A81A08A60508A60608A60752
:0CA52B00A81A08740426FDE40836FE0897
:0CA5370086078D828E838FF0E51A240ABF
:0DA54300F81248A9F6A31248A908F6A312C1
:0CA5500048A908F6E51A240AF8E60846B7
:07A55C000846700302A44D44
:0CA56300C002C003C004E51A240AF8740A
:0EA56F000726FAE40836FB0886048A828B83EE
:0DA57D008CF01248A9FAA31248A9FBA31202
:0CA58A0048A9FCE51A2407F8E6B5020C0D
:0CA5960008E6B5030708E6B504028008DB
:08A5A200D004D003D002804177
:0CA5AA00E51A240AF8740426FAE40836C6
:0EA5B600FB0886048A828B838CF01248A9FA77
:0EA5C400A31248A9FBA31248A9FC8D828E8326
:0EA5D2008FF0EA124259A3EB124259A3EC1289
:0BA5E0004259D004D003D00202A52B8A
:0EA5EB008D828E838FF01248A9FDA31248A91D
:0CA5F900FEA31248A9FFA81A08A6050836
:08A60500A60608A60702A52B1A
:0AA60D00E51A24FCF8B6820280036F
:03A6170002A44D4D
:0CA61A00E51A2404F8E4F608F6087600BF
:0CA6260090E450E0FDA3E0FEA3E0FFA8DC
:0AA632001A08A60508A60608A607E8
:0CA63C00A81A08B6000B08B6000708B604
:05A64800000302A44D17
:0CA64D00A81A0886820886830886F0C0E0
:0AA6590002C003C00478B4791F7A30
:0CA663000012186AE5828583F0D004D054
:0AA66F0003D00245F0700302A7D9E2
:0CA67900C002C003C004A81A0874072621
:0EA68500FDE40836FE0886078D828E838FF076
:0BA693001248A9FAA31248A9FBA31269
:0CA69E0048A9FCC004C005C006C007A805
:0CA6AA001A08E6C0E008E6C0E008E6C0C0
:0CA6B600E07488C0E08A828B838CF0780E
:04A6C2002F79887AEA
:0CA6C6000112186AAA82AB83E58124FC13
:0EA6D200F581D007D006D005D004EA4BD004A5
:09A6E000D003D002600302A7C4FC
:0DA6E9008D828E838FF0E4124259A3E4129B
:08A6F6004259A3E4124259E5A8
:0CA6FE001A2404F8E6084608466054C020
:0CA70A0002C003C004E51A2404F8740423
:0CA7160026FDE40836FE088607A81A0895
:0EA72200740426FAE40836FB0886048A828B4B
