:020000040000FA
:040000000241EE3299
:01000B0032C2
:0100130032BA
:01001B0032B2
:0100230032AA
:03002B000234D0CC
:01003300329A
:01003B003292
:01004300328A
:03004B00021D6231
:01005300327A
:01005B003272
:01006300326A
:03006B00020D2D56
:01007300325A
:20007B00020DC512021480FEC01A85811AC082C083E5812406F5817C007D00C3EC9490EDAD
:20009B0064809481400302018CC374C89CE464808DF063F08095F0500B7490C39CFE740111
:2000BB009DFF80048C068D07A81A0886028A82C002C004C005C006C00778AE79117A00126D
:2000DB00186AD007D006D005D004D002E51A2403F8E4F608F6E51A2403F8C3E69E08E664AE
:2000FB00808FF063F08095F0501FE51A2403F8E51A2405F9E6F70809E6F7E51A2403F87483
:20011B000126F6E40836F680CC8A82C004C005C006C00778CE79117A0012186AD007D00696
:20013B00D005D004E51A2403F8E4F608F674C8C39EFAE49FFBE51A2403F8C3E69A08E6643D
:20015B00808BF063F08095F0501FE51A2403F8E51A2405F9E6F70809E6F7E51A2403F87426
:20017B000126F6E40836F680CC0CBC00010D020096851A81D01A2290F47DE0FAA3E0FB4AA6
:20019B007033C2AF759F037AF87BFF7D07ED20E71DED24B1FFE434F2FE8A828B83E493FC42
:2001BB00A3AA82AB838F828E83ECF01D80DF759F01D2AF800E8B0490F2B8ECF07B0090F2E7
:2001DB00B7EAF090F2B7E0FB7A0090F2B8E0FC7D00EC2AFAED3BFB74B1C0E074F2C0E0E470
:2001FB00C0E0C002C003904C55785E79927A0312186AE58124FBF5812278DD79377A0012EE
:20021B00186A788A79137A0012186A780F79127A0012186A785479117A0012186A90000190
:20023B00120083787A79857A0112186A787E79297A0012186A9015E375F00078D079157A2C
:20025B000012186A782779187A0012186A904D5675F08078B1791D7A0012186A904D637517
:20027B00F08078B1791D7A0012186A90DF61E0C423541FFA4302208A8278E4791D7A001233
:20029B00186A904D7975F08078B1791D7A0012186A784979127A0012186A90000078797965
:2002BB00327A0012186AE4C0E0C0E0C0E090F49975F000780F79807A0112186A15811581E2
:2002DB001581784879D07A0312186A7847791E7A0012186A120192E4C0E0C0E0C0E090F402
:2002FB00B975F000780F79807A0112186A158115811581788079127A0012186A7408C0E0C7
:20031B00E4C0E074B1C0E074F2C0E0E4C0E090E56F75F00078EF79477A0012186AE58124E7
:20033B00FBF581786879987A0312186AE4C0E0C0E0C0E090F48975F000780F79807A0112EC
:20035B00186A158115811581E4C0E0C0E0C0E090F4E575F000780F79807A0112186A158187
:20037B0015811581783E79127A0012186A788179897A0112186A900004120083904D8175E1
:20039B00F080786F79207A0012186A784F79127A0012186A785579127A0012186A300054FA
:2003BB0078CB79AA7A0212186AE5828583F045F0604078F179AA7A0212186AAA82AB83C0C2
:2003DB0002C003785979347A0012186AAC82AD83D003D002EAC39CFAEB9DFB1ABAFF011BF9
:2003FB00C374FF9A747F9B5009783579A87A0212186AC20078E079877A0112186A85820A13
:20041B0085830BC3E4950AE46480850BF063F08095F050030203AF904DDFE493FAA3E4937A
:20043B00FBA3E493FCC002C003C004C002C003C004D002D001D00012186A858208858309D7
:20045B00D004D003D002E50845097003020519786E79A97A0312186A904DD6E493FAA3E476
:20047B0093FBA3E493FCC002C003C004789179AD7A0312186AAD82AE83AFF0D004D003D0BE
:20049B0002C002C003C0047480C0E0E4C0E0C002C003C0048D828E838FF0D002D001D00083
:2004BB0012186A85820885830915811581D004D003D002C3E49508E464808509F063F0806B
:2004DB0095F0503AAA08AB098A828B83788379AD7A0312186A904E36E493FAA3E493FBA303
:2004FB00E493FCC002C003C004C002C003C004D002D001D00012186AD004D003D00253BE4B
:20051B00FC438701000203AF02187C75820178AE79117A0012186A90E674E0FA20E103022F
:20053B0005C0904D8A75F08078B1791D7A0012186A90E670E0FAA3E08A8278E4791D7A0007
:20055B0012186A904D8D75F08078B1791D7A0012186A90E66AE0FAA3E0FBA3E0FC8A828B82
:20057B00838CF01248A9A31248A9F58278E4791D7A0012186A90E66AE0FAA3E0FBA3E0FC8A
:20059B008A828B838CF01248A9FAA31248A98A8278E4791D7A0012186A75820A78B679CD86
:2005BB007A0212186A75820178CE79117A0012186A02187C75820478AE79117A0012186AEB
:2005DB007428C0E0E4C0E0E4C0E090E00075F000788279477A0012186A15811581158190CD
:2005FB00E02EE02401F0A3E03400F090E02EE0FAA3E0FBEA30E00D90E028E0FAA3E0FBA3A6
:20061B00E0FC801190E02BE0FDA3E0FEA3E0FF8D028E038F04C002C003C0047402C0E0E4E1
:20063B00C0E0742EC0E074E0C0E0E4C0E090E00075F00078EF79477A0012186AE58124FBB6
:20065B00F581D004D003D0027402C0E0E4C0E07400C0E074E0C0E0E4C0E08A828B838CF0D4
:20067B0078DA79357A0012186AE58124FBF58175820478CE79117A0012186A02187CC01A0D
:20069B0085811A05817A007B007C007D007E007F00C3EA9403EB648094804003020726C055
:2006BB0002C003EE246EFAEF34E0FB74112AF582E43BF583A81A08E0F6A81A088A828B83A1
:2006DB00E0D003D002602EA81A08E66006A81A08B60122A81A08E6701CC002C003EC246EF4
:0506FB00FAED34E0FB04
:2007000074112AF582E43BF5837401F0D003D002741C2CFCE43DFD741C2EFEE43FFF0ABA9A
:2007200000010B0206AC851A81D01A02187CC01AE581F51A2410F581E51A04F87620087651
:2007400001AA1A0A74022AF8760608763074042AF8760308760174062AF8766408765374BB
:20076000082AF87600087600740A2AF87600087600740C2AF87600087600740E2AF8760017
:20078000087600AA1A0A7B007C40746FC0E074E5C0E0E4C0E08A828B838CF0785579A07AE0
:2007A0000212186A158115811581AA1A0A7B007C407401C0E0E4C0E0C0E0C0E0C0E08A8257
:2007C0008B838CF0784479937A0212186AE58124FBF581851A81D01A02187CC01AE581F5E7
:2007E0001A2410F581AA82AB83ACF07D011248A9FEA31248A9FFBE0005BF0002800CBEC984
:2008000006BF00030209AA020A23C002C003C004C002C003C004782E79077A0012186A78EE
:200820009979067A0012186AD004D003D002E51A04F876FE087680AE1A0E74022EF87600C4
:2008400008760074042EF8760008760074062EF8760008760074082EF87602087615740AC9
:200860002EF87620087600740C2EF87600087602740E2EF87603087602AE1A0E7F007A40F2
:20088000E4C0E0C0E0C0E0740BC0E074B8C0E08E828F838AF0782A79817A0312186AAA8234
:2008A000AB83ACF0E58124FBF58190E028EAF0A3EBF0A3ECF074102AFAE43BFB8A828B8328
:2008C0008CF0740B124259A374B9124259E51A04F87620087601AA1A0A74022AF8760608F9
:2008E000763074042AF8760308760174062AF8766408765374082AF87602087615740A2A28
:20090000F87620087600740C2AF87600087602740E2AF87603087602AA1A0A7B007C40E4AD
:20092000C0E0C0E0C0E0740BC0E074B8C0E08A828B838CF0782A79817A0312186AAA82ABD2
:2009400083ACF0E58124FBF58190E02BEAF0A3EBF0A3ECF074102AFAE43BFB8A828B838CA3
:20096000F0740B124259A374BA124259C002C003C004E4C0E07401C0E090E03075F000787E
:200980005779A97A0212186A15811581D004D003D002D004D003D0027D008A828B838CF09D
:2009A00074C9124259A3E4124259ED7006758201020A3590E03075F000C002C003C00478B7
:2009C0004F79AA7A0212186AE5828583F0D004D003D00245F06026C002C003C00478CF79F9
:2009E000057A0012186A90E03075F00078CE79A97A0212186AD004D003D002809B90E03A29
:200A0000E0FDE51A24FCF8E6B5058DC002C003C004782679057A0012186AD004D003D002C9
:200A20000209988A828B838CF0E4124259A3E4124259758203851A81D01A02187C53F4FED9
:200A400002187C53F4FE02187C43F40102187CD29002187CC29002187CA290E433FAF582BD
:200A600002187C43FE0102187C53FEFE02187C438D01439A1002187C538DFEE58D700353B9
:200A80009AEF02187C7401558DFA7B008A828B8302187C438C0202187C538CFD02187C746E
:200AA00001558AFA7B008A828B8302187CC2EB758A0002187C53F3EF02187C53F3EF0218D5
:200AC0007C43F31002187CD28402187CC28402187CA284E433FAF58202187C43FD10021848
:200AE0007C53FDEF02187C438C1090E048E0FA4410F043B82002187C90E048E054EFF090E4
:200B0000E048E0FA54F060028003538CEF02187C90E048E0FA5302107B008A828B830218A0
:200B20007C438C0102187C538CFE02187C74105589FA7B008A828B8302187CC2C575890054
:200B400002187C7859790A7A0012186AE582702090000C75F04078B4791F7A0012186AAAE9
:200B600082AB83EA4BB40100E433FA7003FA80027A01EA3395E0FB8A828B8302187CAA82F7
:200B8000AB83BA8105BB00028006BA8212BB000F7885790A7A0012186AAA82AB8380039091
:200BA000000002187CC01A85811AAA82AB83BA8005BB0002800BBA8105BB00028023020C16
:200BC000367893790A7A0012186A783D790A7A0012186A7869790A7A0012186A900001807A
:200BE00058E51A24FBF8E60846603D7885790A7A0012186AE5828583F045F07034C0E0C090
:200C0000E090000C75F04078EE791E7A0012186A1581158178AD790A7A0012186A786F7966
:200C20000A7A0012186A80097878790A7A0012186A9000018003900000D01A02187C78D125
:200C4000790A7A0012186AE582702090001075F04078B4791F7A0012186AAA82AB83EA4B66
:200C6000B40100E433FA7003FA80027A01EA3395E0FB8A828B8302187CAA82AB83BA81056D
:200C8000BB00028006BA8212BB000F7810790B7A0012186AAA82AB83800390000002187CDC
:200CA000C01A85811AAA82AB83BA8005BB00028008BA8171BB006E801778B5790A7A0012B4
:200CC000186A78E1790A7A0012186A9000018058E51A24FBF8E60846603D7810790B7A00D2
:200CE00012186AE5828583F045F07034C0E0C0E090001075F04078EE791E7A0012186A1583
:200D0000811581783B790B7A0012186A78E7790A7A0012186A800978F8790A7A0012186AFD
:200D20009000018003900000D01A02187CC021C0E0C0F0C082C083C002C003C004C005C00B
:200D400006C007C000C001C0D075D000C2AF782D790B7A0012186AE5828583F045F0604193
:200D600090001075F04078B4791F7A0012186AE5828583F045F060297420C0E0E4C0E090F7
:200D8000001075F04078EE791E7A0012186A15811581904DAC75F080787B79197A001218D0
:200DA0006A758900C2C5D2AFD0D0D001D000D007D006D005D004D003D002D083D082D0F022
:200DC000D0E0D02132C021C0E0C0F0C082C083C002C003C004C005C006C007C000C001C0AE
:200DE000D075D000C2AF789F790A7A0012186AE5828583F045F0604190000C75F04078B423
:200E0000791F7A0012186AE5828583F045F060297420C0E0E4C0E090000C75F04078EE7937
:200E20001E7A0012186A15811581904DA075F080787B79197A0012186A758A00C2EBD2AF38
:200E4000D0D0D001D000D007D006D005D004D003D002D083D082D0F0D0E0D02132C01A85BF
:200E6000811AC082C083C0F0A81A08740426FDE40836FE0886078D828E838FF0E51A24F9CD
:200E8000F8E6124259A308E6124259A308E6124259A308E6124259786279347A0012186A78
:200EA000AD82AE83AFF0FAA81A0886820886830886F0ED124259A3EE124259A3EF124259C1
:200EC000A3EA124259851A81D01A02187CC01A85811AC082C083C0F0E5812407F581A81A40
:200EE0000886820886830886F0E51A2404F91248A9F7A31248A909F7A31248A909F7A31238
:200F000048A909F7A81A08740426FAE40836FB0886048A828B838CF01248A9FCA31248A994
:200F2000FDA31248A9FEA31248A9FFE51A2404F8EC26FCED0836FDEE0836FEEF0836FFA818
:200F40001A0886820886830886F0EC124259A3ED124259A3EE124259A3EF124259851A8165
:200F6000D01A02187CAA82AB83ACF0C002C003C004786279347A0012186AAD82AE83AFF01E
:200F8000F8D004D003D0028A828B838CF0ED124259A3EE124259A3EF124259A3E8124259FB
:200FA00002187CC01AE581F51A240CF581AA82AB83ACF0C002C003C004786279347A001254
:200FC000186AA81A08A68208A68308A6F008F6D004D003D0028A828B838CF0E51A2405F8A1
:200FE0001248A9F6A31248A908F6A31248A908F6A31248A908F674042AFDE43BFE8C078D30
:20100000828E838FF01248A9FAA31248A9FBA31248A9FCA31248A9FDE51A2405F8EA26FAB1
:20102000EB0836FBEC0836FCED0836FDA81A08E51A2409F9E6C39AF708E69B09F708E69C02
:2010400009F708E69D09F7E51A2409F8C3E694FF08E694FF08E694FF08E6947FE433FD335B
:2010600095E0FE8D828E83851A81D01A02187CAA82AB83ACF01248A9FDA31248A9FEA312EE
:2010800048A9FFA31248A9F874042AFAE43BFB8A828B838CF01248A9FAA31248A9FBA31223
:2010A00048A9FCA31248A9F9EA2DFDEB3EFEEC3FFFE938F8C005C006C007C000786279348D
:2010C0007A0012186AAA82AB83ACF0F9D000D007D006D005EDC39AFDEE9BFEEF9CFFE899E8
:2010E000F88D828E838FF002187CAA82AB83ACF0C002C003C004786279347A0012186AAD42
:2011000082AE83AFF0F8D004D003D0028A828B838CF01248A9FAA31248A9FBA31248A9FC36
:20112000A31248A9F9EDC39AFDEE9BFEEF9CFFE899F88D828E838FF002187C90E44FE0FA6D
:2011400090E44EE062028A82786079267A0012186A02187C783A79267A0012186A90E44F40
:20116000E4F090E44EF002187C90E44FE0FA90E44EE06202EAF4FAF582C00278F979117A2A
:201180000012186A90019078F479337A0012186AD0028A8278F979117A0012186A02187CF7
:2011A000783D79267A0012186AAA8202187CAA8290E44EE0FBF4FCEA520490E44EEA4BF02B
:2011C0008C82783B79117A0012186A02187CAA8290E44EE0FBEA5BFCEAF490E44E5BF08C9F
:2011E00082783B79117A0012186A02187C78F979117A0012186A02187CAA8290E44FE06AB4
:20120000F08A82783B79117A0012186A02187C43FD08C283783079157A0012186A78B1797E
:20122000157A0012186A7851793B7A0012186A758200783979157A0012186A02187C30975F
:2012400005A283B3920802187C75C90002187C43C90802187C740F55C944A0F5C9740F55E8
:20126000C94450F5C902187C785579127A0012186A02187C75C903C2AF0002127902187CEC
:20128000782579197A0012186AAA82AB83ACF0EA4B4C606F74062AFDE43BFE8C078D828EDD
:2012A000838FF01248A9FDA31248A9FEA31248A9FFC002C003C004C005C006C0077401C013
:2012C000E0E4C0E0C005C006C007900081D002D001D00012186A15811581D007D006D00592
:2012E000D004D003D0028A828B838CF0783979197A0012186AAD82AE83AFF08D028E038FE0
:2013000004808C02187C782579197A0012186AAA82AB83ACF0EA4B4C606D74062AFDE43BE6
:20132000FE8C078D828E838FF01248A9FDA31248A9FEA31248A9FFC002C003C004C005C066
:2013400006C007E4C0E0C0E0C005C006C007900081D002D001D00012186A15811581D0072F
:20136000D006D005D004D003D0028A828B838CF0783979197A0012186AAD82AE83AFF08DD6
:20138000028E038F04808E02187C7846791D7A0012186A02187CC01A85811A05810581AADB
:2013A00082AB83ACF0A81A08E4F608F690E459E0FFA3E0FDA3E0FEEF4D4E7008A81A087650
:2013C0000108760074022AFDE43BFE8C078D828E838FF0E51A24F6F8E6124259A308E6125B
:2013E0004259A308E612425974052AFDE43BFE8C078D828E838FF0E51A24F3F8E612425984
:20140000A308E6124259A308E61242598A828B838CF0E51A24FBF8E6124259A308E612422C
:201420005990E459EAF0A3EBF0A3ECF0A81A08B6011708B60013E51A24FBF8868208868317
:201440007854791D7A0012186A900000851A81D01A02187CC01A85811A05810581058190D0
:20146000E459E0FAA3E0FBA3E0FCEA4B4C7003021528A81A08A60208A60308A60490E45983
:20148000E4F0A3F0A3F0A81A08740226FDE40836FE0886078D828E838FF01248A9FDA312E6
:2014A00048A9FEA31248A9FFA81A08740526FAE40836FB0886048A828B838CF01248A9FAF3
:2014C000A31248A9FBA31248A9FCC005C006C007C002C003C004C005C006C007A81A08868C
:2014E000820886830886F0D002D001D00012186A158115811581D007D006D00590E459E0E3
:20150000FAA3E0FBA3E0FCEA4B4C601C8A828B838CF01248A9FAA31248A9FB8A828B837811
:2015200054791D7A0012186A851A81D01A02187C43FE0A43FD0402187CAA827B01C2AF7C59
:2015400000BC08005025EB5AFDEC6010ED600D8CF005F0ED8002C313D5F0FBFDED24FF9245
:2015600082D293C293EB2BFB0C80D6D291C291D2AF8A1402187C85148202187CAA82C2AF03
:20158000EA24FF9283309705A283B39208D2AF02187C787679157A0012186AAA825302DFEA
:2015A00043F4E08A82783979157A0012186A02187C787679157A0012186AAA824302208A80
:2015C00082783979157A0012186A53F41F02187CAAF0AB83E58290E45CF0A3EBF0A3EAF056
:2015E00002187CAA82BA0D05900000805F90E4E6E0FB7023C00290E45F75F00078187927FC
:201600007A0012186AAB82AC831581EB4C702B90E4E67401F08023BA0A20C00290E45F75A8
:20162000F000781879277A0012186AAA82AB831581EA4B600590E4E6E4F090F4AF75F0002C
:20164000780479897A0112186A90000102187CC01A85811A05810581AA82AB83ACF07D015C
:201660001248A9FEA31248A9FFBE0005BF00028014BE6805BF00028071BE7A06BF000302CD
:2016800017F102180DC002C003C004780079807A0112186AE582D004D003D00290E4E5F029
:2016A00090E567E4F0A3F090E45F75F000C002C003C004782779287A0012186AAE82AF83B6
:2016C000D004D003D002A81A08A60608A607A81A08B6FF1F08B6FF1B7D008A828B838CF0DD
:2016E0007468124259A3E4124259ED70BA75820102181FA81A08B60A0608B6000280409045
:20170000E567E0FEA3E0FFC3EE947FEF648094805095C002C003C00490E56774012EF0E4F1
:201720003FA3F0EE24E7FEEF34E4FFA81A0886028E828F83EAF0D004D003D0020216A7C094
:2017400002C003C00490E567E0FEA3E0FF90E56774012EF0E43FA3F0EE24E7F582EF34E428
:20176000F583E4F0C002C003C00474E7C0E074E4C0E0E4C0E090E4E5E0C0E090000075F08F
:2017800000782F79887A0112186AE58124FCF581D004D003D00290F496E0FEA3E0FFA3E020
:2017A000FAC004E4C0E0C0E0C0E07485C0E08E828F838AF0782F79887A0112186AAA82ABE4
:2017C00083E58124FCF581D004BA0005BB00028008D004D003D002802AD004D003D0027D99
:2017E000008A828B838CF0747A124259A3E4124259ED600AE51A24FCF8B68502800575825D
:2018000001801C90E567E4F0A3F00216A78A828B838CF0E4124259A3E4124259758203854F
:201820001A81D01A02187C7480C0E07465C0E074E4C0E0E4C0E090E45F75F000789779261E
:201840007A0012186AE58124FCF581E4C0E0C0E0C0E090F4AF75F000780F79807A011218FD
:201860006A15811581158102187CC09FC8C0E0E9C0E0EA540F539FF0429FC822D09F22C00B
:201880001A85811AC082C083C0F005810581E4FDFEE51A2404F8E4F608F67B007C00C0053B
:2018A000C00690E56AE0FD7E00E51A2404F8C3E69D08E664808EF063F08095F0D006D00570
:2018C0005057C005C006EB24A3F582EC34F4F583E0FDA3E0FEA3E0FAA81A08E6B5050C08C8
:2018E000E6B5060708E6B502028006D006D005800AD006D0058D828E83802274032BFBE4F0
:201900003CFCE51A2404F806B600020806E51A2404F8860508860680858D828E83851A8121
:20192000D01A02187C90F4A3E0FAA3E0FBA3E0FC8A828B838CF002187C787F79187A0012E9
:20194000186AE5828583F02401FAE435F0FBC002C00390000312440EAA82AB831581158181
:20196000EA24A3F582EB34F4F583E0FAA3E0FBA3E0FC8A828B838CF002187C787F79187AAF
:201980000012186AAA82AB83EA2455FAEB34E4FB8A828B83E0FC4304808A828B83ECF090BB
:2019A000F4B975F000780479897A0112186A02187CC01A85811AC082C083C0F0E581240831
:2019C000F581A81A0886820886830886F0788F79487A0012186AC8E51A2404C8A68208A6CD
:2019E000837F007D007E007A0090E56AE0FB7C00C3EF9BED64808CF063F08095F040030203
:201A00001AABC007C005EE24A3F582EA34F4F583E0FBA3E0FCA3E0FD8B828C838DF01248F2
:201A2000A9FBA31248A9FCA31248A9FDC002C005C006C007E51A2404F8E6C0E008E6C0E076
:201A4000C003C004C005A81A0886820886830886F0783079467A0012186AAB82AC83E581A2
:201A600024FBF581D007D006D005D002D005D007EB4C7028EE24A3F582EA34F4F583E51A4D
:201A80002406F8E0F6A3E008F6A3E008F6E51A2406F886820886830886F0801574032EFE5C
:201AA000E43AFA0FBF00010D0219E990000075F000851A81D01A02187CC01A85811A058119
:201AC00005810581AA82AB83ACF07D011248A9FEA31248A9FFBE0005BF00028015BE78068B
:201AE000BF0003021BEEBE7F06BF0003021CC9021D2CC002C003C004780079807A01121883
:201B00006AE582D004D003D00290E569F090E56BE4F0A3F0C002C003C00490E56BE0FEA3BC
:201B2000E0FFC004C006C007C006C00790000312440EAA82AB8315811581D007D006D004EA
:201B4000EA24A3F582EB34F4F583A81A08E0F6A3E008F6A3E008F6A81A08B6001008B600E2
:201B60000C08B60008D004D003D002806AEE2455F582EF34E4F583E4F0A81A08740626FA9B
:201B8000E40836FB0886048A828B838CF01248A9FAA31248A9FBA31248A9FCC002C003C07B
:201BA00004E4C0E0C0E0C002C003C004900080D002D001D00012186A15811581D004D003CA
:201BC000D00290E56BE02401F0A3E03400F0D004D003D002021B1490E56AEEF07D008A82C7
:201BE0008B838CF07478124259A3E4124259ED7006758201021D3E90E56DE4F0A3F090E518
:201C00006BF0A3E4F0C002C003C00490E56BE0FEA3E0FF90E56AE0FA7B00C3EE9AEF648017
:201C20008BF063F08095F0D004D003D0024003021D1BC002C003C004EE2455F582EF34E4AD
:201C4000F583E0D004D003D00220E703021D0CC002C003C004C002C003C004C006C00790CF
:201C6000000312440EAE82AF8315811581D004D003D002EE24A3F582EF34F4F583E0FEA3BA
:201C8000E0FFA3E0FAC004C006C007C00290E569E0C0E090000075F000782F79887A01124D
:201CA000186AAA82AB83E58124FCF581D004EA4BD004D003D0027029FD8A828B838CF0742A
:201CC0007F124259A3E4124259ED601090E569E0FDE51A24FCF8E6B50502800575820180D6
:201CE0005D90E56BE0FDA3E0FEED2455FDEE34E4FE8D828E83E0FF53077F8D828E83EFF00B
:201D000090E56DE02401F0A3E03400F090E56BE02401F0A3E03400F0021C0590E56DE0FDE7
:201D2000A3E0FE4D6003021BF7021BDC8A828B838CF0E4124259A3E4124259758203851A71
:201D400081D01A02187C75E409D2B975E64453D8BF02187CAA82AB838ADC8BDD43E64002E3
:201D6000187CC021C0E0C0F0C082C083C002C003C004C005C006C007C000C001C0D075D028
:201D800000C2B953E4BF53E6BF785479147A0012186AD2B9D0D0D001D000D007D006D00525
:201DA000D004D003D002D083D082D0F0D0E0D02132AA82AB83ACF08A828B838CF01248A9E3
:201DC000FD601E0ABA00010B8D82C002C003C00478B679CD7A0212186AD004D003D00280E3
:201DE000D602187CE582FAC4540F904DE893F582C00278B679CD7A0212186AD002740F5A2B
:201E0000904DE893F58278B679CD7A0212186A02187CAA827B80EB602BEB5AFCE4BC00015A
:201E200004FCB40100E433904DF993F582C002C00378B679CD7A0212186AD003D002EBC39A
:201E400013FB80D202187C904DCAE493FAA3E493FBA3E493FCC002C003C004C002C003C0BB
:201E600004D002D001D00012186AD004D003D002904E2DE493FAA3E493FBA3E493FCC00275
:201E8000C003C004C002C003C004D002D001D00012186AD004D003D002904E13E493FAA3ED
:201EA000E493FBA3E493FCC002C003C004C002C003C004D002D001D00012186AD004D0035A
:201EC000D002904E6FE493FAA3E493FBA3E493FCC002C003C004C002C003C004D002D00112
:201EE000D00012186AD004D003D00202187CC01A85811AAA82AB83ACF074022AFDE43BFEC5
:201F00008C078D828E838FF0E51A24FBF8E6124259A308E6124259C002C003C00478597915
:201F2000347A0012186AAD82AE83D004D003D0028A828B838CF0ED124259A3EE124259D048
:201F40001A02187CAA82AB83ACF01248A9FDA31248A9FE74022AFFE43BF88C018F828883D8
:201F600089F01248A9FFA31248A9F8EF2DFDE83EFE8A828B838CF0ED124259A3EE1242599D
:201F800002187CAA82AB83ACF0C002C003C004785979347A0012186AAD82AE83D004D003D9
:201FA000D0028A828B838CF0ED124259A3EE12425902187CC01A85811AC082C083C0F078A4
:201FC0005979347A0012186AAD82AE83A81A0886820886830886F01248A9FFA31248A9FA8A
:201FE000EDC39FFDEE9AFE0DBD00010EA81A08740226FAE40836FB0886048A828B838CF091
:202000001248A9FAA31248A9FBC3EA9DEB9EE433FD3395E0FA8D828A83851A81D01A021859
:202020007CAA82AB83ACF01248A9FDA31248A9FE74022AFAE43BFB8A828B838CF01248A93D
:20204000FAA31248A9FBEA2DFDEB3EFEC005C006785979347A0012186AAA82AB83D006D093
:2020600005EDC39AFDEE9BFE8D828E8302187CC01AE581F51A2405F581AA82AB83ACF07D76
:20208000007E00A81A08E4F608F6C005C006A81A08E51A2403F9E62AF708E63B09F709A7CC
:2020A00004E51A2403F886820886830886F01248A91818F6A31248A908F6A31248A908F6F6
:2020C000E51A2403F8B6000E08B6000A08B60006D006D005804ED006D005C002C003C00425
:2020E000C005C006E4C0E0C0E0C0E0E51A2403F886820886830886F0780F79807A011218B7
:202100006A158115811581D006D005D004D003D002A81A08740326F6E40836F60DBD00012F
:202120000E02208A851A81D01A02187CC01AE581F51A2405F581AA82AB83ACF07D007E0066
:20214000A81A08E4F608F6C005C006A81A08E51A2403F9E62AF708E63B09F709A704E51A86
:202160002403F886820886830886F01248A91818F6A31248A908F6A31248A908F6E51A2415
:2021800003F8B6000E08B6000A08B60006D006D0058041D006D005E51A2403F88682088629
:2021A000830886F0C002C003C004C005C006784E79857A0112186AD006D005D004D003D055
:2021C00002A81A08740326F6E40836F60DBD00010E022147851A81D01A02187CC01A8581C5
:2021E0001AC082C083C0F005810581A81A08740226FDE40836FE0886078D828E838FF0E5E8
:202200001A2404F81248A9F6A31248A908F6A81A08740426FAE40836FB0886048A828B83BC
:202220008CF01248A9FAA31248A9FBA31248A9FCC005C006C007E51A2404F8E6C0E008E6FD
:20224000C0E0E4C0E08A828B838CF0788279477A0012186A158115811581D007D006D005B8
:20226000A81A0886820886830886F01248A9FAA31248A9FB8D828E838FF01248A9FDA3120B
:2022800048A9FEC005C0068A828B8312440EAA82AB8315811581A81A08740726FCE4083637
:2022A000FD0886068C828D838EF01248A9FCA31248A9FDA31248A9FEC002C003E4C0E08C16
:2022C000828D838EF0788279477A0012186A158115811581851A81D01A02187CC01A8581E4
:2022E0001AC082C083C0F0E581240BF581E51A240AF8E4F608F6A81A08E51A2404F9740227
:2023000026F7E4083609F70809E6F77F007A00E51A2404F886820886830886F01248A9FBE3
:20232000A31248A9FC8F058A06C3ED9BEE9C40030223F8A81A08740426FBE40836FC088693
:20234000058B828C838DF01248A9FBA31248A9FCA31248A9FDEF2BFEEA3CFC8E828C838DB6
:20236000F01248A9FB60030223E60B8E828C838DF0EB124259A81A08740726FBE40836FC3E
:202380000886058B828C838DF0E51A2407F81248A9F6A31248A908F6A31248A908F6A81AEC
:2023A0000886820886830886F01248A9FEA31248A9FBE51A240AF88604088605C006C00311
:2023C0008C828D8312440EAB82AC8315811581E51A2407F8EB26FBEC0836FC0886058B82FF
:2023E0008C838DF080180FBF00010AE51A240AF8A60708A60202230F90000075F000851A96
:2024000081D01A02187CC01A85811AC082C083C0F0E581240EF581A81A08740726FDE4082A
:2024200036FE0886078D828E838FF01248A9FDA31248A9FEA31248A9FFE51A2404F8A60521
:2024400008A60608A607E51A240DF8E4F608F6E51A24FAF8E51A2407F9E6F70809E6F70808
:2024600009E6F7A81A08E51A240AF9740226F7E4083609F70809E6F77F007A00E51A240ABD
:20248000F886820886830886F01248A9FBA31248A9FC8F058A06C3ED9BEE9C400302255456
:2024A000E51A2404F8E51A2407F986F0E7B5F0120886F009E7B5F00A0886F009E7B5F00294
:2024C0008002805EA81A08740426FBE40836FC0886058B828C838DF01248A9FBA31248A94B
:2024E000FCA31248A9FDE51A240DF8E62BFB08E63CFC8B828C838DF01248A9FEC3E46480BE
:202500008EF063F08095F0500B1E8B828C838DF0EE1242598B828C838DF01248A9FBF5822A
:202520008035A81A0886820886830886F01248A9FBA31248A9FCE51A2404F8EB26F6EC08CB
:2025400036F60FBF00010AE51A240DF8A60708A60202247C7582FF851A81D01A02187CC0F9
:202560001A85811AC082C083C0F005810581A81A08740726FDE40836FE0886078D828E83A3
:202580008FF01248A9FDA31248A9FEA31248A9FF8D028E038F04E51A24FAF8C3E69A08E67A
:2025A0009B08E69CB3E433FA7003022623E51A24FAA81A08740226FAE40836FB0886048ABE
:2025C000828B838CF0E51A2404F81248A9F6A31248A908F6A81A0886820886830886F012C0
:2025E00048A9FCA31248A9FAC005C006C007C004C002E51A2404F8868208868312440EAA30
:2026000082AB8315811581D007D006D005EA2DFDEB3EFEE51A24FAF8C3E69D08E69E08E64C
:202620009F40047A0080027A01EA3395E0FB8A828B83851A81D01A02187C02187C7A00C029
:2026400002787679157A0012186AAB82D002EB30E6027A01EB30E7034302048A8202187C81
:20266000AA82C002787679157A0012186AAB82D002EA30E00543034080035303BFEA30E2CA
:2026800005430380800353037F8B82783979157A0012186A02187CC01A85811AC082C083A8
:2026A000C0F0A81A0886820886830886F0E51A24FAF9E7124259A309E7124259A309E7127A
:2026C0004259A81A08740326FDE40836FE088607E51A24F9F8E6148D828E838FF0124259EC
:2026E000A81A08740426FAE40836FB0886048A828B838CF0E4124259A81A08740526FAE45B
:202700000836FB0886048A828B838CF0E4124259851A81D01A02187CC01A85811AC082C02B
:2027200083C0F0E5812409F581A81A08740426FDE40836FE0886078D828E838FF0E51A2481
:2027400004F81248A9F6E51A2404F8E51A2405F9E6F7097700A81A08740526FCE40836FA66
:202760000886038C828A838BF01248A9FC7A00E51A2405F8E6C39CF608E69AF6A81A0874A2
:202780000326FBE40836FA0886048B828A838CF0E51A2407F81248A9F6E51A2407F8E51A95
:2027A0002408F9E6F7097700E51A2405F8E51A2408F9E756FA09E70856FBE51A2408F8E6CA
:2027C000B5020708E6B5030280028005900000804EA81A0886820886830886F01248A9FAD0
:2027E000A31248A9FBA31248A9FCE51A2404F8E62AFAE43BFB8A828B838CF0E51A24FCF8A6
:20280000E6124259E51A2404F8E604C8E51A2407C856FA8D828E838FF012425990000185B0
:202820001A81D01A02187CC01A85811AC082C083C0F0058105810581A81A08740426FDE473
:202840000836FE0886078D828E838FF01248A9FD7E00A81A08E51A2404F9740526F7E4081E
:202860003609F70809E6F7E51A2404F886820886830886F01248A9FFFA7B00EDC39AFDEED2
:202880009BFEA81A08740326FAE40836FB0886048A828B838CF01248A9FAFB7C00EB520543
:2028A000EC5206C3E49DE464808EF063F08095F05046A81A0886820886830886F01248A9F8
:2028C000FBA31248A9FCA31248A9FDEF2BFBE43CFC8B828C838DF01248A9FBEF045202E5C4
:2028E0001A2404F886820886830886F0EA1242597A008B828A83800390FFFF851A81D01AC1
:2029000002187CAA82AB83ACF074032AFAE43BFB8A828B838CF01248A9FA7B000ABA0001A3
:202920000B8A828B8302187CAA82AB83ACF074042AFDE43BFE8C078D828E838FF01248A9F5
:20294000FD7E0074052AFFE43BF88C018F82888389F01248A9FF7800EDC39FFDEE98FE7463
:20296000032AFAE43BFB8A828B838CF01248A9FA7B005205EB52068D828E8302187C43F184
:202980000243F4C05390DF43FE6053FE6F75FAD875FC0B75FB0275F8C043B90843A90802BF
:2029A000187CAA82C2EA8AF910EA0280FB02187C90F52AE0FABA05004003022B2090E57A54
:2029C0007460F090E57B7401F090E57CE4F0A3F090E580743AF090E060E090E581F07410D9
:2029E000C0E0E4C0E0749DC0E074F2C0E0E4C0E090E59275F00078EF79477A0012186AE5F2
:202A00008124FBF5817492C0E074E5C0E0E4C0E090E58275F0007857799D7A0212186A1517
:202A2000811581158190F4C5E02428247AFAE434E5FB8A828B837480F08A828B83A3E4F055
:202A400074042AFAE43BFB7C007404C0E0E4C0E0E4C0E08A828B838CF0788279477A001248
:202A6000186A15811581158190F4C5E02428247AFAE434E5FB74082AFAE43BFB7C00741053
:202A8000C0E0E4C0E090F52AE0C0E08A828B838CF0788279477A0012186A158115811581C3
:202AA00090E6707440F0A3E4F090E57EF090E57F7418F090F4C5E02428247AFAE434E5FBBD
:202AC00074022AFAE43BFB8A828B83E4F0A3F0C002C00378C079AE7A0212186AAC82AD836F
:202AE000D003D002ECF4FCEDF4FD8A828B83ECF0A3EDF0782C79847A0312186A90F52AE0C0
:202B00002401F07480C0E07401C0E090F29375F000785779A97A0212186A158115818005CB
:202B200090F52AE4F002187CC01A85811AC082C083C0F07D01A81A0886820886830886F06E
:202B40001248A9FEA31248A9FFBE0005BF0002800CBE7A06BF0003022BE2022C5290F29D11
:202B60007420F0A37401F090F29F7404F0A37470F090F2A1E4F0A37455F090F2A3E4F0A3DA
:202B8000F090F2A57402F0A37415F090F2A77420F0A3E4F090F2A9F0A37402F090F2AB74B3
:202BA00003F0A37402F090F52AE4F0904DFF75F08078B179197A0012186AAE82AF83AAF010
:202BC00090F2ADEEF0A3EFF0A3EAF07D00A81A0886820886830886F0747A124259A3E412D7
:202BE0004259ED7006758201022C6990E569E0FAE51A24FCF8E6B5023290F2ADE0FAA3E01E
:202C0000FBA3E0FCE51A24F9F8E6B5020C08E6B5030708E6B504028002801090F52AE0FA8C
:202C2000700978B079297A0012186A90F29375F000784F79AA7A0212186AE5828583F0452B
:202C4000F07003022BCB78B079297A0012186A022BCBA81A0886820886830886F0E41242B0
:202C600059A3E4124259758203851A81D01A02187CAA82AB83ACF0E4124259A3E412425972
:202C8000A3E412425902187C1248A9FAA31248A9FBA31248A9FC8A828B838CF002187CC03E
:202CA0001A85811AAA82AB83ACF0E51A24FAF886050886060886078D828E838FF01248A979
:202CC000FDA31248A9FEA31248A9FF8A828B838CF0ED124259A3EE124259A3EF124259D031
:202CE0001A02187C1248A9FAA31248A9FBA31248A9FCEA4B4C7007900000F5F0802D8A82BE
:202D00008B838CF01248A9FDA31248A9FEA31248A9FFBD0008BE0005BF000280088D028EF2
:202D2000038F0480D98A828B838CF002187CC01A85811A058105810581AA82AB83ACF0C036
:202D400002C003C004E51A24FAF8E6C0E008E6C0E008E6C0E08A828B838CF078F6792F7A0D
:202D60000012186A158115811581D004D003D002E51A24FAF886050886060886078D828E1E
:202D8000838FF0E4124259A3E4124259A3E41242598A828B838CF0C002C003C004C005C0D4
:202DA00006C00778E4792C7A0012186AA81A08A68208A68308A6F0D007D006D005D004D050
:202DC00003D002A81A08A81A08E60846084670168A828B838CF0ED124259A3EE124259A371
:202DE000EF1242598019A81A0886820886830886F0ED124259A3EE124259A3EF12425985A1
:202E00001A81D01A02187CC01A85811AAA82AB83ACF0C002C003C004E51A24FAF8E6C0E0C3
:202E200008E6C0E008E6C0E08A828B838CF078F6792F7A0012186A158115811581D004D056
:202E400003D0028A828B838CF01248A9FDA31248A9FEA31248A9FFE51A24FAF88682088613
:202E6000830886F0ED124259A3EE124259A3EF1242598A828B838CF0E51A24FAF8E6124255
:202E800059A308E6124259A308E6124259D01A02187CC01A85811AC082C083C0F0A81A08E4
:202EA00086820886830886F01248A9FDA31248A9FEA31248A9FFED4E4F7008900000F5F0BB
:202EC000022F818D828E838FF01248A9FAA31248A9FBA31248A9FCEA4B4C70288D028E0328
:202EE0008F04A81A0886820886830886F0E4124259A3E4124259A3E41242598A828B838C3F
:202F0000F0022F818D028E038F048A828B838CF01248A9FDA31248A9FEA31248A9FF8D826E
:202F20008E838FF01248A9FDA31248A9FEA31248A9FFBD0008BE0005BF000280168A828B42
:202F4000838CF01248A9FAA31248A9FBA31248A9FC80B78A828B838CF01248A9FDA3124868
:202F6000A9FEA31248A9FF8A828B838CF0E4124259A3E4124259A3E41242598D828E838FC7
:202F8000F0851A81D01A02187CC01A85811A058105810581AA82AB83ACF01248A9FDA3126A
:202FA00048A9FEA31248A9FFA81A08A60508A60608A607A81A08ED4E4F60288D828E838F14
:202FC000F01248A9FDA31248A9FEA31248A9FF8A828B838CF0ED124259A3EE124259A3EFB8
:202FE000124259A81A0886820886830886F0851A81D01A02187CC01A85811AC082C083C0E4
:20300000F0E5812409F581A81A0886820886830886F01248A9FDA31248A9FEA31248A9FF0D
:20302000ED4E4F7003023144E51A2407F8E4F608F6087600E51A2404F8A60508A60608A678
:2030400007E51A24FAF88602088603088604E51A2404F8B6000B08B6000708B60003023110
:2030600044E51A2404F8E6B5020C08E6B5030708E6B50402800302310EE51A2407F8E6081A
:203080004608467036E51A2404F886820886830886F01248A9FDA31248A9FEA31248A9FFF7
:2030A000A81A0886820886830886F0ED124259A3EE124259A3EF1242598036E51A2404F8C3
:2030C00086820886830886F01248A9FDA31248A9FEA31248A9FFE51A2407F88682088683D5
:2030E0000886F0ED124259A3EE124259A3EF124259E51A2404F886820886830886F0E4128F
:203100004259A3E4124259A3E41242598036E51A2404F8E51A2407F9E6F70809E6F70809D8
:20312000E6F7E51A2404F886820886830886F01248A91818F6A31248A908F6A31248A90881
:20314000F602304E851A81D01A02187C1248A9FAA31248A9FBA31248A9FC7D007E00BA0064
:2031600008BB0005BC0002801B0DBD00010E8A828B838CF01248A9FAA31248A9FBA3124824
:20318000A9FC80DA8D828E8302187CC01A85811AAA82AB83ACF0E51A24FAF8E608460846F3
:2031A0007027E51A24F7F8E6C0E008E6C0E008E6C0E08A828B838CF07807792E7A00121864
:2031C0006A158115811581805DE51A24F7F88602088603088604E51A24FAF88682088683FB
:2031E0000886F01248A9FDA31248A9FEA31248A9FF8A828B838CF0ED124259A3EE1242599A
:20320000A3EF124259E51A24FAF886050886060886078D828E838FF0EA124259A3EB12428E
:2032200059A3EC124259D01A02187CAA82AB83ACF0EA4B4CB40100E433FD60087D007E00D6
:203240007F0080148A828B838CF01248A9FDA31248A9FEA31248A9FF8D828E838FF00218C3
:203260007C43B404ABBD7A00ACBC7D00EC4202ED42038A828B8302187CAA82AB83EA4B600F
:20328000088BBC7B008ABC805F90DF17E0FA54F7F0E5E930E7FB53E97F90DF057402F075BA
:2032A00082E2785D79917A0312186A53B4F390DF3AE0FA90DF3BE0FB5A60F37A007B00C353
:2032C000EA9420EB64809480501690DF3AE0F5BC90DF3BE0F5BC43B4040ABA00E20B80DF87
:2032E00090DF17E0FA4408F002187CC01A85811AC082C083C0F00581E51A2404F87600E56D
:203300001A2404F8B608005045A81A08E51A2404F9E726FEE40836FF088602E51A24FAF865
:203320008603088604088605E51A2404F8E62BFBE43CFC8B828C838DF01248A9FB8E828F62
:20334000838AF0124259E51A2404F80680B1851A81D01A02187CC01A85811AC082C083C08E
:20336000F00581E51A2404F87600E51A2404F8B608005051A81A08E51A2404F9E726FEE4EB
:203380000836FF088602E51A24FAF88603088604088605E51A2404F8E62BFBE43CFC8E8246
:2033A0008F838AF01248A9FE8B828C838DF01248A9FBEEB503028005900000800BE51A247E
:2033C00004F80680A5900001851A81D01A02187CAA82AB83ACF0C002C003C00490F2B175AE
:2033E000F00078EB79327A0012186A15811581158102187CAA82AB83C2AF8A048B051ABAAC
:20340000FF011BEC4D60060000000080EDD2AF02187CAA82AB83C002C003785979347A0097
:2034200012186AAC82AD83D003D002C002C003C004C005785979347A0012186AAE82AF83F9
:20344000D005D004D003D002EEC39CFEEF9DFFC3EE9AEF9B40D502187C851682851783028A
:20346000187CAA18AB197C007D008A828B838CF0ED02187C75C6B0AA957B007C007D00AED4
:20348000967F00780088018F008E07E42AFAEF3BFBE83CFCE93DFDAE977F008F018E00E4BC
:2034A000FFFE2AFAEF3BFBE83CFCE93DFD74012BFBE43CFCE43DFD90F2B9EAF0A3EBF0A378
:2034C000ECF0A3EDF08C978B968A95D2AD02187CC0E0C082C083C002C003C004C005C0061F
:2034E000C007C000C001C0D075D000C2AF53BEFCAA957B007C007D00AE967F0078008801BA
:203500008F008E07E42AFAEF3BFBE83CFCE93DFDAE977F008F018E00E4FFFE2AFAEF3BFB0B
:20352000E83CFCE93DFD74012BFBE43CFCE43DFD90F2B9EAF0A3EBF0A3ECF0A3EDF08C97BE
:203540008B968A9574012516F516E43517F517E516547F700B74012518F518E43519F519EC
:20356000D200C2C7D2AFD0D0D001D000D007D006D005D004D003D002D083D082D0E032C0EC
:203580001A85811AAA82AB83ACF0EA4B4C6046C002C003C004E51A24F6F8E6C0E008E6C046
:2035A000E0E51A24F8F8E6C0E008E6C0E0C002C003C004E51A24FAF886820886830886F00F
:2035C000D002D001D00012186AE58124FCF581D004D003D002D01A02187CC01A85811AAA4B
:2035E00082AB83ACF0E51A24FAF8E608460846700302366F90E67BEAF0A3EBF0A3ECF0E521
:203600001A24F8F8860208860390E672EAF0A3EBF0E51A24F8F8C374F096E464800886F00D
:2036200063F08095F050067CF07D0080048A048B05C004C005E51A24FAF8E6C0E008E6C07F
:20364000E008E6C0E090E5AA75F00078EF79477A0012186AE58124FBF58175820478477915
:20366000B37A0212186A782C79847A0312186A90E672E4F0A3F0D01A02187CC01AE581F5D1
:203680001A2412F581AA82AB83ACF0E51A24F5F8E60846084670030237D5AD1A0D7E007F8A
:2036A00040C002C003C0047410C0E0E4C0E0C002C003C0048D828E838FF078EF79477A0050
:2036C00012186AE58124FBF581D004D003D00274122AFDE43BFE8C078D828E838FF012488C
:2036E000A9FDA31248A9FEE51A2411F8A60508A606C002C003C0047410C0E0E4C0E0E51A05
:2037000024F5F8E6C0E008E6C0E008E6C0E08A828B838CF078EF79477A0012186AE58124A1
:20372000FBF581D004D003D00274122AFFE43BFD8C068F828D838EF0E51A24F3F8E612425B
:2037400059A308E6124259C002C003C004E51A24F8F8E6C0E008E6C0E0E51A24FAF8E6C0A7
:20376000E008E6C0E008E6C0E08A828B838CF078DA79357A0012186AE58124FBF581D004DA
:20378000D003D002AD1A0D7E007F40C002C003C0047410C0E0E4C0E0C005C006C0078A8224
:2037A0008B838CF078EF79477A0012186AE58124FBF581D004D003D00274122AFAE43BFB12
:2037C0008A828B838CF0E51A2411F8E6124259A308E6124259851A81D01A02187C75C680FB
:2037E0007480B5C6FB43FE0ED2AF787479347A0012186A02187CAA827B80EB60047C0180DF
:20380000027C00EC60177C00EA5B60027C01EC24FF9296D295C295EBC313FB80DD227A007D
:203820007B07EB20E71BC295D295A297E433FC8BF005F0EC800225E0D5F0FBFC42021B8071
:20384000E18A8222787679157A0012186AAA82C2955302FD8A82783979157A0002186A7839
:203860007679157A0012186AAA824302028A82783979157A0002186A1238447582061237A6
:20388000F612385F78BE79397A0012186AE58230E1F202187C1238447582041237F6123881
:2038A0005F02187CAA82AB83ACF0C002C003C00412384475829F1237F612381EAD82D00406
:2038C000D003D0028A828B838CF0ED12425974012AFDE43BFE8C07C002C003C004C005C0F9
:2038E00006C00712381EA882D007D006D005D004D003D0028D828E838FF0E81242597402C4
:203900002AFDE43BFE8C07C002C003C004C005C006C00712381EA882D007D006D005D0044D
:20392000D003D0028D828E838FF0E812425974032AFDE43BFE8C07C002C003C004C005C092
:2039400006C00712381EA882D007D006D005D004D003D0028D828E838FF0E8124259740461
:203960002AFAE43BFB78008D828E838FF01248A9F9C3E8995042C005C006C007E82AF9E4DF
:203980003BFD8C06C002C003C004C005C006C000C00112381EAF82D001D000D006D005D053
:2039A00004D003D00289828D838EF0EF12425908D007D006D00580AF12385F02187C1238E7
:2039C000447582051237F612381EAA82C00212385FD0028A8202187CAA82C0027878793866
:2039E0007A0012186A1238447582011237F6D0028A821237F612385F02187CC01A85811A9E
:203A0000C082C083C0F012384475820B1237F67D00BD03005022A81A08ED26FEE40836FFF7
:203A20000886028E828F838AF01248A9F582C0051237F6D0050D80D97582001237F67A00F1
:203A4000E51A24F9F8C3EA965033E51A24FAF8EA26FBE40836FC088605C002C003C004C0B2
:203A60000512381EAE82D005D004D003D002EEF4FE8B828C838DF01242590A80C312385F3F
:203A8000851A81D01A02187CC01A85811AC082C083C0F0787879387A0012186A12384475A5
:203AA00082021237F67D00BD03005022A81A08ED26FEE40836FF0886028E828F838AF0125A
:203AC00048A9F582C0051237F6D0050D80D97A00E51A24F9F8C3EA965025E51A24FAF8EAFA
:203AE00026FBE40836FC0886058B828C838DF01248A9F4F582C0021237F6D0020A80D112AD
:203B0000385F851A81D01A02187CAA82C002787879387A0012186A1238447582D81237F635
:203B2000D0028A821237F67582001237F67582001237F612385F02187C787879387A001290
:203B4000186A1238447582C71237F612385F02187C1238447582B91237F612385F02187C5D
:203B60001238447582AB1237F612385F78BE79397A0012186AE58220E0F202187C123844BA
:203B80007582AB1237F67582001237F67582001237F67582001237F612381EAA82C002123A
:203BA000385FD002C00278BE79397A0012186AE582D00220E0EE8A8202187CAA82AB83754C
:203BC000F2007C30C28DEB20E755C374069AE464808BF063F08095F04045EA2A2A903BE1D0
:203BE00073023BF6023BFA023C01023C08023C0F023C13023C187C3E802A75F2207C358053
:203C00002375F2407C36801C75F2807C3780157C3F801175F201800C75F2027CB180059072
:203C2000FFFF80288CB6108D0280FBAABA7B00ACBB8C05E4FC4202ED4203EBC4CAC4540FB5
:203C40006ACA540FCA6ACAFB8A828B8302187C90F459E0FA7B008A828B8302187CC01A85E3
:203C6000811AAA82AB83C002C003787679157A0012186AAC82D003D0025304F290F45974D3
:203C800001F0BA8005BB00028006BA814DBB004AE51A24FBF8B6010E08B6000AE51A24FB63
:203CA000F8760C087600E51A24FBF8E630E30C43F3E043040890F4597409F0E51A24FBF82C
:203CC000E630E20B43040490F459E0FA4404F08C82783979157A0012186A90F459E0FA7B1A
:203CE000008A828B83D01A02187CC01A85811AAA82BA02047A0280027A087B008A048B052B
:203D00001ABAFF011BC3E49CE464808DF063F08095F05023E51A24FAF8EA26FCEB0836FD1A
:203D20000886068C828D838EF01248A9FCBCFF0280CA9000008003900001D01A02187CC069
:203D40001AE581F51A2434F581AA1A0A7B007C407431C0E0E4C0E0E4C0E08A828B838CF01E
:203D6000788279477A0012186A15811581158190F581E0FA701C90F5817401F0786179325E
:203D80007A0012186AE5828583F0FA7B0090F47CEAF0A81A087601E804F9770008087582C3
:203DA00012C000783479B07A0312186AAA82D000A602758219789079B07A0312186AAA8229
:203DC000AB83ACF07408C0E0744EC0E07480C0E08A828B838CF0785679337A0012186AAA3F
:203DE00082AB83158115811581EA4B600AE51A042403F87600801CE51A042403F875820B5A
:203E0000C000783479B07A0312186AAA82AB83D000A602AA1A0A74042AF8760074062AF8B0
:203E2000760075820A783479B07A0312186AE5828583F045F0601EE51A042408F875820AEB
:203E4000C000783479B07A0312186AAA82AB83D000A6028028E51A042408F890F47CE0FA41
:203E600090F47C04F0A6027B00C002C00375820A780E79B07A0312186A15811581E51A04B6
:203E80002407F87603E51A042409F8904E80E493FA740193FBA60208A603758219789079A2
:203EA000B07A0312186AAA82AB83ACF07408C0E0744EC0E07480C0E08A828B838CF07856D5
:203EC00079337A0012186AAA82AB83158115811581EA4B6019E51A042405F87602AA1A0AF4
:203EE000740B2AF876FF740C2AF876FF803F758219789079B07A0312186AAA82AB83ACF08E
:203F0000E51A04240BFD7E007F40C002C003C0048D828E838FF078EB79327A0012186A151C
:203F20008115811581E51A042405F87603AA1A0A74132AF8904E82E493FB740193FCA60341
:203F400008A60474152AFA7B007C4074B1C0E074F2C0E0E4C0E08A828B838CF078EB7932D8
:203F60007A0012186A158115811581E51A04242DF8C000789179AD7A0312186AAA82AB83CB
:203F8000ACF0D000A60208A60308A604E51A042430F8C000786D79AE7A0312186AAA82D082
:203FA00000A602AA1A0A7B007C408A828B838CF078D579EC7A0312186AAA828A078F037C30
:203FC000008B828C83C003C004C00778E179AC7A0312186AE5828583F0D007D004D00345C6
:203FE000F06053C003C004C00778BE79AD7A0312186AC8E51A2432C8A68208A68308A6F087
:20400000AA1A0A7D007E40E51A2432F8E6C0E008E6C0E008E6C0E08A828D838EF0783979E4
:20402000ED7A0312186AE58124FCF581D004D0038B828C83800390FFFF851A81D01A02188E
:204040007CC01AE581F51A2434F581786D79AE7A0312186AAA82AB83E51A2432F8A6020853
:20406000A603AC1A0C7D007E40E51A2432F8E51A2434F9E6F7C004C005C006789179AD7A18
:204080000312186AAA82AB83AFF0E51A2434F8E6C0E08A828B838FF0789579F17A03121804
:2040A0006AAA82E58124FCF581EA70030241E3E51A042430F886027B00E51A2432F8E6C3A3
:2040C0009AFA08E69BFB8A828B83784479AD7A0312186AE5828583F045F070030241E3E5A9
:2040E0001A042405F8E67003024168AA1A0A74092AF88603088604904E82E493FD74019319
:20410000FEEBB50506ECB50602800EBBFF05BCFF02800690FFFF0241E6740B2AFB7C007D69
:204120004074052AF88602C003C004C0058A8278EA793C7A0012186AAA82AB831581158119
:204140001581EA4B7022E51A04240BFA7B007C40C002C003C004758219784D79B07A0312C9
:20416000186A158115811581E51A042415FA7B007C40C002C003C004758218784D79B07ACE
:204180000312186A158115811581E51A042402F886027B00C002C003758212780E79B07AEB
:2041A0000312186A15811581E51A042408F886027B00C002C00375820D780E79B07A03124B
:2041C000186A15811581E51A042430F886027B00E51A2432F8E6C39AFA08E69BFB8A828B3A
:2041E00083800390FFFF851A81D01A02187C758121124C4CE582600302007E7905E94401D4
:20420000601B7A02904E8A787D7593F4E493F2A308B800020593D9F4DAF27593FFE478FFED
:20422000F6D8FD7800E84400600A79007593E0E4F309D8FC787DE84414600C791590E000F1
:20424000E4F0A3D8FCD9FA90E4E6E4F0E4F516F517E4F518F51902007E20F71030F61188B2
:2042600083A88220F507F6A88375830022F280F7F022C01AE581F51A2411F581AA82AB836B
:20428000ACF0A81A08A60208A60308A604E51A24FAF88605088606E51A240AF8A60208A6FE
:2042A00003E51A240AF8C3ED96EE64800886F063F08095F04003024389C002C003C004E5A9
:2042C0001A24F8F8E62DFD08E63EFEE51A240AF88607088602C3EF9DEA9ED004D003D002E4
:2042E0004003024389E51A24F8F8E62AFD08E63BFE8C07ED24FFFAEE34FFFB8F04E51A24F7
:20430000FAF88605088606088607E51A24F8F8E62DFD08E63EFE1DBDFF011EE51A240FF888
:20432000A60508A60608A607E51A240CF8A60208A60308A604E51A24F8F886020886038A81
:20434000058B061ABAFF011BED4E70030243FBE51A240FF886820886830886F01248A9FD29
:20436000E51A240FF816B6FF020816E51A240CF886820886830886F0ED124259E51A240CA1
:20438000F816B6FFBA081680B6E51A24FAF88605088606088607E51A2407F8A60508A60602
:2043A00008A607E51A2404F8A60208A60308A604E51A24F8F886050886068D078E021DBDEE
:2043C000FF011EEF4A6034E51A2407F886820886830886F01248A9FAA31818A68208A68310
:2043E000E51A2404F886820886830886F0EA124259A31818A68208A68380BFA81A08868233
:204400000886830886F0851A81D01A02187CC01A85811AC082C083E5812407F581AA1A0A19
:20442000E51A2403F8A602087600087640E51A24FCFA7B007C40E51A2406F8E51A2403F9EA
:2044400087820987830987F01248A9FD8A828B838CF01248A9FE8DF0A4F608A6F0E51A2451
:204460000604F886070ABA00010B8A828B838CF01248A98DF0A4FDE51A2403F9740127FA71
:20448000E40937FB0987048A828B838CF01248A9FA8AF0EEA42D2FF6E51A2406F8860208C7
:2044A00086038A828B83851A81D01A22C01A85811AC082C083C0F0E51A24F8F8E608467047
:2044C00006900000024564E51A24F8F886050886061DBDFF011EED4E6055C005C006A81A34
:2044E0000886820886830886F01248A9FFE51A24FAF886020886030886048A828B838CF0C5
:204500001248A9FDEFB505028006D006D005801FD006D005A81A0806B600020806E51A24BC
:20452000FAF874012AF6E43B08F608A60480A2A81A0886820886830886F01248A9FA7B002A
:20454000E51A24FAF886040886050886068C828D838EF01248A9FC7D00EAC39CFAEB9DFBB7
:204560008A828B83851A81D01A02187CC01A85811AAA82AB83ACF0FD05817E00A81A087650
:2045800000E51A24FAF8080808E6235401FF704DE51A24FAF8E625E0F608E633F608E633A6
:2045A000F608E633F6E51A24FAF8C3EA96EB0896EC0896ED0896501AE51A24FAF808080861
:2045C000E6C313F618E613F618E613F618E613F6800BA81A0806A81A08860680A4E51A241C
:2045E000FAF8C3EA96EB0896EC0896ED08964015E51A24FAF8EAC396FAEB0896FBEC089633
:20460000FCED0896FDE51A24FAF8080808E6C313F618E613F618E613F618E613F68E071E6F
:20462000EF70BA8A828B838CF0ED851A81D01A22C01A85811A058105810581AA82AB83AC20
:20464000F0E51A24F8F8E6084670069000000246F0E51A24FAF88605088606088607E51A1D
:2046600024F8F8A91A09E6F70809E6F7A81A0816B6FF020816A81A08E60846604C8A828B99
:20468000838CF0E51A2403F81248A9F6E51A2403F8E66035C002C003C0048D828E838FF083
:2046A0001248A9FAE51A2403F8E6B502028008D004D003D0028012D004D003D0020ABA0070
:2046C000010B0DBD00A60E80A38A828B838CF01248A9FA3395E0FB8D828E838FF01248A955
:2046E000FD3395E0FCEAC39DFAEB9CFB8A828B83851A81D01A02187CC01A85811AC082C09D
:2047000083C0F0C0E07E007F007A007B007C20A81A08080808E6339208A81A08E625E0F6F8
:2047200008E633F608E633F608E633F6EE2EFEEF33FFEA33FAEB33FB300803430601E51A45
:2047400024FAF8C3EE96EF0896EA0896EB0896401CE51A24FAF8EEC396FEEF0896FFEA082A
:2047600096FAEB0896FBA81A08E64401F6DCA0A81A0886820886830886F008E6851A81D07F
:204780001A22C01A85811AC082C083C0F0058105810581A81A08E51A2404F9E6F70809E65E
:2047A000F70809E6F7E51A24FAF886020886038A048B051ABAFF011BEC4D6020E51A2404F9
:2047C000F886820886830886F0E51A24FCF9E7124259A31818A68208A68380D3A81A0886CF
:2047E000820886830886F0851A81D01A02187CC01AE581F51A2409F581AA82AB83ACF0A878
:204800001A08A60208A60308A604E51A24FAF88605088606088607E51A2407F8A60508A627
:204820000608A607E51A2404F8A60208A60308A604E51A24F8F886050886068D078E021D20
:20484000BDFF011EEF4A6034E51A2407F886820886830886F01248A9FAA31818A68208A651
:2048600083E51A2404F886820886830886F0EA124259A31818A68208A68380BFA81A0886AD
:20488000820886830886F0851A81D01A02187CAA82AB831248A96003A380F8C3E5829AF5D3
:2048A00082E5839BF58302187C20F71430F6148883A88220F507E6A88375830022E280F72B
:2048C000E49322E022C01A85811AC082C083C0F0C0E0E5812410F581E51A2405F82402F91F
:2048E000AA1A0AC000A8028603E51A24FAFC2402FDE51A240CF8C001A905E7F6D001E51A78
:20490000240CF88BF0E6A4D000F709A7F0A90487068BF0EEA4F608A6F0E51A24052403F8E1
:204920008605E51A240BF974032AF7E51A240BF9870187078FF0EEA42DF6860574022AFF92
:20494000E51A2409F9C000A807E6F7EC04FFE51A240AF9A807E6F7E51A2409F9E51A240AF3
:20496000F887F0E6A4D0002DF6E51A24052402F8860708860518E51A2409F987F0EEA42F70
:20498000FFED35F0FDA60708A60518860708860518EA04F9C000E51A2409F8E7F6E51A248E
:2049A00009F9E51A240AF887F0E6A4D0002FFFED35F0FDA60708A605E51A2409F8E51A241B
:2049C0000CF986F0E7A4C8E51A240BC88600F6EA04F8EA04F987058DF0EEA4F608A6F07427
:2049E000032CF886058BF0EDA4F6EC04F8EC04F987058BF0EDA4F608A6F0A8047600A8023A
:204A00007600E51A2405F8E51A240DF9E6F708E609F708E609F708E609F7181818A91A091C
:204A20008706098707098702098703E51A240DF9EE27FEEF0937FFEA0937FAEB0937FBA6D3
:204A40000608A60708A60208A603181818E608E608E608E6E51A24FAF8E62EFE08E63FFFEF
:204A600008E63AFA08E63B8E828F838AF0851A81D01A22C01A85811A05810581AA82AB83C3
:204A8000E51A24FCF808E630E70FE51A24FCF8C3E496FC08E496FD800AE51A24FCF88604F1
:204AA000088605EB33E433FE600DA81A08C3E49AF6E49B08F68008A81A08A60208A603C0DA
:204AC00006C004C005A81A088682088683124AF4AA82AB8315811581D006EE600DC3E49A1C
:204AE000FCE49BFD8C828D8380048A828B83851A81D01A22C01A85811AAA82AB837C007D09
:204B000000E51A24FCF808E6235401FE7032E51A24FCF808E618C625E0C63308F6E51A2476
:204B2000FCF8C3EA96EB08965011E51A24FCF808E618C313C613C608F680050D8D0480C160
:204B4000E51A24FCF8C3EA96EB0896400DE51A24FCF8EAC396FAEB0896FBE51A24FCF8082E
:204B6000E618C313C613C608F68C051CED70D18A828B83D01A22C01A85811A05810581AA13
:204B800082AB83E51A24FCF808E633E433FC600FE51A24FCF8C3E496FD08E496FE800AE56B
:204BA0001A24FCF88605088606EB33E433FF600DA81A08C3E49AF6E49B08F68008A81A0833
:204BC000A60208A603C004C007C005C006A81A088682088683124BFFAA82AB8315811581A1
:204BE000D007D004EC6F600DC3E49AFCE49BFD8C828D8380048A828B83851A81D01A22C0E1
:204C00001A85811AAA82AB837C007D007E10EB339208EBCA25E0CA33FBEDCC25E0CC33FD55
:204C2000300803430401E51A24FCF8C3EC96ED08964010E51A24FCF8ECC396FCED0896FDDA
:204C4000430201DEC98A828B83D01A2275820022C01A85811AAA82AB83ACF0FDE581240CA5
:204C6000F581E51A24FAF8080808E633E433FE601FE51A24FAF8E51A2405F9C3E496F70872
:204C8000E49609F708E49609F708E49609F78018E51A24FAF8E51A2405F9E6F70809E6F7FD
:204CA0000809E6F70809E6F7E51A2405F8ED33E433FF6017E51A2409F8C3E49AF6E49B0869
:204CC000F6E49C08F6E49D08F68010E51A2409F8A60208A60308A60408A605C006C007E5FD
:204CE0001A2405F8E6C0E008E6C0E008E6C0E008E6C0E0E51A2409F886820886830886F08E
:204D000008E61246F8AA82AB83ACF0FDE58124FCF581D007D006A81A08A60208A60308A6E8
:204D20000408A605EE6F601BA81A08C3E496FE08E496FF08E496FA08E496FB8E828F838AB9
:204D4000F0800DA81A0886820886830886F008E6851A81D01A22436F6E74696B6920322E0A
:204D6000350A004E373430204E616E6F53656E736F72202843433234002D46313238290A70
:204D8000007FF4002BF50000000030780020627974657320726573706F6E73653D3078001D
:204DA000B84D80430B00A50B007E0B00C14D803E0C00A00C00790C00427574746F6E203111
:204DC00000427574746F6E203200F49203BB93033D9403629503A89503839703969703A030
:204DE0009703B1970325980330313233343536373839616263646566003031006DF50042A7
:204E00007574746F6E2031000000000000000000254E8007DD02E8D50245DC0271DC029D60
:204E2000DC02D1DC0243534D4100424E80FBE3031DDC0344E003C8E0036AE30396E303F541
:204E4000E3036E756C6C72646300564E80BB3B005D3C004F3C00414443000F282220008871
:204E600082800F252321FE80000140FF754E8030FF0295FD02736963736C6F7770616E00AF
:204E8000554C554C3F3D004140000000000000DB0700000000000000004088030000000026
:204EA00000000000000000000016A402000000004A4E80A04D80AC4D800000000000004FE9
:204EC000160000000000000000B91A0000000000000000000300060099E7009FE7003600A4
:204EE0000200B1E700B3E700D20006001FE80025E80000000096A80300000000A6ED0000BE
:204F0000000001000000005BEE00000000040000000067EE00220010009AEE00AAEE00009C
:204F2000000F000C00ADF100B9F1000000001EF50000000024F50000000000282B0000008F
:204F40000000F000000036F5000000004CCD03000000002A000200BDF200BFF2000900067F
:204F60000013F30019F300070006004FF30055F30000000064F5000000007DE50380E50362
:0F4F8000FCE703AFE6038AE50345E90301000000
:2080000090E35FE0FA90E35F04F08A8202187CC01A85811AC082C083C0F090F493E0FDA386
:20802000E0FEA3E0FF8D028E038F04A81A08E6B5020C08E6B5030708E6B504028021BA0009
:2080400008BB0005BC000280168A828B838CF01248A9FAA31248A9FBA31248A9FC80CCA83A
:208060001A08E6B5020C08E6B5030708E6B5040280028003028104A81A0886820886830868
:2080800086F0ED124259A3EE124259A3EF124259A81A0890F493E6F008A3E6F008A3E6F09A
:2080A000A81A08740826FAE40836FB0886048A828B838CF07401124259A81A08740626FA8F
:2080C000E40836FB0886048A828B838CF0E4124259A3E4124259E51A24FAF8E6C0E008E60D
:2080E000C0E008E6C0E07481C0E0A81A0886820886830886F078A579887A0112186AE581C9
:2081000024FCF581851A81D01A02187CC01A85811AC082C083C0F0E5812409F58190F496D7
:20812000E0FDA3E0FEA3E0FFE51A2407F8A60508A60608A60790F493E0FDA3E0FEA3E0FF32
:20814000E51A2404F8A60508A60608A607E51A2404F8A91A0986F0E7B5F0120886F009E77F
:20816000B5F00A0886F009E7B5F0028033E51A2404F8B6000A08B6000608B600028021E59F
:208180001A2404F886820886830886F01248A91818F6A31248A908F6A31248A908F680AD70
:2081A000E51A2404F8B6000B08B6000708B60003028411A81A0886820886830886F0784B9E
:2081C00079897A0112186AE5828583F045F07003028322A81A08740826FAE40836FB0886CF
:2081E000048A828B838CF0E412425990F493E0FAA3E0FBA3E0FCE51A2404F8A60208A603EE
:2082000008A604E51A2404F8B6000A08B6000608B600028070A81A08E51A2404F986F0E712
:20822000B5F0120886F009E7B5F00A0886F009E7B5F002802EA81A08E6C0E008E6C0E008C1
:20824000E6C0E07487C0E0E51A2404F886820886830886F0781979847A0112186AE5812420
:20826000FCF581E51A2404F886820886830886F01248A91818F6A31248A908F6A31248A963
:2082800008F6028203A81A08740326FAE40836FB0886048A828B838CF01248A9FDA31248B6
:2082A000A9FEA31248A9FFBD0008BE0005BF00028070A81A08E51A24FAF986F0E7B5F01245
:2082C0000886F009E7B5F00A0886F009E7B5F0028050A81A0890F496E6F008A3E6F008A3B6
:2082E000E6F0A81A08740626FAE40836FB088604C005C006C007E4C0E0C0E0C0E07483C0C8
:20830000E0C005C006C0078A828B838CF0D002D001D00012186AE58124FCF581D007D006E5
:20832000D00590F493E0FDA3E0FEA3E0FFA81A08E6B5050C08E6B5060708E6B5070280021D
:2083400080228D828E838FF01248A9FAA31248A9FBA31248A9FC90F493EAF0A3EBF0A3EC9E
:20836000F00283FF8D028E038F04E51A2404F8A60208A60308A604E51A2404F8B6000A08C5
:20838000B6000608B600028076E51A2404F886820886830886F01248A9FAA31248A9FBA374
:2083A0001248A9FCA81A08E6B5020C08E6B5030708E6B5040280028036A81A08868208865D
:2083C000830886F01248A9FDA31248A9FEA31248A9FFE51A2404F886820886830886F0EDB0
:2083E000124259A3EE124259A3EF1242598010E51A2404F8A60208A60308A604028377E5B8
:208400001A2407F890F496E6F008A3E6F008A3E6F0851A81D01A02187CC01A85811AC08251
:20842000C083C0F0A81A08740826FDE40836FE0886078D828E838FF01248A9FA20E003028A
:208440008546A81A08740326FAE40836FB0886048A828B838CF01248A9FAA31248A9FBA36A
:208460001248A9FCBA0009BB0006BC0003028546A81A0890F496E6F008A3E6F008A3E6F031
:208480008D828E838FF07402124259C005C006C007A81A08740626FDE40836FE088607C0EC
:2084A00003C004C005C006C007E51A24F9F8E6C0E008E6C0E008E6C0E0E51A24FCF8E6C030
:2084C000E0C002C003C0048D828E838FF0D002D001D00012186AAA82E58124FCF581D007CE
:2084E000D006D005D004D003EA3395E0FBBA020BBB0008D007D006D0058016D007D006D07E
:2085000005BA0305BB00028008E51A24FCF8B6832AA81A08E6C0E008E6C0E008E6C0E0A8C1
:208520001A0886820886830886F0780C79817A0112186A158115811581800B8D828E838FF9
:20854000F07401124259851A81D01A02187CAA82AB83ACF090F496E0C0E0A3E0C0E0A3E033
:20856000C0E08A828B838CF0780C79817A0112186A15811581158102187C90E35F748AF020
:2085800090E361E4F090E360F090F493F0A3E4F0A3F090F496F0A3E4F0A3F002187CC01ADB
:2085A00085811A05810581058190E442E4F090F493E0FAA3E0FBA3E0FCA81A08A60208A671
:2085C0000308A604A81A08B6000B08B6000708B60003028656A81A08740926FDE40836FE6D
:2085E0000886078D828E838FF01248A96048A81A08740826FAE40836FB0886048A828B836D
:208600008CF074011242598D828E838FF0E4124259E4C0E0C0E0C0E07482C0E0A81A0886E2
:20862000820886830886F0781979847A0112186AE58124FCF581A81A08868208868308861F
:20864000F01248A91818F6A31248A908F6A31248A908F60285C4851A81D01A02187C90E35B
:2086600060E0FA70030287DD90E361E0FB75F007A4FC2462F582E434E3F583E090E443F035
:20868000EC2462FCE434E3FD8C828D83A3E0FEA3E0FFA3E0F890E444EEF0A3EFF0A3E8F045
:2086A0008C828D83A3A3A3A3E0FCA3E0FDA3E0FE90E447ECF0A3EDF0A3EEF07C000BBB0059
:2086C000010CC0027420C0E0E4C0E08B828C83124A73AB8215811581D00290E361EBF0EA64
:2086E0001490E360F090E447E0FAA3E0FBA3E0FCBA0008BB0005BC0002800302879C90F4A5
:2087000093E0FDA3E0FEA3E0FF90E44AEDF0A3EEF0A3EFF090E44AE0FDA3E0FEA3E0FFBDED
:208720000009BE0006BF00030287DD90E442E0FD6009789E79857A0112186A90E44AE0FD8A
:20874000A3E0FEA3E0FF90E444E0C0E0A3E0C0E0A3E0C0E090E443E0C0E08D828E838FF0C2
:20876000781979847A0112186AE58124FCF58190E44AE0FDA3E0FEA3E0FF8D828E838FF023
:208780001248A9FDA31248A9FEA31248A9FF90E44AEDF0A3EEF0A3EFF002871490E443E0BE
:2087A000FDBD811474082AFEE43BFF8C008E828F8388F0740112425990E444E0C0E0A3E0A5
:2087C000C0E0A3E0C0E0C0058A828B838CF0781979847A0112186AE58124FCF58102187C4C
:2087E00090E442E0FA6009789E79857A0112186A785E79867A0112186A90E360E0FA7B0051
:2088000090E442E0FC7D00EC2AFAED3BFB8A828B8302187C90E360E0FA7B0090E442E0FCAC
:208820007D00EC2AFAED3BFB8A828B8302187CC01A85811AAA82AB83ACF090E360E0FDBD7B
:208840002005900001805990E361E0FEED2E541FFE90E44DF0EE75F007A4FE2462F582E4BD
:2088600034E3F583E51A24FCF8E6F0EE2462FEE434E3FF8E828F83A3E51A24F9F8E6F0A3BE
:2088800008E6F0A308E6F08E828F83A3A3A3A3EAF0A3EBF0A3ECF090E360ED04F0900000B0
:2088A000D01A02187CC01A85811AAA82AB83ACF090F496E0FDA3E0FEA3E0FFC005C006C003
:2088C00007E51A24F9F8E6C0E008E6C0E008E6C0E0E51A24FCF8E6C0E08A828B838CF07830
:2088E0001979847A0112186AE58124FCF581D007D006D00590F496EDF0A3EEF0A3EFF0D00B
:208900001A02187CAA82AB83ACF0BA0008BB0005BC0002803374082AFDE43BFE8C078D825C
:208920008E838FF01248A9FDBD01028003BD021874092AFAE43BFB8A828B838CF0740112B5
:20894000425990E4427401F002187CAA82AB83ACF074082AFAE43BFB8A828B838CF012482B
:20896000A9FAE4BA000104FAB40100E433FA7B008A828B8302187CC01A85811AD01A0218C8
:208980007C02187C900000E4F5F002187C02187CC01A85811AAA82AB83C3747F9AE46480D4
:2089A0008BF063F08095F05045E51A24FBF8C3747F96E464800886F063F08095F0402FE5FB
:2089C0001A24FBF8860474010826FDECC39AFCED9BFDC374109CE464808DF063F08095F0F2
:2089E000E433FC3395E0FD8C828D83028A6DE51A24FBF8C3E69A08E664808BF063F080959A
:208A0000F05018E51A24FBF8EAC396FCEB0896FDC3EC9410ED6480948040047C0080027C2D
:208A200001EC703EE51A24FBF8C3EA96EB64800886F063F08095F0501DE51A24FBF8E6C371
:208A40009AFA08E69BFBC374709AE464808BF063F08095F040047A0080027A01EA7003FA10
:208A600080027A01EA3395E0FB8A828B83D01A02187CC01A85811A058105810581AA82AB6F
:208A800083ACF074222AFDE43BFE8C078D828E838FF01248A9FDA31248A9FEA31248A9FF62
:208AA0008D828E838FF0C002C003C0047888792C7A0012186AAD82AE83AFF0D004D003D0A5
:208AC00002BD0009BE0006BF0003028B4FC002C003C0048D828E838FF0A81A081248A9F6C1
:208AE000A31248A908F6A31248A908F6A81A08741D2DFAE43EFB8F048A828B838CF012480C
:208B0000A9FAA31248A9FBE51A24FBF8C3EA96EB0896D004D003D0024027C002C003C00406
:208B2000C005C006C0078A828B838CF0786B79B27A0112186A158115811581D004D003D0F7
:208B400002A81A088605088606088607028AC1851A81D01A02187CC01A85811A05810581A2
:208B60000581AA82AB83ACF074222AFDE43BFE8C078D828E838FF01248A9FDA31248A9FEC9
:208B8000A31248A9FF8D828E838FF0C002C003C0047888792C7A0012186AAD82AE83AFF096
:208BA000D004D003D002BD0009BE0006BF0003028C34C002C003C0048D828E838FF0A81A84
:208BC000081248A9F6A31248A908F6A31248A908F6A81A08741D2DFAE43EFB8F048A828B83
:208BE000838CF01248A9FAA31248A9FBE51A24FBF8C3EA96EB0896D004D003D0024027C056
:208C000002C003C004C005C006C0078A828B838CF0781179B37A0112186A1581158115815D
:208C2000D004D003D002A81A088605088606088607028BA6851A81D01A02187CC01A85818A
:208C40001AC082C083C0F0E5812409F581E51A2407F8E4F608F6087600A81A08742226FAC4
:208C6000E40836FB0886048A828B838CF01248A9FAA31248A9FBA31248A9FC8A828B838CC9
:208C8000F07888792C7A0012186AAA82AB83ACF0E51A2404F8A60208A60308A604A81A0847
:208CA000741726FDE40836FE088607E51A2404F8B6000B08B6000708B60003028D908D82BD
:208CC0008E838FF01248A9FAA31248A9FBA31248A9FCE51A2404F8E6B5020C08E6B503074F
:208CE00008E6B504028071E51A2407F8E6084608466051C005C006C007E51A2404F8741D83
:208D000026FAE40836FB0886048A828B838CF01248A9FAA31248A9FBE51A2407F8741D2677
:208D2000FCE40836FD0886068C828D838EF01248A9FCA31248A9FDC3EC9AED9BD007D006C8
:208D4000D0055014E51A2404F8E51A2407F9E6F70809E6F70809E6F7E51A2404F8868208B0
:208D600086830886F0C005C006C007782B79327A0012186AAA82AB83ACF0D007D006D00546
:208D8000E51A2404F8A60208A60308A604028CABE51A2407F8E6084608466056E51A2407EC
:208DA000F8741D26FAE40836FB0886048A828B838CF01248A9FAA31248A9FBE51A24FBF811
:208DC000C3E69A08E69B502AE51A2407F8E6C0E008E6C0E008E6C0E0A81A088682088683A6
:208DE0000886F0786B79B27A0112186A158115811581851A81D01A02187CC01A85811AAAD2
:208E000082AB83ACF074892AFDE43BFE8C078D828E838FF01248A97006900000028ED874AE
:208E20000A2AFAE43BFB8A828B838CF01248A9FAA31248A9FBA31248A9FC74172AFAE43B46
:208E4000FB8A828B838CF01248A9FAA31248A9FBA31248A9FCE51A24F7F8E6B5020C08E698
:208E6000B5030708E6B504028002805DE51A24F7F8860208860308860474202AFAE43BFB9C
:208E80008A828B838CF01248A9FA7B00E51A24FAF8860408860508860674192CFCE43DFD2B
:208EA0008C828D838EF01248A9FC7D00C002C0038C828D83789079897A0112186AAA82AB07
:208EC0008315811581EA4B70047A0080027A01EA3395E0FB8A828B83D01A02187CC01A853D
:208EE000811AC082C083C0F0E5812407F581E51A24FBF8E4B6FF0508B6FF0104FDB4010073
:208F0000E433FD7003028FE2A81A08741C26FDE40836FE0886078D828E838FF01248A9FD86
:208F2000A31248A9FEA31248A9FF74912DFAE43EFB8F048A828B838CF0E51A2404F81248FD
:208F4000A9F6A31248A908F6E51A2404F8B6000708B60003028FDD74932DFDE43EFE8D8263
:208F60008E838FF01248A9FDA31248A9FEC005C006C005C006E51A24FBF886820886831266
:208F80004BFFC8E51A2406C8A68208A68315811581A81A08741026FBE40836FC0886028BA1
:208FA000828C838AF01248A9FBA31248A9FCE51A2404F8E62BFB08E63CFC8B828C83124B3C
:208FC000FFAA82AB8315811581E51A2406F8C3EA96EB0896B3E433FA7003FA80027A01EA07
:208FE00070047A0080027A01EA3395E0FB8A828B83851A81D01A02187CC01AE581F51A24CC
:2090000007F581785579B77A0112186AAA82AB83ACF0EA4B4C7008900000F5F00290F1746C
:209020000D2AFAE43BFBE51A2404F8E4F608F6E51A2406F8E4F608F6E51A2404F8C3E69499
:209040000208E66480948040030290EBE51A2406F8E62AFF08E63BFD8C06A81A08A6070801
:20906000A60508A606A81A08741526FDE40836FE0886078D828E838FF01248A96052C00250
:20908000C003C0047410C0E0E4C0E0E51A24FAF8E6C0E008E6C0E008E6C0E0A81A08868218
:2090A0000886830886F078AC79447A0012186AAF82AD83E58124FBF581D004D003D002EF6E
:2090C0004D700DA81A0886820886830886F08021E51A2406F8743B26F6E40836F6E51A249D
:2090E00004F806B60002080602903890000075F000851A81D01A02187CC01AE581F51A24D6
:209100000DF581AA82E51A2407F876F0C002E51A24FAF8E6C0E008E6C0E008E6C0E08A8293
:2091200078F9798F7A0112186AAC82AD83AEF0158115811581D002A81A08A60408A60508E8
:20914000A606A81A08E608460846700302920FC002A81A08741226FFE40836FA0886048F8D
:20916000828A838CF01248A9FFE51A2407F8A607E51A2407F8C3747F96D0025008E51A2458
:2091800007F8068006E51A2407F806C002A81A08741C26FCE40836FD0886068C828D838E7F
:2091A000F01248A9FCA31248A9FDA31248A9FE740A2CFCE43DFD8C828D838EF01248A9FF17
:2091C000A31248A9FAA31248A9FBA81A08E6B5070C08E6B5020708E6B503028004D00280AC
:2091E00016D0028C828D838EF0E4124259A3E4124259A3E4124259A81A0886820886830807
:2092000086F0C00278C279A07A0112186AD002E51A24FAF8E6C0E008E6C0E008E6C0E08AA1
:20922000827879799D7A0112186AAA82AB83ACF0158115811581A81A08A60208A60308A60D
:2092400004A81A08E6084608467008900000F5F002961BA81A08741C26FAE40836FB0886F9
:20926000048A828B838CF01248A9FAA31248A9FBA31248A9FCE51A2404F8A60208A6030894
:20928000A604A81A08741226FDE40836FE0886078D828E838FF0E51A2407F8E6124259A800
:2092A0001A08741626FDE40836FE0886078D828E838FF07401124259A81A08741326FDE411
:2092C0000836FE0886078D828E838FF0E4124259E51A2404F8748926FDE40836FE08860799
:2092E0008D828E838FF07402124259E51A2404F8740726FDE40836FE0886078D828E838F8B
:20930000F0746D124259A374F5124259A3E4124259A81A08741726FAE40836FB0886048A34
:20932000828B838CF0E4124259A3E4124259A3E4124259C005C006C0077410C0E0E4C0E02E
:20934000E51A24FAF8E6C0E008E6C0E008E6C0E0A81A0886820886830886F078EF79477A54
:209360000012186AE58124FBF581D007D006D005E51A2404F8748A26FAE40836FB088604F0
:209380008A828B838CF07408124259E51A2404F8748B26FAE40836FB0886048A828B838C7B
:2093A000F0740C124259E51A2404F8748E26FAE40836FB0886048A828B838CF0741412422E
:2093C00059E51A2404F8748C26FAE40836FB0886048A828B838CF0740A124259E51A24045E
:2093E000F8749126FAE40836FB0886048A828B838CF0E4124259A37407124259E51A240488
:20940000F8E51A2408F9749326F7E4083609F70809E6F7E51A2408F886820886830886F042
:20942000E4124259A37401124259E51A2404F8748D26FAE40836FB0886048A828B838CF051
:2094400074FF124259E51A2404F8749526FAE40836FB0886048A828B838CF074FF1242593F
:20946000A374FF124259A81A08E51A240BF9741A26F7E4083609F70809E6F7E51A2408F85A
:2094800086820886830886F01248A9FAA31248A9FBE51A240BF886820886830886F0EA12DE
:2094A0004259A3EB124259E51A2404F8740A26FAE40836FB0886048A828B838CF0E51A24B1
:2094C0000BF81248A9F6A31248A908F6A31248A908F6E51A240BF8A91A0986F0E7B5F01242
:2094E0000886F009E7B5F00A0886F009E7B5F002806BE51A240BF8E608460846605FC00523
:20950000C006C007E51A240BF886820886830886F0C002C003C004C005C006C00778F7797E
:20952000897A0312186AD007D006D005D004D003D0028A828B838CF01248A9FDA31248A95A
:20954000FEA31248A9FF74162DFDE43EFE8D828E838FF0E4124259D007D006D0058A828B4B
:20956000838CF0A81A08E6124259A308E6124259A308E6124259E51A2404F8748826FAE4F4
:209580000836FB0886048A828B838CF074F01242598D828E838FF01248A9FDA31248A9FE16
:2095A000A31248A9FF740F2DFDE43EFE8D828E838FF01248A9FDA31248A9FEA31248A9FF51
:2095C000C005C006C007C005C006C007E51A2404F886820886830886F0D002D001D00012AC
:2095E000186AD007D006D005E51A2404F890F191E6F008A3E6F008A3E6F0E51A2404F886B9
:20960000820886830886F0787A79B97A0312186AA81A0886820886830886F0851A81D01A99
:2096200002187CC01AE581F51A2405F581785579B77A0112186AAA82AB83ACF0A81A08A634
:209640000208A60308A604A81A08E608460846606DA81A08740A26FDE40836FE0886078DDF
:20966000828E838FF01248A9FDA31248A9FEA31248A9FF741A2DFAE43EFB8F048A828B8310
:209680008CF0E51A2404F81248A9F6A31248A908F6A81A08749326FCE40836FA0886038C66
:2096A000828A838BF01248A9FCA31248A9FAE51A2404F8E6B5040708E6B50202800690007F
:2096C0000002974074122DFAE43EFB8F048A828B838CF01248A9FD2480500EED04FE8A82C1
:2096E0008B838CF0124259800B0D8A828B838CF0ED124259A81A08748826FAE40836FB0860
:2097000086048A828B838CF01248A9FD2480500EED04FE8A828B838CF0124259800B0D8AD3
:20972000828B838CF0ED124259A81A0886820886830886F0787A79B97A0312186A9000015C
:20974000851A81D01A02187CC01A85811AC082C083C0F07410C0E0E4C0E0E4C0E0A81A0844
:2097600086820886830886F0788279477A0012186A158115811581E51A24FAF8860508869A
:209780000608860774142DFAE43EFB8F048A828B838CF01248A9FA7B0074072AFAE43BFB08
:2097A000C005C006C0077408C0E0E4C0E08A828B83124B76AA82AB8315811581D007D00697
:2097C000D005C002C003C005C006C007A81A0886820886830886F078EF79477A0012186A47
:2097E000E58124FBF581746FC0E074E5C0E0E4C0E0A81A0886820886830886F0785579A027
:209800007A0212186A158115811581851A81D01A02187CC01AE581F51A2413F581AA82AB03
:2098200083ACF0EA4B4C7003029925E51A24FAF8E608460846700302992574142AFDE43BBD
:20984000FE8C078D828E838FF01248A9FDE51A24FAF8E51A2411F9E6F70809E6F70809E6D4
:20986000F7C002C003C004E51A2411F8741426FEE40836FF0886028E828F838AF01248A980
:20988000FEEDB506028009D004D003D002029925D004D003D002EEC423541FFD7E00C00260
:2098A000C003C004C005C006E51A2411F8E6C0E008E6C0E008E6C0E08A828B838CF078AC0E
:2098C00079447A0012186AAD82AE83E58124FBF581D004D003D002ED4E704A74152AFDE460
:2098E0003BFE8C078D828E838FF01248A9FDC002C003C004E51A2411F8741526FEE40836B9
:20990000FF0886028E828F838AF01248A9FEEDB506028008D004D003D0028009D004D00340
:20992000D0020299FEEA4B4C6052AD1A0D7E007F40C002C003C0048D828E838FF078487957
:20994000977A0112186A158115811581AA1A0A7B007C408A828B838CF0783479967A0212BB
:20996000186AAA82AB83ACF0EA4B4C600F8A828B838CF0784779957A0212186AE51A24FAEF
:20998000F8E6084608466076AA1A0A7B007C40E51A24FAF8E6C0E008E6C0E008E6C0E08A31
:2099A000828B838CF0784879977A0112186A158115811581AA1A0A7B007C408A828B838C4F
