:020000040000FA
:04000000023FA532E4
:01000B0032C2
:0100130032BA
:01001B0032B2
:0100230032AA
:03002B0002328717
:01003300329A
:01003B003292
:01004300328A
:03004B000223CAC3
:01005300327A
:01005B003272
:01006300326A
:03006B00020DA5DE
:01007300325A
:03007B00020E3D35
:03400D0002007E30
:05007E0012021480FED7
:0A008300C01A85811AC082C083E50F
:09008D00812406F5817C007D0050
:0E009600C3EC9490ED64809481400302018CD1
:0E00A400C374C89CE464808DF063F08095F016
:0D00B200500B7490C39CFE74019DFF8004F0
:0400BF008C068D0717
:0C00C300A81A0886028A82C002C004C08D
:0A00CF0005C006C007782679127AF2
:0C00D90000121ED2D007D006D005D004C3
:0B00E500D002E51A2403F8E4F608F648
:0C00F000E51A2403F8C3E69E08E66480CD
:0C00FC008FF063F08095F0501FE51A248F
:0C01080003F8E51A2405F9E6F70809E6FB
:0C011400F7E51A2403F8740126F6E4084D
:0401200036F680CC63
:0C0124008A82C004C005C006C0077846EF
:0501300079127A0012B3
:0C0135001ED2D007D006D005D004E51A79
:0E0141002403F8E4F608F674C8C39EFAE49F9F
:01014F00FBB4
:0C015000E51A2403F8C3E69A08E6648070
:0C015C008BF063F08095F0501FE51A2432
:0C01680003F8E51A2405F9E6F70809E69B
:0C017400F7E51A2403F8740126F6E408ED
:0401800036F680CC03
:050184000CBC00010DA0
:03018900020096DB
:06018C00851A81D01A2241
:0E01920090F4B9E0FAA3E0FB4A7033C2AF75F7
:0801A0009F037AF87BFF7D0745
:0A01A800ED20E71DED24EDFFE43427
:0C01B200F2FE8A828B83E493FCA3AA82F5
:0B01BE00AB838F828E83ECF01D80DF8E
:0701C900759F01D2AF800E0B
:0E01D0008B0490F2F4ECF07B0090F2F3EAF076
:0E01DE0090F2F3E0FB7A0090F2F4E0FC7D007A
:0B01EC00EC2AFAED3BFB74EDC0E07460
:0B01F700F2C0E0E4C0E0C002C00390D2
:070202004C55788879A17AC0
:0B02090003121ED2E58124FBF58122C8
:05021400789479357AB1
:0502190000121ED27866
:04021E000279147AD3
:0502220000121ED2785D
:040227008779127A47
:05022B0000121ED27854
:04023000CC79117AFA
:0802340000121ED2900001121D
:05023C000083787A79CF
:04024100857A0112A7
:050245001ED278E679ED
:04024A002F7A0012F5
:07024E001ED2901C4B75F05D
:04025500007848796C
:04025900167A0012FF
:05025D001ED2788F792C
:040262001E7A0012EE
:090266001ED2904B0D75F080785A
:04026F001979247A5B
:0502730000121ED290F4
:080278004B1A75F0807819792A
:04028000247A0012CA
:0E0284001ED290DF61E0C423541FFA43022013
:070292008A82784C79247A7E
:0502990000121ED290CE
:08029E004B3075F080781979EE
:0402A600247A0012A4
:0502AA001ED278C179AD
:0402AF00127A0012AD
:0802B3001ED2900000783079A2
:0402BB00307A001283
:0E02BF001ED2E4C0E0C0E0C0E090F4D575F0BF
:0602CD0000780F79807A31
:0B02D30001121ED215811581158178E3
:0402DE0011798C7A8C
:0502E20003121ED2789A
:0402E700AF79247A4D
:0502EB0000121ED212FA
:0E02F0000192E4C0E0C0E0C0E090F50F75F0B0
:0602FE0000780F79807A00
:0B03040001121ED215811581158178B1
:04030F00F879127AED
:0C03130000121ED27408C0E0E4C0E074C8
:0A031F00EDC0E074F2C0E0E4C0E0BD
:0903290090E8DC75F00078AC7975
:04033200467A0012F5
:0B0336001ED2E58124FBF581784A7996
:04034100AE7A03127B
:0E0345001ED2E4C0E0C0E0C0E090F4C575F048
:0603530000780F79807AAA
:0C03590001121ED2158115811581E4C02F
:0C036500E0C0E0C0E090F54F75F00078BB
:040371000F79807A06
:0B03750001121ED21581158115817840
:04038000B679127ABE
:0503840000121ED278FA
:04038900A779D87AFE
:08038D0001121ED290000412BF
:090395000083904B3875F080786C
:04039E00D779267A6B
:0503A20000121ED278DC
:0403A700C779127A86
:0403AB0000121ED24C
:0503AF0078CD79127AFF
:0503B40000121ED23012
:0503B900005478CB792F
:0403BE00AA7A021203
:0C03C2001ED2E5828583F045F060407893
:0403CE00F179AA7A9D
:0C03D20002121ED2AA82AB83C002C0033C
:0503DE00781079327A6D
:0C03E30000121ED2AC82AD83D003D00209
:0C03EF00EAC39CFAEB9DFB1ABAFF011B4D
:0C03FB00C374FF9A747F9B500978357919
:04040700A87A0212BB
:02040B001ED2FF
:02040D00C2002B
:05040F0078E079877A16
:0604140001121ED28582D8
:07041A000A85830BC3E49582
:0A0421000AE46480850BF063F080AC
:07042B0095F050030203AF3E
:0E043200904BD5E493FAA3E493FBA3E493FC70
:0E044000C002C003C004C002C003C004D0024A
:0C044E00D001D000121ED28582088583E8
:0A045A0009D004D003D002E50845E4
:06046400097003020519F6
:05046A00785079BF7A13
:05046F0003121ED290F3
:0E0474004BCCE493FAA3E493FBA3E493FCC007
:0A04820002C003C004787379C37A46
:0C048C0003121ED2AD82AE83AFF0D0048C
:0E049800D003D002C002C003C0047480C0E0D4
:0E04A600E4C0E0C002C003C0048D828E838FCC
:0C04B400F0D002D001D000121ED28582D0
:0A04C0000885830915811581D00419
:0C04CA00D003D002C3E49508E4648085F0
:0A04D60009F063F08095F0503AAA97
:0804E00008AB098A828B8378C6
:0404E8006579C37AF5
:0504EC0003121ED29076
:0E04F1004C20E493FAA3E493FBA3E493FCC035
:0E04FF0002C003C004C002C003C004D002D07B
:0C050D0001D000121ED2D004D003D00296
:0D05190053BEFC438701000203AF021EE445
:0D4B0D00436F6E74696B6920322E350A000B
:0E4B1A004E373430204E616E6F53656E736FF0
:084B28007220284343323400DF
:084B30002D46313238290A003C
:024C740000003E
:0E0526007478C0E0E4C0E0E4C0E090E003754B
:07053400F000783F79467AE0
:0B053B0000121ED21581158115819061
:0A054600E9E1E0FA20E103020704F6
:08055000758204782679127A05
:0505580000121ED2900C
:0E055D00E9DDE0FAA3E0FB90E07BEAF0A3EB1F
:0E056B00F0C002C00390E9D7E0C0E0A3E0C0FA
:0C057900E0A3E0C0E090E00375F0007823
:04058500AC79467A8D
:0B05890000121ED2E58124FBF58190DA
:0E059400E000E0FAA3E0FBA3E0FC7410C0E07E
:0A05A200E4C0E074EFC0E074E8C0AC
:0C05AC00E0E4C0E08A828B838CF078AC25
:0505B80079467A0012F3
:0E05BD001ED2E58124FBF58190E000E0FAA358
:0E05CB00E0FBA3E0FC74122AFDE43BFE8C076B
:0C05D90090F51BE0242824E7F582E434B0
:0C05E500E8F583E0F8A3E0F98D828E8336
:0C05F1008FF0E8124010A3E912401090B7
:0C05FD00E07BE0C0E0A3E0C0E07403C0BD
:0C060900E074E0C0E0E4C0E08A828B8373
:070615008CF0789179337A33
:0B061C0000121ED2E58124FBF5819046
:0E062700E000E0FAA3E0FBA3E0FC8A058B06EE
:0E0635008C078D828E838FF0E4124010A3E4B8
:0E06430012401074022AFDE43BFE8C078D82EB
:0E0651008E838FF0E4124010A3E41240107468
:0E065F00042AFDE43BFE8C078D828E838FF013
:0E066D00E4124010A3E412401074062AFDE4CB
:0E067B003BFE8C078D828E838FF0E4124010C0
:0E068900A3E412401074082AFDE43BFE8C0727
:0D0697008D828E838FF0E4124010A3E412D8
:0E06A4004010740A2AFDE43BFE8C078D828E06
:0E06B200838FF0E4124010A3E4124010740C89
:0E06C0002AFDE43BFE8C078D828E838FF0E4D2
:0E06CE00124010A3E4124010740E2AFDE43B0B
:0E06DC00FE8C078D828E838FF0E4124010A3F7
:0E06EA00E412401074122AFAE43BFB8A828B61
:0C06F800838CF0E4124010A3E4124010C8
:08070400758204784679127A2F
:05070C0000121ED202E4
:020711001EE4E4
:0A071300C01A85811A05817A007B67
:09071D00007C007D007E007F00DD
:0E072600C3EA9403EB6480948040030207A0B2
:0A073400C002C003EE24C7FAEF3440
:0C073E00E0FB74112AF582E43BF583A86F
:0A074A001A08E0F6A81A088A828B4C
:0C07540083E0D003D002602EA81A08E653
:080760006006A81A08B6012288
:0C076800A81A08E6701CC002C003EC24B4
:0A077400C7FAED34E0FB74112AF51A
:0C077E0082E43BF5837401F0D003D0024C
:0E078A00741C2CFCE43DFD741C2EFEE43FFFAD
:050798000ABA00010B8C
:03079D000207262A
:0607A000851A81D01A0247
:0207A6001EE44F
:0E07A80090E07D7420F0A37401F090E07F7467
:0E07B60006F0A37430F090E0817403F0A37499
:0D07C40001F090E0837464F0A37453F09092
:0E07D100E085E4F0A3F090E087F0A3E4F09060
:0E07DF00E089F0A3E4F090E08BF0A3E4F07466
:0A07ED00DCC0E074E8C0E0E4C0E006
:0907F70090E07D75F00078557961
:04080000A07A0212C6
:0E0804001ED21581158115817401C0E0E4C07B
:0E081200E0C0E0C0E0C0E090E07D75F000784E
:040820004479937A0A
:0B08240002121ED2E58124FBF5817852
:04082F001379077AB8
:0808330000121ED2758201784B
:04083B004579977AEA
:0C083F0002121ED2AA82AB83ACF00ABAEF
:03084B0000010B9E
:0C084E00C002C003C00475821E78E0796F
:04085A00907A01127D
:0E085E001ED2AA82AB83ACF0158115811581E4
:0E086C00EA4B4C606B90E07D7420F0A37401A9
:0E087A00F090E07F7406F0A37430F090E081FF
:0E0888007403F0A37401F090E0837464F0A395
:0E0896007453F090E085E4F0A3F090E087F05A
:0E08A400A3E4F090E089F0A3E4F090E08BF084
:0C08B200A3E4F07440C0E0E4C0E0747DFA
:0C08BE00C0E074E0C0E0E4C0E08A828B7F
:0808CA00838CF078ED79997A36
:0A08D20001121ED2E58124FBF5811E
:0308DC00021EE415
:0A08DF00C01A85811AAA82AB83AC0F
:0E08E900F07D01124766FEA3124766FFBE00B7
:0608F70005BF0002800CA9
:0908FD00BEBD06BF00030209FBA9
:03090600020A9E44
:0E090900C002C003C004904B3E75F080C002D7
:09091700C003C004781979247AA8
:0509200000121ED29040
:080925004B5375F0807819793D
:04092D00247A001216
:090931001ED2904B6F75F0807826
:04093A001979247A89
:05093E0000121ED2783A
:04094300A879077A0E
:0C09470000121ED2D004D003D002C00366
:0E095300C004E4C0E0C0E0C0E0E4C0E0C0E0EA
:0A09610090000075F000782A7981FB
:0C096B007A03121ED2AE82AF83AAF0E520
:0E0977008124FBF581D004D00390E000EEF067
:0E098500A3EFF0A3EAF074102EFEE43FFF8E05
:0E099300828F838AF0740B124010A374B81286
:0909A1004010904B8175F0807844
:0409AA001979207A1D
:0B09AE0000121ED2AA82AB83ACF090B6
:0E09B900E08DEAF0A3EBF0A3ECF0904B8A7512
:0709C700F080781979207A15
:0B09CE0000121ED2AA82AB83ACF09096
:0E09D900E090EAF0A3EBF0A3ECF0D004D00322
:0209E700D0023C
:0E09E9007D008A828B838CF074BD124010A3B7
:0409F700E4124010B6
:0909FB00ED7006758201020AB0DC
:0C0A040090E093E0FDE51A24FCF8E6B554
:0B0A10000517C002C003C0047826795F
:040A1B00057A001246
:0A0A1F001ED2D004D003D00280C024
:0C0A290090E8D6E0FDE51A24FCF8E6B5E4
:0C0A350005B2E51A24F9F8E60846084668
:0E0A410060A690E08DE0FDA3E0FEA3E0FFE5DF
:0C0A4F001A24F9F8E6B5050C08E6B50617
:080A5B000708E6B507028086DA
:0C0A630090E090E0FDA3E0FEA3E0FFE5C2
:0C0A6F001A24F9F8E6B5050C08E6B506F7
:080A7B000708E6B5070280033D
:030A83000209E97C
:0A0A8600C002C003C00478EC79122E
:0C0A90007A00121ED2D004D003D0020263
:020A9C0009E966
:0D0A9E008A828B838CF0E4124010A3E412D6
:050AAB004010758203FC
:050AB000D01A021EE453
:064B3800BBF400000000C8
:0E4B3E005374617274696E6720554450207381
:074B4C0065727665720A0034
:0E4B5300427574746F6E20313A205072696E94
:0E4B6100742052494D452073746174730A002C
:0E4B6F00427574746F6E20323A205265626F88
:044B7D006F740A0047
:094B8100427574746F6E2031005E
:094B8A00427574746F6E20320054
:054C7600000000DF0852
:054C7B00000000000034
:020000040003F7
:0E800000AA82AB83ACF090E09EE0FDA3E0FE10
:0E800E00A3E0FFED4E4F602390E09EE0C0E047
:0E801C00A3E0C0E0A3E0C0E08A828B838CF07A
:0E802A00D002D001D000121ED2AA827B0080AC
:018038000344
:038039007582004D
:03803C00021EE43D
:0E803F00AAF0AB83E58290E09EF0A3EBF0A3E5
:05804D00EAF0021EE450
:0980520090E09475F000784F797C
:04805B00AA7A0212E9
:0E805F001ED2E5828583F045F0600F90E0941C
:08806D0075F00078CE79A97AC4
:0480750002121ED203
:03807900021EE400
:0E807C0090E8EDE0FABA061490E91CE0FA5321
:0A808A000202BA0209785279807AE6
:0480940003121ED2E3
:03809800021EE4E1
:0C809B0090E9DDE0FAA3E0FB4A602978E0
:0480A7007C79807AE6
:0880AB0003121ED27582017858
:0480B3004779B37ADC
:0580B70002121ED29030
:0C80BC00E9DDE0FAA3E0FB4A6009782C43
:0580C80079847A031227
:0280CD001ED2C1
:0380CF00021EE4AA
:0A80D200C01A85811AAA82AB83ACA4
:0E80DC00F074152AFAE43BFB90F4D2E0FDA309
:0D80EA00E0FEA3E0FF8A828B838CF0ED1294
:0A80F7004010A3EE124010A3EF1298
:0E810100401074032AFAE43BFB8A828B838CC5
:0C810F00F0E51A24FAF8E6124010A3086C
:0B811B00E6124010A308E6124010D04E
:048126001A021EE437
:0A812A00C01A85811A058105810540
:0C81340081AA82AB83ACF0E51A24FBF8B2
:0E814000E6C0E008E6C0E08A828B838CF0780F
:04814E00B979AF7AD2
:0C81520002121ED2AA82AB83ACF0158191
:0C815E001581A81A08A60208A60308A6AE
:0C816A0004A81A08E608460846700790B2
:068176000000F5F0805A44
:0C817C00A81A08741526FDE40836FE0859
:0E818800860790F4D2E0FAA3E0FBA3E0FC8DA2
:0E819600828E838FF0EA124010A3EB1240108D
:0E81A400A3EC12401074032DFDE43EFE8D820C
:0B81B2008E838FF0E51A24F8F8E61227
:0C81BD004010A308E6124010A308E612D0
:0C81C9004010A81A0886820886830886E9
:0181D500F0B9
:0681D600851A81D01A0297
:0281DC001EE49F
:0A81DE00C01A85811AC082C083E533
:0C81E800812412F581E51A2403F876FFCB
:0C81F400087602E51A2403FC74022CF843
:0E820000760008760074042CF87600087600EC
:0E820E0074062CF8760008760074082CF876BA
:0E821C0000087600740A2CF8760008760074CC
:0E822A000C2CF87600087600740E2CF8760006
:0C823800087601E51A2403FC7D007E405E
:0C824400E51A24FAF8E6C0E008E6C0E005
:0C82500008E6C0E0A81A08E6C0E008E656
:0B825C00C0E08C828D838EF0782A79C0
:04826700817A031203
:0E826B001ED2AC82AD83AEF0E58124FBF5811E
:0E827900EC4D4E601C74102CFFE43DFA8E0399
:0B8287008F828A838BF0A81A08E61291
:088292004010A308E6124010A1
:0A829A008C828D838EF0851A81D04E
:0482A4001A021EE4B8
:0A82A800C01A85811A0581058105C1
:0982B20081AA82BA01030283B81B
:0682BB00BA02030283ED8C
:0582C100BA87028009EC
:0682C600BA880302834F99
:0382CC000283F634
:0C82CF00E51A24FAF886020886030886E7
:0C82DB0004A81A08A60208A60308A604BE
:0682E7007DEB7EE97F0043
:0A82ED00C3ED94F9EE94EAEF94005B
:0582F70040030283F6C4
:0E82FC0074152DFAE43EFB8F048A828B838C6E
:0C830A00F0124766FAA3124766FBA312AC
:0C8316004766FCA81A08E6B5020C08E651
:0A832200B5030708E6B50402800267
:02832C008018B7
:0E832E0074102DFAE43EFB8F048A828B838C40
:0A833C00F0E4124010A3E412401018
:09834600741B2DFDE43EFE809E37
:0A834F00E51A24FAF8E6B4940C08CD
:0B835900E6B4E00708E6B40002800272
:02836400800F88
:0983660090E09475F000784F7965
:04836F00AA7A0212D2
:028373001ED218
:0A837500E51A24FAF8E6B4A30C0898
:0B837F00E6B4E00708E6B4000280024C
:02838A00806A07
:09838C0090E0A375F000784F7930
:04839500AA7A0212AC
:0C8399001ED2E5828583F045F06052782A
:0483A5004279827A1D
:0583A90002121ED27853
:0483AE002C79847A28
:0683B20003121ED2803E02
:0C83B800E51A24FAF8E608460846603290
:0C83C400E51A24FAF890E9E8E6F008A3B6
:0C83D000E6F008A3E6F075820578477916
:0483DC00B37A02125C
:0583E0001ED2782C798B
:0483E500847A031281
:0483E9001ED2800917
:0583ED00789B79807A05
:0483F20003121ED282
:0683F600851A81D01A0275
:0283FC001EE47D
:0E83FE00E4C0E0C0E0C0E07402C0E090F4C54E
:08840C0075F00078A579887A6B
:0B84140001121ED2E58124FCF58190CE
:0B841F00E9DDE4F0A3F090F51BF00293
:02842A001EE44E
:0A842C00C01AE581F51A2407F58156
:0E84360090E9DDE0FAA3E0FB4A700302878BB9
:0E844400C3E49A74059B500A90E9DDE4F0A3AE
:04845200F002878B22
:0E84560090E8FFE0FAA3E0FB4A705790E901BE
:0E846400E0FAA3E0FB4A704C90E903E0FAA3B3
:0E847200E0FB4A704190E905E0FAA3E0FB4A06
:0E848000703690E907E0FAA3E0FB4A702B90FB
:0E848E00E909E0FAA3E0FB4A702090E90BE058
:0E849C00FAA3E0FB4A701590E90DE0FAA3E0A8
:0E84AA00FB4A700A90E9DDE4F0A3F002878B34
:0B84B80090E8FFE0FABAFF03028771B2
:0984C30090E8FF75F000789E7945
:0484CC00927A02128C
:0984D0001ED2E58260087AFF7BF0
:0584D900E87C00804773
:0984DE0090E8FF75F000783A798E
:0484E7009A7A021269
:0E84EB001ED2AD82AE83AFF0ED4E4F702478FE
:0484F9000279907AFA
:0C84FD0002121ED2AD82AE83AFF08D02E1
:0E8509008E038F04ED4E4F701390E9DDE4F009
:05851700A3F002878BB8
:09851C0074132DFAE43EFB8F04F8
:0D8525008A828B838CF0C002C003C00478F2
:04853200A379DF7AD0
:0C85360003121ED2E5828583F0D004D031
:0E85420003D00245F0600A90E9DDE4F0A3F0FA
:0385500002878B14
:0D8553008A828B838CF0C002C003C00478C4
:0485600020798D7A77
:0C85640002121ED2AD82AE83AFF0D00434
:0C857000D003D002A81A08A60508A60631
:0B857C0008A607ED4E4F60030286D3F7
:0E858700E4C0E0E4C0E0E4C0E0C0E0C0E08A90
:0A859500828B838CF0788479897A58
:0C859F0002121ED2AD82AE83AFF0E58167
:0C85AB0024FBF581A81A08A60508A60606
:0E85B70008A607ED4E4F700A90E9DDE4F0A330
:0485C500F002878BAE
:0985C90090E8EF75F000783479B8
:0485D200967A021281
:0E85D6001ED2AD82AE83AFF0ED4E4F6032A8E4
:0C85E4001A08740126FDE40836FE088623
:0E85F00007C005C006C007E4C0E0C0E0C0E060
:0985FE0090E8EF75F00078D979DE
:04860700C47A02121D
:0A860B001ED2E58124FAF5818030CB
:0C861500A81A08740126FDE40836FE08CF
:0E8621008607C005C006C007E4C0E0C0E0C088
:0A862F00E090000075F00078D979A2
:04863900C47A0212EB
:08863D001ED2E58124FAF5814B
:0E86450090E0C2E0FDA3E0FEA3E0FFA3E0FA98
:0E86530074E8C0E07403C0E0E4C0E0C0E08D55
:0C866100828E838FF0EA1245B5C8E51A3E
:0E866D002404C8A68208A68308A6F008F6E535
:0C867B008124FCF581A81A08742126FE59
:0C868700E40836FF088602E51A2404F817
:0E869300E6C0E008E6C0E008E6C0E008E6C089
:0A86A100E08E828F838AF078D5798D
:0486AB000E7A001231
:0C86AF001ED2E58124FCF581A81A087495
:0E86BB002B26FAE40836FB0886048A828B839D
:0A86C9008CF074011240100287715A
:0C86D300A81A08742D26FAE40836FB08EB
:0E86DF0086048A828B838CF0124766FD700A37
:0A86ED0090E9DDE4F0A3F002878BB2
:0E86F700BD02518A828B838CF07403124010F6
:0C870500A81A08741926FAE40836FB08CC
:0E87110086047405C0E0E4C0E0C0E0C0E08A69
:0A871F00828B838CF078D5790E7AF6
:0B87290000121ED2E58124FCF581A89F
:0C8734001A08742B26FAE40836FB0886AD
:0B874000048A828B838CF0E41240104E
:0C874B00A81A08741126FAE40836FB088E
:0B87570086048A828B838CF078007906
:04876200807A031204
:0B8766001ED290E9DDE4F0A3F0801AC1
:0A87710090000075F0007800798098
:06877B007A03121ED290E9
:0A878100E9DDE4F0A3F090F51BF031
:06878B00851A81D01A02DC
:028791001EE4E4
:0E879300AA82AB83ACF0C002C003C004740124
:0B87A100C0E090F4C575F000782F795F
:0487AC00887A0112B4
:0B87B0001ED2E58124FCF581021EE4CE
:0E87BB0090E9E2E0FAA3E0FBA3E0FCEA4B4CFD
:0B87C900600974282AFAE43BFB8014CE
:0E87D40090E9E8E0FDA3E0FEA3E0FF74152DA0
:0687E200FAE43EFB8F04E7
:0E87E8008A828B838CF0124766FDA3124766CF
:0E87F600FEA3124766FFED4E4F603C74032A4F
:0E880400FAE43BFB8A828B838CF0124766FA03
:0E881200A3124766FBA3124766FCC002C00318
:0E882000C00490E093E0C0E08D828E838FF064
:05882E0078A579887AAD
:0A88330001121ED2E58124FCF5813C
:03883D00021EE434
:0A884000C01A85811AAA82AB83AC2E
:0E884A00F07D01124766FEA3124766FFBE00D6
:0688580005BF0002800BC9
:08885E00BE0005BF0302805CAF
:038866000288FE87
:0A886900C002C003C004780079804B
:088873007A01121ED2E5829089
:0E887B00E093F07440C0E0E4C0E090E094753B
:07888900F000785779A97A8D
:0988900002121ED2158115817837
:04889900E679AE7A54
:05889D0002121ED2785A
:0488A200F3799F7A4D
:0A88A60003121ED2D004D003D0024A
:0E88B0007D008A828B838CF0E4124010A3744A
:0488BE000312401051
:0888C200ED700575820180468E
:0C88CA00C002C003C004E51A24F9F8E65F
:0C88D600C0E008E6C0E008E6C0E0E51ADB
:0A88E20024FCF8868278A879827AD7
:0C88EC0003121ED2158115811581D004E5
:0688F800D003D00280B2A3
:0D88FE008A828B838CF0E4124010A3E412F8
:05890B0040107582031D
:05891000D01A021EE474
:020000040000FA
:054C8000000000408867
:054C8500030000000027
:060AB50053F4FE021EE4F2
:060ABB0053F4FE021EE4EC
:060AC10043F401021EE4F3
:050AC700D290021EE4C4
:050ACC00C290021EE4CF
:0A0AD100A290E433FAF582021EE45D
:060ADB0043FE01021EE4CF
:060AE10053FEFE021EE4BC
:090AE700438D01439A10021EE444
:0A0AF000538DFEE58D7003539AEF5D
:030AFA00021EE4F5
:0E0AFD007401558DFA7B008A828B83021EE401
:060B0B00438C02021EE40F
:060B1100538CFD021EE4FE
:0E0B17007401558AFA7B008A828B83021EE4E9
:080B2500C2EB758A00021EE418
:060B2D0053F3EF021EE489
:060B330053F3EF021EE483
:060B390043F310021EE46C
:050B3F00D284021EE457
:050B4400C284021EE462
:0A0B4900A284E433FAF582021EE4F0
:060B530043FD10021EE448
:060B590053FDEF021EE453
:0E0B5F00438C1090E0A1E0FA4410F043B8205F
:030B6D00021EE481
:0E0B700090E0A1E054EFF090E0A1E0FA54F024
:040B7E00600280038E
:030B8200538CEFA2
:030B8500021EE469
:0E0B880090E0A1E0FA5302107B008A828B837A
:030B9600021EE458
:060B9900438C01021EE482
:060B9F00538CFE021EE46F
:0E0BA50074105589FA7B008A828B83021EE44D
:080BB300C2C5758900021EE4B1
:050BBB0078D1790A7AEF
:090BC00000121ED2E582702090A3
:080BC900000C75F040781C7966
:040BD100267A00126E
:0B0BD5001ED2AA82AB83EA4BB40100E1
:080BE000E433FA7003FA80020D
:020BE8007A0190
:0C0BEA00EA3395E0FB8A828B83021EE454
:0C0BF600AA82AB83BA8105BB0002800616
:060C0200BA8212BB000FD4
:050C080078FD790A7A75
:0A0C0D0000121ED2AA82AB838003FE
:030C17009000004A
:030C1A00021EE4D3
:0A0C1D00C01A85811AAA82AB83BABF
:070C27008005BB0002800BF9
:080C2E00BA8105BB000280231E
:030C3600020CAEFF
:050C3900780B790B7A35
:050C3E0000121ED27837
:040C4300B5790A7AFB
:050C470000121ED2782E
:040C4C00E1790A7AC6
:090C500000121ED2900001805830
:0B0C5900E51A24FBF8E60846603D7831
:040C6400FD790A7A92
:0C0C680000121ED2E5828583F045F0707A
:0C0C740034C0E0C0E090000C75F0407847
:040C80005679257A02
:090C840000121ED21581158178C1
:040C8D0025790B7A40
:050C910000121ED278E4
:040C9600E7790A7A76
:060C9A0000121ED28009C9
:050CA00078F0790A7AEA
:040CA50000121ED249
:050CA900900001800332
:030CAE00900000B3
:050CB100D01A021EE450
:050CB6007849790B7A7A
:090CBB0000121ED2E582702090A7
:080CC400001075F040781C7966
:040CCC00267A001272
:0B0CD0001ED2AA82AB83EA4BB40100E5
:080CDB00E433FA7003FA800211
:020CE3007A0194
:0C0CE500EA3395E0FB8A828B83021EE458
:0C0CF100AA82AB83BA8105BB000280061A
:060CFD00BA8212BB000FD9
:050D03007888790B7AED
:0A0D080000121ED2AA82AB83800302
:030D12009000004E
:030D1500021EE4D7
:0A0D1800C01A85811AAA82AB83BAC3
:070D22008005BB0002800800
:080D2900BA8171BB006E801756
:050D3100782D790B7A1A
:050D360000121ED2783E
:040D3B0059790B7A5D
:090D3F0000121ED2900001805840
:0B0D4800E51A24FBF8E60846603D7841
:040D530088790B7A16
:0C0D570000121ED2E5828583F045F0708A
:0C0D630034C0E0C0E090001075F0407853
:040D6F005679257A12
:090D730000121ED21581158178D1
:040D7C00B3790B7AC2
:050D800000121ED278F4
:040D85005F790B7A0D
:060D890000121ED28009D9
:050D8F007870790B7A79
:040D940000121ED259
:050D9800900001800342
:030D9D00900000C3
:050DA000D01A021EE460
:0C0DA500C021C0E0C0F0C082C083C002CA
:0E0DB100C003C004C005C006C007C000C001DA
:0A0DBF00C0D075D000C2AF78A5794E
:040DC9000B7A00128F
:0E0DCD001ED2E5828583F045F0604190001053
:080DDB0075F040781C79267ABE
:0C0DE30000121ED2E5828583F045F0600E
:0E0DEF00297420C0E0E4C0E090001075F040D0
:050DFD00785679257A0B
:090E020000121ED2158115819029
:080E0B004B9F75F08078E3793C
:040E13001F7A001230
:020E17001ED2E9
:0E0E1900758900C2C5D2AFD0D0D001D000D0B4
:0E0E270007D006D005D004D003D002D083D06F
:080E350082D0F0D0E0D02132A0
:0C0E3D00C021C0E0C0F0C082C083C00231
:0E0E4900C003C004C005C006C007C000C00141
:0A0E5700C0D075D000C2AF78177943
:040E61000B7A0012F6
:0E0E65001ED2E5828583F045F0604190000CBE
:080E730075F040781C79267A25
:0C0E7B0000121ED2E5828583F045F06075
:0E0E8700297420C0E0E4C0E090000C75F0403B
:050E9500785679257A72
:090E9A0000121ED2158115819091
:080EA3004B9375F08078E379B0
:040EAB001F7A001298
:020EAF001ED251
:0E0EB100758A00C2EBD2AFD0D0D001D000D0F5
:0E0EBF0007D006D005D004D003D002D083D0D7
:080ECD0082D0F0D0E0D0213208
:034B9300AB4B80A9
:024B9600BB0B57
:024B9800001DFE
:024B9A000C000D
:024B9C00F60B16
:014B9E000016
:034B9F00B44B8094
:024BA200B60C4F
:024BA4000018F7
:024BA6000D0000
:024BA800F10C0E
:014BAA00000A
:094BAB00427574746F6E20310034
:094BB400427574746F6E2032002A
:020000040002F8
:0E80000074B8C0E0E4C0E0E4C0E090E1927526
:07800E00F000783F79467A8B
:0C80150000121ED21581158115817434F3
:0E802100C0E0E4C0E0E4C0E090E24A75F00088
:05802F00783F79467A5C
:0C80340000121ED21581158115817454B4
:0E804000C0E0E4C0E0E4C0E090E27E75F00035
:05804E00783F79467A3D
:0C80530000121ED215811581158174DD0C
:0E805F00C0E0E4C0E0E4C0E090E0B575F000E1
:05806D00783F79467A1E
:0C80720000121ED215811581158174BC0E
:0E807E00C0E0E4C0E0E4C0E090E2D275F000A3
:05808C00783F79467AFF
:0B80910000121ED21581158115819090
:0C809C00E38E741CF090E38F7412F090DF
:0E80A800E0B5E4F0A37405F0A3E4F0A3F090BB
:0E80B600E0B97440F090E0BA74C0F0A37427F3
:0B80C400F0A37409F0A3E4F0787A79CF
:0480CF00A17A02127E
:0E80D3001ED2AA82AB83ACF0FD90E0BEEAF0B4
:0E80E100A3EBF0A3ECF0A3EDF090E0C274105E
:0E80EF00F0A37427F0A3E4F0A3F090E0C6F035
:0E80FD0090E39074FEF0A37480F090E392E4A0
:0E810B00F0A3F090E394F0A3E4F090E396F07C
:0E811900A3E4F0E4C0E0C0E0C0E0C0E0E4C0D9
:0E812700E0C0E0C0E0C0E0E4C0E0E4C0E0740E
:0C81350040C0E090E39075F00078C8793D
:04814100907A02121C
:0C8145001ED2E58124F5F58174DCC0E059
:0C81510074E8C0E0E4C0E090E39075F03A
:06815D0000785579A07ABC
:0C81630002121ED21581158115817401D5
:0E816F00C0E0E4C0E0C0E0C0E0C0E090E390FB
:08817D0075F000784479937A53
:0B81850002121ED2E58124FBF5819060
:0E819000E39074FFF0A37402F090E392E4F029
:0E819E00A3F090E394F0A3E4F090E396F0A336
:0E81AC00E4F090E398F0A3E4F090E39AF0A3DF
:0E81BA00E4F090E39CF0A3E4F090E39EF0A3C9
:0C81C8007401F090E39075F00078FC79F1
:0481D400977A021282
:0D81D8001ED290E39074FFF0A37402F090AB
:0E81E500E392E4F0A3F090E394F0A3E4F090B2
:0E81F300E396F0A3E4F090E398F0A3E4F0909C
:0E820100E39AF0A3E4F090E39CF0A3E4F09085
:0E820F00E39EF0A37402F090E39075F0007807
:04821D00FC79977AD7
:0C82210002121ED2740CC0E0E4C0E09019
:08822D00E0A375F00078577919
:04823500A97A02120E
:098239001ED215811581021EE41C
:0A824200C01AE581F51A2407F58142
:08824C0090E3A374C7F0A374D2
:05825400E0F0A3E4F0DE
:0E82590090E3A3E0FAA3E0FBA3E0FCC3EA94E9
:0A8267001BEB94E1EC940050678AD1
:0E827100828B838CF0124766604D74132AFDD9
:0E827F00E43BFE8C078D828E838FF0124766E3
:0E828D00703974142AFAE43BFB8A828B838CCE
:06829B00F0781B79107A57
:0C82A10000121ED2E5828583F045F060DB
:0E82AD001A90E3A3E0FAA3E0FBA3E0FC8A82B0
:0982BB008B838CF0784779957AE9
:0482C40002121ED2B2
:0D82C80090E3A3E0241CF0A3E03400F002DA
:0282D5008259CC
:0882D70090E3B2744AF0A374B5
:0582DF00E2F0A3E4F051
:0E82E40090E3B2E0FAA3E0FBA3E0FCC3EA944F
:0A82F2007EEB94E2EC940050678AE2
:0E82FC00828B838CF0124766604D74192AFD48
:0E830A00E43BFE8C078D828E838FF012476657
:0E831800703974112AFAE43BFB8A828B838C45
:06832600F0781B79107ACB
:0C832C0000121ED2E5828583F045F0604F
:0E8338001A90E3B2E0FAA3E0FBA3E0FC8A8215
:098346008B838CF07888798F7A22
:04834F0002121ED226
:0D83530090E3B2E0241AF0A3E03400F00241
:0283600082E4B5
:0883620090E3AF7492F0A374E4
:05836A00E1F0A3E4F0C6
:0C836F0090E3AFE51A2404F8E0F6A3E068
:0C837B0008F6A3E008F6E51A2404F8C395
:0A838700E6944A08E694E208E69442
:068391000040030287C852
:0C839700E51A2404F88682088683088614
:0983A300F012476670030287B96D
:0C83AC00E51A2404F8742D26FDE40836C0
:0E83B800FE0886078D828E838FF0124766FDC9
:0883C6006015BD010302851FD3
:0683CE00BD030302856AF5
:0683D400BD040302860552
:0383DA000287B95E
:0C83DD00E51A2404F8742B26FDE4083691
:0E83E900FE0886078D828E838FF0124766FD98
:0383F700BD0300C3
:0C83FA004019E51A2404F88682088683E6
:088406000886F078F3798C7A06
:05840E0002121ED20263
:0284130087B927
:0C841500E51A2404F8742126FDE4083662
:0C842100FE0886078D828E838FF0781B8A
:05842D0079107A001235
:0E8432001ED2E5828583F045F070030287B903
:0E84400090E9DDE0FDA3E0FE4D60030287B988
:0C844E0090E3AFE0FAA3E0FBA3E0FCA881
:0C845A001A08742B2AF6E43B08F608A66A
:0C84660004A81A0886820886830886F0A5
:0C847200124766FE0EA81A0886820886D3
:0D847E00830886F0EE1240100ABA00010BD0
:0E848B00C002C003C004E4C0E0C0E0C0E09046
:0A849900000075F00078D979C47A6C
:0B84A30002121ED2E58124FAF5819040
:0E84AE00E0C2E0FAA3E0FBA3E0FCA3E0FD7453
:0E84BC00E8C0E07403C0E0E4C0E0C0E08A82E3
:0E84CA008B838CF0ED1245B5AA82AB83ACF02B
:0C84D800FDE58124FCF58190E3AFA81ABB
:0C84E40008E0F6A3E008F6A3E008F6A804
:0C84F0001A08742126F6E40836F6C002D3
:0C84FC00C003C004C005A81A088682084E
:0A85080086830886F078D5790E7A94
:0B85120000121ED2E58124FCF581025E
:02851D0087B91C
:0C851F00E51A2404F8741926FEE408365E
:0C852B00FF0886028E828F838AF0781B86
:0585370079107A00122A
:0E853C001ED2E5828583F045F070030287B9F8
:0E854A0090E3AFE0FAA3E0FBA3E0FC742D2A5F
:0D855800FAE43BFB8A828B838CF0740212E4
:0585650040100287B97F
:0C856A00E51A2404F8741926FAE4083617
:0C857600FB0886048A828B838CF0781B43
:0585820079107A0012DF
:0E8587001ED2E5828583F045F070030287B9AD
:0C85950090E3AFA81A08E0F6A3E008F697
:0C85A100A3E008F6A81A08742D26FEE4DA
:0E85AD000836FF0886028E828F838AF07404DF
:0C85BB00124010A81A08742B26FAE408DD
:0D85C70036FB0886048A828B838CF0E41258
:0C85D4004010A81A08742126FAE40836AA
:0E85E000FB088604E4C0E0C0E0C0E0C0E08A12
:0A85EE00828B838CF078D5790E7A29
:0B85F80000121ED2E58124FCF5810278
:0286030087B935
:0C860500E51A2404F8742B26FAE4083669
:0E861100FB0886048A828B838CF0124766FA7F
:03861F00BA03009B
:0586220050030286A2D6
:0C862700E51A2404F8740126FAE4083671
:0C863300FB0886048A828B838CF078A6FA
:05863F00798F7A0212A0
:0E8644001ED2AB82AC83ADF090E3B2EBF0A39C
:0E865200ECF0A3EDF0BB0008BC0005BD00027B
:02866000802375
:0E86620074192BFEE43CFF8D028E828F838AFA
:0D867000F0124766700F8B828C838DF078BE
:04867D0088798F7AEF
:0486810002121ED2F1
:0E86850090E3AFE0FAA3E0FBA3E0FC8A828B57
:08869300838CF078F3798C7AF6
:05869B0002121ED202D4
:0286A00087B998
:0C86A200E51A2404F8742126FAE40836D6
:0C86AE00FB0886048A828B838CF0781B0A
:0586BA0079107A0012A6
:0E86BF001ED2E5828583F045F070030287B974
:0E86CD0090E9DDE0FAA3E0FB4A60030287B902
:0C86DB0090E3AFE51A2404F8E0F6A3E0F9
:0C86E70008F6A3E008F6E51A2404F87475
:0E86F3002B26FEE40836FF0886028E828F8357
:0E8701008AF0124766FB0B8E828F838AF0EBA4
:0C870F00124010E51A2404F8740126FA48
:0E871B00E40836FB088604C002C003C004C098
:0C87290002C003C00490000075F000784E
:04873500D979C47AB0
:0B87390002121ED2E58124FAF58190A7
:0E874400E0C2E0FAA3E0FBA3E0FCA3E0FE74B9
:0E875200E8C0E07403C0E0E4C0E0C0E08A824A
:0C8760008B838CF0EE1245B5C8E51A249E
:0E876C0004C8A68208A68308A6F008F6E581D8
:0E877A0024FCF58190E3AFE0FFA3E0FAA3E05A
:0C878800FB74212FFFE43AFAE51A2404E8
:0E879400F8E6C0E008E6C0E008E6C0E008E64F
:0B87A200C0E08F828A838BF078D579CD
:0487AD000E7A00122E
:0887B1001ED2E58124FCF581D4
:0D87B90090E3AFE0242EF0A3E03400F002C6
:0287C600836FBF
:0987C80090E0A375F00078A1799E
:0487D100A97A02126D
:0687D5001ED2851A81D0BE
:0487DB001A021EE47C
:0A87DF00C01A85811AC082C083C051
:0C87E900F0058105810581E51A24F3F8F4
:0E87F50086050886060886078D828E838FF023
:0C880300E4124010A3E4124010A3E412A1
:06880F004010A81A08E564
:0C8815001A2404F9E6F70809E6F7080940
:0C882100E6F7E51A24F6F8E6C423541F1D
:01882D00FC4E
:0C882E00C005C006C007E51A24FCF8864F
:0C883A00057E00C004C007E51A24FAF80F
:0E884600E6C0E008E6C0E08D828E831241C5D8
:0D885400AD82AE8315811581D007D004A838
:0C8861001A08ED26FDEE0836FE0886071A
:0C886D00E51A2404F8C3E69D08E69E0806
:0D887900E69FD007D006D005400302894CD1
:0C888600E51A2404F88682088683088620
:09889200F0124766700302891C14
:0C889B00C005C006C0078C057E00E51A71
:0E88A7002404F8740126FFE40836FA0886035C
:0D88B500C004C005C006C007C005C006E530
:0C88C2001A24F7F8E6C0E008E6C0E00861
:0C88CE00E6C0E08F828A838BF07863792B
:0488DA00427A0012CC
:0E88DE001ED2AA82AB83E58124FBF581D00770
:0E88EC00D006D005D004D007D006D005EA4B48
:0C88FA00703B8D828E838FF0E51A240401
:0E890600F8E6124010A308E6124010A308E69F
:08891400124010758200806022
:0C891C008D828E838FF0E51A2404F8E6AB
:0D892800124010A308E6124010A308E6124A
:028935004010F0
:0A893700E51A2404F8E51A24FAF901
:0B894100E726F609E70836F602882E4C
:0E894C008D828E838FF0124766FDA312476660
:0E895A00FEA3124766FFE4BD0007BE0004BF87
:0389680000010407
:04896B00FDB4010056
:0A896F00E433FD600575820180030A
:0389790075820202
:06897C00851A81D01A02E9
:028982001EE4F1
:0A898400C01A85811AC082C083C0AA
:0C898E00F0E5812409F58174AFC0E074AD
:0B899A00E3C0E0E4C0E07480C0E0A88F
:0C89A5001A08E6C0E008E6C0E008E6C0E2
:0D89B100E0742EC0E0E4C0E07404C0E0906B
:0889BE00E19275F00078DF7909
:0489C600877A021298
:0E89CA001ED2AD82E58124F6F5817E00BD014E
:0689D80005BE0002800351
:0389DE00028BD237
:0E89E10090E3AFE0FFA3E0FAA3E0FB8F828AF1
:0D89EF00838BF074011240100FBF00010ACD
:0C89FC007410C0E0E4C0E0A81A08E6C057
:0E8A0800E008E6C0E008E6C0E08F828A838BBB
:068A1600F078AC79467A0D
:0B8A1C0000121ED2E58124FBF581E56D
:0C8A27001A24FAF8B6000A08B600060887
:058A3300B600028040C6
:0E8A380090E3AFE0FAA3E0FBA3E0FC74112A88
:0C8A4600FAE43BFB7408C0E0E4C0E0E58B
:0C8A52001A24FAF8E6C0E008E6C0E008CC
:0C8A5E00E6C0E08A828B838CF078AC7953
:048A6A00467A001236
:0A8A6E001ED2E58124FBF581803162
:0E8A780090E3AFE0FAA3E0FBA3E0FC74112A48
:0E8A8600FAE43BFB7408C0E0E4C0E0E4C0E0AA
:0A8A94008A828B838CF0783F7946CC
:0B8A9E007A00121ED21581158115818F
:0C8AA90090E3AFE51A2407F8E0F6A3E024
:0C8AB50008F6A3E008F6E51A2407F874A0
:0E8AC1002C26FFE40836FA0886038F828A838B
:0C8ACF008BF0E51A24F9F8E6124010E5DF
:0C8ADB001A2407F8742D26FAE40836FB74
:0C8AE7000886048A828B838CF0E51A2438
:0C8AF300F8F8E6124010E51A2407F874A9
:0E8AFF001926FAE40836FB088604E4C0E0C03D
:0C8B0D00E0C0E0C0E08A828B838CF0782E
:048B1900D5790E7A82
:0B8B1D0000121ED2E58124FCF58190BF
:0E8B2800E3AFE0FAA3E0FBA3E0FC74212AFA1D
:0E8B3600E43BFBE4C0E0C0E0C0E0C0E08A82A7
:098B44008B838CF078D5790E7A50
:0B8B4D0000121ED2E58124FCF581908F
:0E8B5800E3AFE0FCA3E0FDA3E0FE742B2CFFD6
:0D8B6600E43DFA8E038F828A838BF0E412C7
:0B8B730040108C828D838EF0781C79FE
:048B7E009F7A0312C5
:0E8B82001ED290E3AFE0FAA3E0FBA3E0FC7488
:0D8B9000292AFDE43BFBC003C004C00578AA
:048B9D001079327A9F
:0C8BA10000121ED2AF82AA83D005D004BF
:0E8BAD00D0038D828B838CF0EF124010A3EA70
:0E8BBB0012401090E3AFE0FAA3E0FBA3E0FC51
:098BC9008A828B838CF0028CEB94
:088BD200BD0205BE0002800394
:038BDA00028CE525
:0C8BDD00E51A2407F8E4F608F608760014
:058BE900781079327ADA
:098BEE0000121ED2AD82AE83E537
:088BF7001A2404F876920876B6
:048BFF00E108760013
:0A8C0300E51A2404F8C3E6944A08B9
:0A8C0D00E694E208E69400505FE5EB
:0C8C17001A2404F886820886830886F080
:0C8C2300124766603EE51A2404F874292C
:0E8C2F0026FCE40836FA0886038C828A838BC2
:0E8C3D00F0124766FAA3124766FBC3EA9DEBEE
:0A8C4B009E5018E51A2404F8E51AFB
:0E8C55002407F9E6F70809E6F70809E6F78AAA
:038C6300058B0678
:0C8C6600E51A2404F8742E26F6E4083603
:038C7200F6808EFB
:0C8C7500E51A2407F8B6000A08B600064D
:068C810008B60002805E4F
:0C8C8700E51A2407F88682088683088618
:068C9300F078F3798C7A01
:058C990002121ED2E5ED
:0A8C9E001A24F8F8E6C0E0E51A24F5
:0C8CA800F9F8E6C0E0E51A24FAF8E6C08E
:0C8CB400E008E6C0E008E6C0E0A81A08EE
:0B8CC00086820886830886F07884799D
:048CCB00897A02128E
:0E8CCF001ED2AA82AB83ACF0E58124FBF581B6
:088CDD008A828B838CF0800673
:068CE50090000075F00094
:068CEB00851A81D01A0277
:028CF1001EE47F
:0E8CF300AA82AB83ACF0BA0008BB0005BC003F
:038D0100028019D4
:0E8D04008A828B838CF0E41240108A828B836B
:078D12008CF0781C799F7AB8
:048D190003121ED251
:038D1D00021EE44F
:0B8D2000AA82AB83ACF074AFC0E0741B
:0C8D2B00E3C0E0E4C0E07480C0E0C002DF
:0E8D3700C003C004742EC0E0E4C0E07404C0A9
:0A8D4500E090E19275F00078DF790C
:048D4F00877A02120B
:0E8D53001ED2AA82E58124F6F581EA704D90C9
:0E8D6100E3AFE0FAA3E0FBA3E0FC74292AFADA
:0C8D6F00E43BFBC002C003C00478107994
:048D7B00327A001236
:0E8D7F001ED2AD82AE83D004D003D0028A8211
:0E8D8D008B838CF0ED124010A3EE124010907C
:0E8D9B00E3AFE0FAA3E0FBA3E0FC8A828B8347
:048DA9008CF08006C4
:068DAD0090000075F000CB
:038DB300021EE4B9
:0C8DB600AA82AB83ACF090E3AF7492F0A3
:078DC200A374E1F0A3E4F04B
:0E8DC90090E3AFE0FDA3E0FEA3E0FFC3ED9456
:0A8DD7004AEE94E2EF9400506A8D1A
:0E8DE100828E838FF0124766605074112DFD54
:0E8DEF00E43EFEC002C003C0047408C0E0E40D
:0E8DFD00C0E0C005C006C0078A828B838CF0E0
:058E0B00786379427A52
:0C8E100000121ED2AD82AE83E58124FB6F
:0D8E1C00F581D004D003D002ED4E7013900C
:0E8E2900E3AFE0FDA3E0FEA3E0FF8D828E83A9
:048E37008FF0801523
:0D8E3B0090E3AFE0242EF0A3E03400F0023D
:028E48008DC9D2
:068E4A0090000075F0002D
:038E5000021EE41B
:0A8E5300C01A85811AAA82AB83AC15
:0C8E5D00F0C002C003C00474B2C0E07496
:0C8E6900E3C0E0E4C0E07480C0E0C002A0
:0E8E7500C003C004741AC0E0E4C0E07402C080
:0A8E8300E090E24A75F00078DF7914
:048E8D00877A0212CC
:0E8E91001ED2AD82E58124F6F581D004D00317
:078E9F00D002BD01028003B7
:038EA600028F7DBB
:0E8EA90090E3B2E0FDA3E0FEA3E0FF8D828E19
:0D8EB700838FF074011240100DBD00010EFC
:0E8EC4007410C0E0E4C0E0C002C003C0048D22
:0A8ED200828E838FF078AC79467A27
:0B8EDC0000121ED2E58124FBF581E5A9
:0C8EE7001A24F9F8E60846084608466020
:0E8EF3005990E3B2E0FAA3E0FBA3E0FC741197
:0C8F01002AFAE43BFBE51A24F9F8E6C06C
:0E8F0D00E008E6C0E008E6C0E008E6C0E08A42
:0A8F1B00828B838CF078D5790E7AF2
:0B8F250000121ED2E58124FCF58190B3
:0E8F3000E3B2E0FAA3E0FBA3E0FC74192AFA16
:0E8F3E00E43BFB8A828B838CF0E412401080AF
:018F4C001D07
:0E8F4D0090E3B2E0FAA3E0FBA3E0FC74192A63
:0D8F5B00FAE43BFB8A828B838CF0740112D8
:028F68004010B7
:0E8F6A0090E3B2E0FAA3E0FBA3E0FC8A828B66
:058F7800838CF080066F
:068F7D0090000075F000F9
:058F8300D01A021EE4FB
:0E8F8800AA82AB83ACF0BA0008BB0005BC00A7
:038F960002800A4C
:0A8F99008A828B838CF0E4124010F2
:038FA300021EE4C7
:0B8FA600AA82AB83ACF074B2C0E07490
:0C8FB100E3C0E0E4C0E07480C0E0C00257
:0E8FBD00C003C004741AC0E0E4C0E07402C037
:0A8FCB00E090E24A75F00078DF79CB
:048FD500877A021283
:0E8FD9001ED2AA82E58124F6F581EA7013907B
:0E8FE700E3B2E0FAA3E0FBA3E0FC8A828B83F6
:048FF5008CF0800676
:068FF90090000075F0007D
:038FFF00021EE46B
:0D90020090E3A0E4F0A3F0A3F090E3B274BB
:09900F004AF0A374E2F0A3E4F0BE
:0E90180090E3B2E0FAA3E0FBA3E0FCC3EA940D
:0A9026007EEB94E2EC94004003029C
:0290300090B4FA
:0E9032008A828B838CF012476660680ABA004F
:02904000010B22
:0A9042008A828B838CF07820798DF0
:0C904C007A02121ED2AA82AB83ACF0BAEA
:0A9058000008BB0005BC0002802ADE
:0E906200742D2AFAE43BFB8A828B838CF01279
:0E9070004766601890E3B2E0FAA3E0FBA3E0CD
:06907E00FC0ABA00010B20
:089084008A828B838CF0803995
:0E908C0090E3B2E0FAA3E0FBA3E0FC90E3A0C7
:0B909A0074012AF0E43BA3F0A3ECF00B
:0D90A50090E3B2E0241AF0A3E03400F002E2
:0290B200901814
:0E90B40090E3A0E0FAA3E0FBA3E0FC8A828B2D
:0390C200838CF0AC
:0390C500021EE4A4
:0A90C800C01A85811AAA82AB83AC9E
:0C90D200F0C002C003C00474ACC0E07425
:0A90DE00E3C0E0E4C0E0E51A24FC62
:0E90E800F8E6C0E0C002C003C004741CC0E083
:0E90F600E4C0E07403C0E090E27E75F0007804
:04910400DF79877A0E
:0C91080002121ED2AD82E58124F6F58132
:0B911400D004D003D002BD0102800394
:03911F0002920EAB
:0E91220090E3ACE0FDA3E0FEA3E0FF8D828EA3
:0D913000838FF074011240100DBD00010E80
:0E913D007410C0E0E4C0E0C002C003C0048DA6
:0A914B00828E838FF078AC79467AAB
:0B91550000121ED2E58124FBF5819082
:0E916000E3ACE0FAA3E0FBA3E0FC74112AFDEF
:0C916E00E43BFE8C078D828E838FF0E5C1
:0C917A001A24FCF8E612401074122AFDC2
:0C918600E43BFE8C078D828E838FF0E5A9
:0C9192001A24FBF8E6124010741B2AFDA2
:0C919E00E43BFE8C078D828E838FF0E591
:0C91AA001A24FAF8E612401074132AFD93
:0C91B600E43BFE8C078D828E838FF0E579
:0C91C2001A24F6F8E6124010A308E6128A
:0C91CE004010A308E6124010A308E612AF
:0E91DA00401074172AFDE43BFE8C078D828E38
:0C91E800838FF0E51A24F2F8E612401024
:0E91F400A308E6124010A308E6124010A308DC
:0C920200E61240108A828B838CF08006FC
:06920E0090000075F00065
:05921400D01A021EE467
:0E921900AA82AB83ACF0BA0008BB0005BC0013
:0392270002800AB8
:0A922A008A828B838CF0E41240105E
:03923400021EE433
:0A923700C01A85811AAA82AB83AC2D
:0A924100F074ACC0E074E3C0E0E498
:0C924B00C0E0E51A24FCF8E6C0E0C00218
:0E925700C003C004741CC0E0E4C0E07403C097
:0A926500E090E27E75F00078DF79FA
:04926F00877A0212E6
:0E9273001ED2AA82E58124F6F581EA701390DE
:0E928100E3ACE0FAA3E0FBA3E0FC8A828B835F
:04928F008CF08006D9
:0692930090000075F000E0
:05929900D01A021EE4E2
:0A929E00C01A85811AC082C083C087
:0992A800F090E3AC747EF0A374B5
:0592B100E2F0A3E4F06F
:0E92B60090E3ACE0FDA3E0FEA3E0FFC3ED9467
:0A92C400D2EE94E2EF9400506C8D9E
:0E92CE00828E838FF0124766605274112DFA63
:0E92DC00E43EFB8F048A828B838CF01247667F
:0C92EA00C423541FFB7C000DBD00010ECE
:0C92F600C003C004A81A08E6C0E008E6A7
:0D930200C0E008E6C0E08D828E838FF07819
:04930F006379427AC2
:0C93130000121ED2AB82AC83E58124FB6B
:0B931F00F581EB4C7005758201801297
:0D932A0090E3ACE0241CF0A3E03400F0025E
:0293370092B6EC
:039339007582003A
:06933C00851A81D01A021F
:029342001EE427
:0A934400C01A85811AAA82AB83AC1F
:0C934E00F0C002C003C00474A3C0E074AF
:0C935A00E3C0E0E4C0E07480C0E0C002AA
:0E936600C003C004741CC0E0E4C0E07403C087
:0A937400E090E0C775F00078DF79A3
:04937E00877A0212D6
:0E9382001ED2AD82E58124F6F581D004D00321
:07939000D002BD01028003C1
:0393970002953C00
:0E939A0090E3A3E0FDA3E0FEA3E0FF8D828E32
:0D93A800838FF074011240100DBD00010E06
:0E93B500C002C003C0047410C0E0E4C0E0C0F9
:0C93C30002C003C0048D828E838FF078FE
:0493CF00AC79467AB5
:0B93D30000121ED2E58124FBF5819002
:0E93DE00E3A3E0FDA3E0FEA3E0FF74122DFA6E
:0C93EC00E43EFB8F048A828B838CF0E54A
:0C93F8001A24F8F8E6124010D004D0034C
:0C940400D002E51A24F9F8E608460846F4
:0E94100008467022C002C003C00474132DFA77
:0E941E00E43EFB8F048A828B838CF074011273
:0A942C004010D004D003D002805B92
:0E943600C002C003C00474132DFAE43EFB8F85
:0E944400048A828B838CF0E412401074142D85
:0C945200FDE43EFEC002C003C004E51AA9
:0E945E0024F9F8E6C0E008E6C0E008E6C0E049
:0C946C0008E6C0E08D828E838FF078D57A
:05947800790E7A0012DC
:0E947D001ED2E58124FCF581D004D003D0027C
:06948B00D004D003D00262
:0E94910090E3A3E0FDA3E0FEA3E0FF74112D25
:0D949F00FDE43EFE8D828E838FF07401127D
:0994AC00401090E39074FFF09071
:0D94B500E3917402F090E392E4F0A3F090D4
:0E94C200E394F0A3E4F090E396F0A3E4F090BE
:0B94D000E398F0A3E4F090E39AF09022
:0E94DB00E39B7401F090E39C74FFF0740D2A83
:0D94E900FDE43BFE8C078D828E838FF01218
:0E94F600476690E39DF0740E2AFAE43BFB8A71
:0E950400828B838CF0124766FAA3124766FB37
:0E95120090E39EEAF0A3EBF090E39075F0007A
:0595200078FC79977A48
:0595250002121ED290AD
:0E952A00E3A3E0FAA3E0FBA3E0FC8A828B83BC
:049538008CF080062D
:06953C0090000075F00034
:05954200D01A021EE436
:0E954700AA82AB83ACF0BA0009BB0006BC00E0
:049555000302963146
:0D95590090E39074FFF090E3917402F090A5
:0E956600E392E4F0A3F090E394F0A3E4F0901D
:0E957400E396F0A3E4F090E398F0A3E4F09007
:0A958200E39AF090E39B7401F0906F
:0E958C00E39C74FFF074012AFDE43BFE8C07A3
:0E959A00740D2DFDE43EFE8D828E838FF01247
:0E95A800476690E39DF074012AFDE43BFE8CC3
:0E95B60007740E2DFDE43EFE8D828E838FF035
:0A95C400124766FDA3124766FE90F1
:0E95CE00E39EEDF0A3EEF090E39075F000C088
:0A95DC0002C003C00478BF79987A3A
:0C95E60002121ED2AD82AE83AFF0D004A2
:0E95F200D003D00290E3A6EDF0A3EEF0A3EFBD
:0C960000F0BD0008BE0005BF0002801B8A
:0D960C008D828E838FF0C002C003C00478F1
:04961900A179987A21
:0A961D0002121ED2D004D003D002C6
:0A9627008A828B838CF0E41240105D
:03963100021EE432
:0B963400AA82AB83ACF074A3C0E0740A
:0C963F00E3C0E0E4C0E07480C0E0C002C2
:0E964B00C003C004741CC0E0E4C0E07403C09F
:0A965900E090E0C775F00078DF79BB
:04966300877A0212EE
:0E9667001ED2AA82E58124F6F581EA701390E6
:0E967500E3A3E0FAA3E0FBA3E0FC8A828B8370
:049683008CF08006E1
:0696870090000075F000E8
:03968D00021EE4D6
:0A969000AA8290E3A374C7F0A3744C
:0A969A00E0F0A3E4F0E4BAFF0104DD
:0196A400FBCA
:0E96A50090E3A3E0FCA3E0FDA3E0FEC3EC9481
:0A96B3001BED94E1EE940040030269
:0296BD00973CD8
:0E96BF008C828D838EF01247666063EB702103
:0E96CD0074112CFCE43DFD8C828D838EF01216
:0E96DB004766FC7D00EAFE3395E0FFECB50625
:0596E90043EDB5073F51
:0E96EE0090E3A3E0FCA3E0FDA3E0FE74012CDA
:0D96FC00FFE43DF88E018F82888389F01213
:0E9709004766FFBFFE1E74022CFFE43DF88E83
:0E971700018F82888389F0124766FFBF8008A9
:089725008C828D838EF080150B
:0D972D0090E3A3E0241CF0A3E03400F00260
:02973A0096A5F2
:06973C0090000075F00032
:03974200021EE420
:0A974500AA8290E3A374C7F0A37496
:0A974F00E0F0A3E4F0E4BAFF010427
:01975900FB14
:0E975A0090E3A3E0FCA3E0FDA3E0FEC3EC94CB
:0A9768001BED94E1EE9400400302B3
:0297720097F36B
:0E9774008C828D838EF01247666065EB70214B
:0E97820074112CFCE43DFD8C828D838EF01260
:0E9790004766FC7D00EAFE3395E0FFECB5066F
:05979E0045EDB5074197
:0E97A30090E3A3E0FCA3E0FDA3E0FE74012C24
:0D97B100FFE43DF88E018F82888389F0125D
:0E97BE004766FFBFFE1874022CFFE43DF88ED4
:0E97CC00018F82888389F0124766FFBF8002FA
:0297DA00800805
:0897DC008C828D838EF0801554
:0D97E40090E3A3E0241CF0A3E03400F002A9
:0297F100975A85
:0697F30090000075F0007B
:0397F900021EE469
:0D97FC00AA82AB83ACF0C002C003C00474AD
:0A980900A6C0E074E3C0E0E4C0E094
:0E9813007480C0E0C002C003C0047411C0E045
:0E982100E4C0E07405C0E090E13D75F0007811
:04982F00DF79877ADC
:0C98330002121ED2AD82E58124F6F58100
:0E983F00D004D003D002BD015090E3A6E0FD9E
:0E984D00A3E0FEA3E0FF8D828E838FF07401F6
:08985B001240100DBD00010ECA
:0E9863007410C0E0E4C0E0C002C003C0048D79
:0A987100828E838FF078AC79467A7E
:0B987B0000121ED2E58124FBF5819055
:0E988600E3A6E0FAA3E0FBA3E0FC8A828B835A
:049894008CF08006CE
:0698980090000075F000D5
:03989E00021EE4C3
:0E98A100AA82AB83ACF0BA0008BB0005BC0085
:0398AF0002800A2A
:0A98B2008A828B838CF0E4124010D0
:0398BC00021EE4A5
:0B98BF00AA82AB83ACF074A6C0E0747A
:0C98CA00E3C0E0E4C0E07480C0E0C00235
:0E98D600C003C0047411C0E0E4C0E07405C01B
:0A98E400E090E13D75F00078DF79B7
:0498EE00877A021261
:0E98F2001ED2AA82E58124F6F581EA70139059
:0E990000E3A6E0FAA3E0FBA3E0FC8A828B83DF
:04990E008CF0800653
:0699120090000075F0005A
:03991800021EE448
:0D991B00AA82AB83ACF0C002C003C004748C
:0A992800A9C0E074E3C0E0E4C0E071
:0E9932007480C0E0C002C003C0047411C0E025
:0E994000E4C0E07402C0E090E11B75F0007816
:04994E00DF79877ABC
:0C99520002121ED2AD82E58124F6F581E0
:0E995E00D004D003D002BD015090E3A9E0FD7B
:0E996C00A3E0FEA3E0FF8D828E838FF07401D6
:08997A001240100DBD00010EAA
:0E9982007410C0E0E4C0E0C002C003C0048D59
:0A999000828E838FF078AC79467A5E
:0B999A0000121ED2E58124FBF5819035
:0E99A500E3A9E0FAA3E0FBA3E0FC8A828B8337
:0499B3008CF08006AE
:0699B70090000075F000B5
:0399BD00021EE4A3
:0E99C000AA82AB83ACF0BA0008BB0005BC0065
:0399CE0002800A0A
:0A99D1008A828B838CF0E4124010B0
:0399DB00021EE485
:0B99DE00AA82AB83ACF074A9C0E07457
:0C99E900E3C0E0E4C0E07480C0E0C00215
:0E99F500C003C0047411C0E0E4C0E07402C0FE
:0A9A0300E090E11B75F00078DF79B8
:049A0D00877A021240
:0E9A11001ED2AA82E58124F6F581EA70139038
:0E9A1F00E3A9E0FAA3E0FBA3E0FC8A828B83BC
:049A2D008CF0800633
:069A310090000075F0003A
:039A3700021EE428
:0A9A3A00C01A85811AC082C083C0E3
:0C9A4400F005810581E4FDFEFFE51A2419
:0C9A500004F8760090E3B574D2F0A37423
:059A5C00E2F0A3E4F0BC
:0E9A610090E3B5E0FCA3E0FAA3E0FBC3EC94B5
:0A9A6F008EEA94E3EB94004003023A
:029A79009B57F9
:0E9A7B008C828A838BF01247667003029B4830
:0E9A8900C005C006C00774112CFDE43AFE8B28
:0C9A9700078D828E838FF0E51A2405F8FD
:0A9AA300124766F6E51A2405F8E5FF
:0C9AAD001A2404F9C3E697D007D006D0B5
:069AB900055003029B486A
:0C9ABF00C005C006C007E51A2405F8E643
:0E9ACB00C423541FFD7E0074012CFFE43AFA00
:0E9AD900C005C006C007C005C006C007C00219
:0C9AE700C003A81A08868208868308863F
:069AF300F0786379427A6D
:0C9AF90000121ED2AA82AB83E58124FB80
:0E9B0500F581D007D006D005D007D006D005D8
:0E9B1300EA4B703190E3B5E0FDA3E0FEA3E065
:0E9B2100FF74112DFAE43EFB8F048A828B83C1
:0C9B2F008CF0124766FAE51A2404F8A630
:0D9B3B00028D028E038F048A058B068C07B5
:0D9B480090E3B5E0242FF0A3E03400F0021C
:029B55009A6113
:0A9B57008D828E838FF0851A81D075
:049B61001A021EE4E2
:0A9B6500C01A85811AAA82AB83ACF6
:0C9B6F00F0C002C003C00474B5C0E07474
:0A9B7B00E3C0E0E4C0E0E51A24FCBA
:0E9B8500F8E6C0E0C002C003C004742FC0E0C8
:0E9B9300E4C0E07404C0E090E2D275F0007807
:049BA100DF79877A67
:0C9BA50002121ED2AD82E58124F6F5818B
:0B9BB100D004D003D002BD01028003ED
:039BBC00029C9B6D
:0E9BBF0090E3B5E0FDA3E0FEA3E0FF8D828EF3
:0D9BCD00838FF074011240100DBD00010ED9
:0E9BDA007410C0E0E4C0E0C002C003C0048DFF
:0A9BE800828E838FF078AC79467A04
:0B9BF20000121ED2E58124FBF58190DB
:0E9BFD00E3B5E0FAA3E0FBA3E0FC74112AFD3F
:0C9C0B00E43BFE8C078D828E838FF0E519
:0C9C17001A24FCF8E612401074132AFA1C
:0C9C2300E43BFB7410C0E0E4C0E0E51A74
:0E9C2F0024F9F8E6C0E008E6C0E008E6C0E070
:0A9C3D008A828B838CF078AC7946A4
:0C9C47007A00121ED2E58124FBF581900A
:0E9C5300E3B5E0FAA3E0FBA3E0FC74122AFDE7
:0C9C6100E43BFE8C078D828E838FF0E5C3
:0C9C6D001A24F8F8E612401074232AFABA
:0E9C7900E43BFB740CC0E0E4C0E0E4C0E08A11
:0A9C8700828B838CF0783F79467AD7
:0A9C910000121ED215811581158105
:0E9C9B0090E3B5E0FAA3E0FBA3E0FC8A828B25
:089CA900838CF0D01A021EE4C6
:0D9CB100AA82AB83ACF0E4124010021EE466
:0C9CBE00AA82AB83ACF090E3B574D2F046
:079CCA00A374E2F0A3E4F033
:0E9CD10090E3B5E0FDA3E0FEA3E0FFC3ED9439
:0A9CDF008EEE94E3EF9400506C8DBC
:0E9CE900828E838FF0124766605274132DFD39
:0E9CF700E43EFEC002C003C0047410C0E0E4EE
:0E9D0500C0E0C002C003C0048D828E838FF0C8
:059D1300786379427A3B
:0C9D180000121ED2AD82AE83E58124FB58
:0D9D2400F581D004D003D002ED4E701590F3
:0E9D3100E3B5E0FDA3E0FEA3E0FF8D828E838C
:069D3F008FF0E412401059
:0D9D450090E3B5E0242FF0A3E03400F0021D
:029D52009CD1A2
:039D5400021EE408
:0A9D5700C01A85811AC082C083C0C3
:0D9D6100F0E581240CF581E4FAFEFFFDE53C
:0A9D6E001A24FAF8E51A2407F9E6B2
:0C9D7800F70809E6F70809E6F7E51A24E9
:0E9D840007F886820886830886F0124766FB81
:0C9D9200BBFE32C006C007C005E51A2465
:0E9D9E0007F8740126FDE40836FE0886078DDE
:0E9DAC00828E838FF0124766FDBD8009D005C0
:079DBA00D007D006029F1A3A
:069DC100D005D007D0061A
:069DC700BBFF03029F1A1E
:089DCD0090E3A374C7F0A37436
:059DD500E0F0A3E4F042
:0C9DDA0090E3A3E51A240AF8E0F6A3E0E9
:0C9DE60008F6A3E008F6E51A240AF8C30A
:0A9DF200E6941B08E694E108E694ED
:069DFC00004003029F324B
:0C9E0200E51A240AF88682088683088688
:099E0E00F01247667003029F0B7D
:0C9E1700C006C007C005E51A240AF87454
:0E9E23001126FDE40836FE0886078D828E8328
:0B9E31008FF0124766FDBD01028009A2
:099E3C00D005D007D006029F0BEF
:0C9E4500E51A240AF8740126FDE4083632
:0E9E5100FE0886078D828E838FF0124766FD15
:059E5F00BDFE028008B9
:089E6400D005D007D006802BC9
:0C9E6C00E51A240AF8740226FDE408360A
:0E9E7800FE0886078D828E838FF0124766FDEE
:0B9E8600BD8008D005D007D006807A10
:069E9100D005D007D00649
:0E9E9700C006C007C00590E3A3E0FDA3E0FEF7
:089EA500A3E0FF0DBD00010E5A
:0D9EAD00C002C006C007C005C006C007E522
:0C9EBA001A2407F886820886830886F0C8
:059EC60078C479A07AC8
:0C9ECB0002121ED2AD8215811581158196
:0E9ED700D007D006D0028D03C3EB9AD005D081
:0C9EE50007D00640218B0290E3A3E51A91
:0E9EF1002404F8E0F6A3E008F6A3E008F6E586
:0C9EFF001A2404F8860608860708860569
:0D9F0B0090E3A3E0241CF0A3E03400F0027A
:029F18009DDAD0
:089F1A00758201789079967AB6
:0C9F220002121ED2AA82AB83ACF08A06A9
:049F2E008B078C050C
:0B9F3200BE0008BF0005BD0002800358
:039F3D0002A0215E
:0C9F4000A81A0886820886830886F0E4D0
:099F4C00124010A3E4124010A819
:0C9F55001A08740226FAE40836FB08869D
:0E9F6100048A828B838CF0E4124010A3E41279
:0C9F6F004010A81A08740426FAE4083612
:0E9F7B00FB0886048A828B838CF0E41240106F
:0C9F8900A3E4124010A81A08740626FA7F
:0E9F9500E40836FB0886048A828B838CF0E495
:099FA300124010A3E4124010A8C2
:0C9FAC001A08740826FAE40836FB088640
:0E9FB800048A828B838CF0E4124010A3E41222
:0C9FC6004010A81A08740A26FAE40836B5
:0E9FD200FB0886048A828B838CF0E412401018
:0C9FE000A3E4124010A81A08740C26FA22
:0E9FEC00E40836FB0886048A828B838CF0E43E
:099FFA00124010A3E4124010A86B
:0CA003001A08740E26FAE40836FB0886E2
:0EA00F00048A828B838CF0E4124010A3E412CA
:04A01D004010802C43
:05A021000EBE00010F5E
:0EA026007410C0E0E4C0E0C006C007C005A88A
:0BA034001A0886820886830886F078F0
:04A03F00AC79467A38
:0AA0430000121ED2E58124FBF58116
:06A04D00851A81D01A0201
:02A053001EE409
:0AA05500C01A85811AAA82AB83AC01
:0EA05F00F074082AFDE43BFE8C07C002C0032B
:0CA06D00C0047408C0E0E4C0E0E51A2460
:0EA07900FAF8E6C0E008E6C0E008E6C0E08DB8
:0AA08700828E838FF078AC79467A60
:0CA0910000121ED2E58124FBF581D004F2
:0EA09D00D003D00274082AFAE43BFB8A828BBF
:0EA0AB00838CF0124766FD6305028A828B8368
:09A0B9008CF0ED124010D01A02E7
:02A0C2001EE49A
:0AA0C400C01A85811AC082C083C053
:0CA0CE00F0058105817D00E51A2405F8ED
:09A0DA007600E51A2404F8760072
:08A0E300E51A2404F8B6100090
:05A0EB00400302A1701A
:0AA0F000C005A81A08E51A2404F9B7
:0CA0FA00E726FDE40836FA088603E51AA4
:0CA1060024FAF88604088606088607E59F
:0CA112001A2404F8E62CFCE43EFE8D82CA
:0EA11E008A838BF0124766FA8C828E838FF054
:0AA12C00124766FBEAB50302800447
:04A13600D0058014BC
:0CA13A00D005E51A2405F8740826F6E5A7
:08A146001A2405F886058017B4
:07A14E00EB62028D037C00AF
:03A15500BC080043
:0DA158005014EA20E7100BEA2AFA0C80F000
:09A16500E51A2404F80602A0E347
:02A16E008B055F
:08A170008D82851A81D01A02CC
:02A178001EE4E3
:0AA17A00C01AE581F51A2408F581EA
:0EA1840090E0BAE0FAA3E0FBA3E0FCA3E0FD4C
:0CA19200A81A08EDC313080808F6EC1327
:0CA19E0018F6EB1318F6EA1318F6781800
:05A1AA0079307A00127B
:0CA1AF001ED2AF827E00C006C0077818E8
:05A1BB0079307A00126A
:0EA1C0001ED2AA82AB83D007D006EA2EFEEB99
:0EA1CE003FFF90E0BAE0FAA3E0FBA3E0FCA3A1
:0CA1DC00E0FDE51A2405F8EDC3130808A7
:0EA1E80008F6EC1318F6EB1318F6EA1318F647
:0CA1F600E51A2405F8E62AFA08E63BFB0F
:0CA2020008E63CFC08E63DFDE51A2405DA
:0EA20E00F8EAC396F6EB0896F6EC0896F6ED25
:0CA21C000896F68E028F03E4FCFDE51AA4
:0EA228002405F8E6C0E008E6C0E008E6C0E065
:0EA2360008E6C0E08A828B838CF0ED12432391
:0EA24400AA82AB83ACF0FDE58124FCF581A875
:0CA252001A08EA26FAEB0836FBEC083686
:0CA25E00FCED0836FD8A828B838CF085B5
:05A26A001A81D01A0268
:02A26F001EE4EB
:020000040000FA
:0A0ED500C01A85811AC082C083C0D4
:0C0EDF00F0A81A08740426FDE40836FE92
:0C0EEB000886078D828E838FF0E51A24A4
:0E0EF700F9F8E6124010A308E6124010A30816
:0B0F0500E6124010A308E6124010782E
:040F10001979327A9F
:0C0F140000121ED2AD82AE83AFF0FAA82E
:0C0F20001A0886820886830886F0ED120D
:0A0F2C004010A3EE124010A3EF12D4
:080F36004010A3EA12401085EF
:050F3E001A81D01A0227
:020F43001EE4AA
:0A0F4500C01A85811AC082C083C063
:0C0F4F00F0E5812407F581A81A088682CD
:0C0F5B000886830886F0E51A2404F912C9
:0B0F67004766F7A312476609F7A312C4
:0B0F7200476609F7A312476609F7A8BD
:0C0F7D001A08740426FAE40836FB088603
:0D0F8900048A828B838CF0124766FCA31251
:0A0F96004766FDA3124766FEA31292
:0C0FA0004766FFE51A2404F8EC26FCED7F
:0C0FAC000836FDEE0836FEEF0836FFA800
:0C0FB8001A0886820886830886F0EC1276
:0A0FC4004010A3ED124010A3EE123E
:080FCE004010A3EF1240108552
:050FD6001A81D01A028F
:020FDB001EE412
:0D0FDD00AA82AB83ACF0C002C003C0047850
:040FEA001979327AC5
:0C0FEE0000121ED2AD82AE83AFF0F8D02E
:0D0FFA0004D003D0028A828B838CF0ED12AC
:0A1007004010A3EE124010A3EF12F8
:081011004010A3E81240100298
:021019001EE4D3
:0A101B00C01AE581F51A240CF581D6
:0D102500AA82AB83ACF0C002C003C0047807
:041032001979327A7C
:0510360000121ED2A80B
:0C103B001A08A68208A68308A6F008F692
:0D104700D004D003D0028A828B838CF0E5A8
:0A1054001A2405F8124766F6A312ED
:0C105E00476608F6A312476608F6A312C6
:0E106A00476608F674042AFDE43BFE8C078DF1
:0E107800828E838FF0124766FAA3124766FB42
:0B108600A3124766FCA3124766FDE5BD
:0C1091001A2405F8EA26FAEB0836FBECFE
:0B109D000836FCED0836FDA81A08E537
:0C10A8001A2409F9E6C39AF708E69B0930
:0C10B400F708E69C09F708E69D09F7E53F
:0C10C0001A2409F8C3E694FF08E694FF28
:0E10CC0008E694FF08E6947FE433FD3395E0D8
:0A10DA00FE8D828E83851A81D01AE4
:0310E400021EE405
:0E10E700AA82AB83ACF0124766FDA3124766E7
:0E10F500FEA3124766FFA3124766F874042A92
:0E110300FAE43BFB8A828B838CF0124766FA7B
:0C111100A3124766FBA3124766FCA31262
:0E111D004766F9EA2DFDEB3EFEEC3FFFE93898
:0C112B00F8C005C006C007C000781979A4
:04113700327A0012F6
:0E113B001ED2AA82AB83ACF0F9D000D007D050
:0E11490006D005EDC39AFDEE9BFEEF9CFFE87D
:0B11570099F88D828E838FF0021EE459
:0D116200AA82AB83ACF0C002C003C00478C9
:04116F001979327A3E
:0C11730000121ED2AD82AE83AFF0F8D0A7
:0E117F0004D003D0028A828B838CF012476664
:0D118D00FAA3124766FBA3124766FCA312EB
:0E119A004766F9EDC39AFDEE9BFEEF9CFFE861
:0B11A80099F88D828E838FF0021EE408
:020000040001F9
:0D80000090E3B8E0FA90E3B804F08A820241
:02800D001EE46F
:0A800F00C01A85811AC082C083C028
:0E801900F090F4CFE0FDA3E0FEA3E0FF8D02A7
:048027008E038F0431
:0C802B00A81A08E6B5020C08E6B5030729
:0780370008E6B504028021F8
:0B803E00BA0008BB0005BC0002801661
:0E8049008A828B838CF0124766FAA312476678
:08805700FBA3124766FC80CC7C
:0C805F00A81A08E6B5020C08E6B50307F5
:07806B0008E6B504028002E3
:02807200800389
:0380740002810482
:0C807700A81A0886820886830886F0EDAF
:0B808300124010A3EE124010A3EF12F9
:06808E004010A81A089042
:0D809400F4CFE6F008A3E6F008A3E6F0A89C
:0C80A1001A08740826FAE40836FB08866A
:0D80AD00048A828B838CF07401124010A8AD
:0C80BA001A08740626FAE40836FB088653
:0E80C600048A828B838CF0E4124010A3E41233
:0C80D4004010E51A24FAF8E6C0E008E6C7
:0C80E000C0E008E6C0E07481C0E0A81A0F
:0C80EC000886820886830886F078A57953
:0480F800887A01126F
:0880FC001ED2E58124FCF58190
:06810400851A81D01A0269
:02810A001EE471
:0A810C00C01A85811AC082C083C02A
:0E811600F0E5812409F58190F4D2E0FDA3E0AC
:0C812400FEA3E0FFE51A2407F8A60508FA
:0E813000A60608A60790F4CFE0FDA3E0FEA38C
:0C813E00E0FFE51A2404F8A60508A606D8
:03814A0008A6077D
:0A814D00E51A2404F8A91A0986F0C7
:0E815700E7B5F0120886F009E7B5F00A0886D1
:08816500F009E7B5F0028033D8
:0C816D00E51A2404F8B6000A08B6000663
:0681790008B6000280219F
:0C817F00E51A2404F8868208868308862E
:0E818B00F01247661818F6A312476608F6A30E
:0781990012476608F680ADF5
:0C81A000E51A2404F8B6000B08B600072E
:0781AC0008B6000302841174
:0C81B300A81A0886820886830886F078E7
:0481BF004B79897AF5
:0C81C30001121ED2E5828583F045F070A9
:0481CF000302832202
:0C81D300A81A08740826FAE40836FB0815
:0D81DF0086048A828B838CF0E4124010909D
:0C81EC00F4CFE0FAA3E0FBA3E0FCE51AEE
:0B81F8002404F8A60208A60308A60451
:0C820300E51A2404F8B6000A08B60006CC
:06820F0008B600028070B9
:0A821500A81A08E51A2404F986F0FF
:0E821F00E7B5F0120886F009E7B5F00A088608
:08822D00F009E7B5F002802E14
:0C823500A81A08E6C0E008E6C0E008E671
:0C824100C0E07487C0E0E51A2404F88651
:0A824D00820886830886F07819790C
:04825700847A011212
:08825B001ED2E58124FCF5812F
:0C826300E51A2404F88682088683088649
:0E826F00F01247661818F6A312476608F6A329
:08827D0012476608F6028203B5
:0C828500A81A08740326FAE40836FB0867
:0E82910086048A828B838CF0124766FDA3124E
:0E829F004766FEA3124766FFBD0008BE00053D
:0582AD00BF000280701B
:0A82B200A81A08E51A24FAF986F06C
:0E82BC00E7B5F0120886F009E7B5F00A08866B
:0882CA00F009E7B5F002805055
:0C82D200A81A0890F4D2E6F008A3E6F029
:0C82DE0008A3E6F0A81A08740626FAE4CB
:0E82EA000836FB088604C005C006C007E4C0C5
:0E82F800E0C0E0C0E07483C0E0C005C006C076
:0E830600078A828B838CF0D002D001D0001247
:0E8314001ED2E58124FCF581D007D006D005ED
:0C83220090F4CFE0FDA3E0FEA3E0FFA874
:0C832E001A08E6B5050C08E6B5060708BD
:06833A00E6B50702800217
:02834000802299
:0E8342008D828E838FF0124766FAA312476673
:0E835000FBA3124766FC90F4CFEAF0A3EBF01B
:06835E00A3ECF00283FF16
:0C8364008D028E038F04E51A2404F8A695
:078370000208A60308A604A1
:0C837700E51A2404F8B6000A08B6000657
:0683830008B6000280763E
:0C838900E51A2404F88682088683088622
:0C839500F0124766FAA3124766FBA31221
:0C83A1004766FCA81A08E6B5020C08E6C6
:0A83AD00B5030708E6B504028002DC
:0283B70080360E
:0C83B900A81A0886820886830886F01245
:0A83C5004766FDA3124766FEA312EF
:0C83CF004766FFE51A2404F88682088641
:0E83DB00830886F0ED124010A3EE124010A3AE
:0683E900EF1240108010AD
:0C83EF00E51A2404F8A60208A60308A65C
:0483FB00040283777E
:0C83FF00E51A2407F890F4D2E6F008A379
:06840B00E6F008A3E6F014
:06841100851A81D01A0259
:028417001EE461
:0A841900C01A85811AC082C083C01A
:0C842300F0A81A08740826FDE40836FED4
:0E842F000886078D828E838FF0124766FA2032
:05843D00E0030285468A
:0C844200A81A08740326FAE40836FB08A8
:0E844E0086048A828B838CF0124766FAA31292
:0E845C004766FBA3124766FCBA0009BB000688
:06846A00BC000302854680
:0C847000A81A0890F4D2E6F008A3E6F089
:0D847C0008A3E6F08D828E838FF07402124B
:0C8489004010C005C006C007A81A087407
:0E8495000626FDE40836FE088607C003C00474
:0C84A300C005C006C007E51A24F9F8E681
:0C84AF00C0E008E6C0E008E6C0E0E51A06
:0E84BB0024FCF8E6C0E0C002C003C0048D82BD
:0E84C9008E838FF0D002D001D000121ED2AAF6
:0E84D70082E58124FCF581D007D006D005D0C7
:0E84E50004D003EA3395E0FBBA020BBB00089B
:0884F300D007D006D005801669
:0E84FB00D007D006D005BA0305BB00028008EA
:08850900E51A24FCF8B6832AF0
:0C851100A81A08E6C0E008E6C0E008E692
:0C851D00C0E0A81A088682088683088641
:06852900F0780C79817A64
:0C852F0001121ED2158115811581800BF0
:0B853B008D828E838FF07401124010BF
:06854600851A81D01A0223
:02854C001EE42B
:0E854E00AA82AB83ACF090F4D2E0C0E0A3E0D0
:0D855C00C0E0A3E0C0E08A828B838CF07841
:048569000C79817A8E
:0B856D0001121ED2158115811581023C
:028578001EE4FF
:0C857A0090E3B8748AF090E3BAE4F0904B
:0D858600E3B9F090F4CFF0A3E4F0A3F0907F
:0B859300F4D2F0A3E4F0A3F0021EE419
:0A859E00C01A85811A0581058105C8
:0E85A8008190E49BE4F090F4CFE0FAA3E0FBB6
:0C85B600A3E0FCA81A08A60208A603080F
:0285C200A6040D
:0C85C400A81A08B6000B08B6000708B69D
:0585D0000003028656C5
:0C85D500A81A08740926FDE40836FE0808
:0E85E10086078D828E838FF01247666048A851
:0C85EF001A08740826FAE40836FB088617
:0E85FB00048A828B838CF074011240108D82F2
:0E8609008E838FF0E4124010E4C0E0C0E0C0A9
:0C861700E07482C0E0A81A088682088681
:09862300830886F0781979847A45
:0A862C0001121ED2E58124FCF58145
:0C863600A81A0886820886830886F012C5
:0D86420047661818F6A312476608F6A31243
:07864F00476608F60285C42E
:06865600851A81D01A0212
:02865C001EE41A
:0A865E0090E3B9E0FA70030287DD33
:0C86680090E3BAE0FB75F007A4FC24BB13
:0C867400F582E434E3F583E090E49CF030
:0A868000EC24BBFCE434E3FD8C8223
:0E868A008D83A3E0FEA3E0FFA3E0F890E49D43
:0E869800EEF0A3EFF0A3E8F08C828D83A3A395
:0E86A600A3A3E0FCA3E0FDA3E0FE90E4A0ECA3
:0E86B400F0A3EDF0A3EEF07C000BBB00010C78
:0E86C200C0027420C0E0E4C0E08B828C831202
:0E86D0004930AB8215811581D00290E3BAEBE0
:0E86DE00F0EA1490E3B9F090E4A0E0FAA3E013
:0E86EC00FBA3E0FCBA0008BB0005BC00028046
:0186FA00037C
:0386FB0002879C57
:0E86FE0090F4CFE0FDA3E0FEA3E0FF90E4A324
:08870C00EDF0A3EEF0A3EFF085
:0E87140090E4A3E0FDA3E0FEA3E0FFBD00099A
:09872200BE0006BF00030287DD62
:0A872B0090E49BE0FD6009789E7960
:04873500857A01122E
:028739001ED24E
:0E873B0090E4A3E0FDA3E0FEA3E0FF90E49D28
:0E874900E0C0E0A3E0C0E0A3E0C0E090E49C4C
:0C875700E0C0E08D828E838FF0781979ED
:04876300847A011201
:0E8767001ED2E58124FCF58190E4A3E0FDA381
:0E877500E0FEA3E0FF8D828E838FF012476638
:0C878300FDA3124766FEA3124766FF909C
:0D878F00E4A3EDF0A3EEF0A3EFF0028714D9
:0E879C0090E49CE0FDBD811474082AFEE43BCD
:0E87AA00FF8C008E828F8388F07401124010C5
:0E87B80090E49DE0C0E0A3E0C0E0A3E0C0E0DC
:0B87C600C0058A828B838CF078197943
:0487D100847A011293
:0887D5001ED2E58124FCF581B0
:0387DD00021EE495
:0A87E00090E49BE0FA6009789E79AE
:0487EA00857A011279
:0287EE001ED299
:0587F000785E79867A35
:0587F50001121ED290EC
:0E87FA00E3B9E0FA7B0090E49BE0FC7D00EC2C
:0C8808002AFAED3BFB8A828B83021EE4FF
:0E88140090E3B9E0FA7B0090E49BE0FC7D006D
:0D882200EC2AFAED3BFB8A828B83021EE4F8
:0A882F00C01A85811AAA82AB83AC3F
:0E883900F090E3B9E0FDBD20059000018059EC
:0E88470090E3BAE0FEED2E541FFE90E4A6F082
:0C885500EE75F007A4FE24BBF582E434AD
:0A886100E3F583E51A24FCF8E6F0C5
:0A886B00EE24BBFEE434E3FF8E822E
:0C8875008F83A3E51A24F9F8E6F0A308AD
:0E888100E6F0A308E6F08E828F83A3A3A3A3E4
:0E888F00EAF0A3EBF0A3ECF090E3B9ED04F0F7
:03889D0090000048
:0588A000D01A021EE4E5
:0A88A500C01A85811AAA82AB83ACC9
:0E88AF00F090F4D2E0FDA3E0FEA3E0FFC005D0
:0C88BD00C006C007E51A24F9F8E6C0E088
:0C88C90008E6C0E008E6C0E0E51A24FC68
:0C88D500F8E6C0E08A828B838CF07819F2
:0588E10079847A011208
:0E88E6001ED2E58124FCF581D007D006D00516
:0C88F40090F4D2EDF0A3EEF0A3EFF0D072
:048900001A021EE455
:0E890400AA82AB83ACF0BA0008BB0005BC0031
:03891200028033AD
:0E89150074082AFDE43BFE8C078D828E838F52
:0A892300F0124766FDBD010280035B
:03892D00BD021870
:0E89300074092AFAE43BFB8A828B838CF07474
:0A893E000112401090E49B7401F058
:03894800021EE428
:0E894B00AA82AB83ACF074082AFAE43BFB8AE4
:0E895900828B838CF0124766FAE4BA000104A8
:04896700FAB401005D
:0C896B00E433FA7B008A828B83021EE456
:020000040000FA
:034C8A0000000027
:034C8D0000000024
:0E11B30090E4A8E0FA90E4A7E062028A827855
:0411C100C8792C7A43
:0511C50000121ED20221
:0211CA001EE421
:0511CC0078A2792C7AE5
:0511D10000121ED29087
:0911D600E4A8E4F090E4A7F002A3
:0211DF001EE40C
:0E11E10090E4A8E0FA90E4A7E06202EAF4FAD3
:0911EF00F582C002787179127AD0
:0811F80000121ED29001907854
:04120000AB79317A1B
:0912040000121ED2D0028A827889
:04120D007179127A67
:0512110000121ED202D4
:021216001EE4D4
:0512180078A5792C7A95
:07121D0000121ED2AA82029A
:021224001EE4C6
:0D122600AA8290E4A7E0FBF4FCEA520490D9
:0A123300E4A7EA4BF08C8278B3794F
:04123D00117A001210
:051241001ED2021EE4B4
:0D124600AA8290E4A7E0FBEA5BFCEAF490CA
:09125300E4A75BF08C8278B3790A
:04125C00117A0012F1
:051260001ED2021EE495
:05126500787179127A96
:05126A0000121ED2027B
:02126F001EE47B
:0C127100AA8290E4A8E06AF08A8278B3B8
:05127D0079117A001256
:051282001ED2021EE473
:0A12870043FD08C28378A879157AA8
:0512910000121ED278DE
:041296002979167A22
:05129A0000121ED278D5
:04129F000879397A17
:0812A30000121ED275820078D2
:0412AB00B179157A86
:0512AF0000121ED20236
:0212B4001EE436
:0812B600309705A283B39208F2
:0312BE00021EE429
:0612C10075C900021EE4E5
:0612C70043C908021EE409
:0E12CD00740F55C944A0F5C9740F55C944509B
:0512DB00F5C9021EE44C
:0512E00078CD79127ABF
:0512E50000121ED20200
:0212EA001EE400
:0512EC0075C903C2AF4B
:0712F100000212F1021EE4ED
:020000040002F8
:0AA27100C01AE581F51A2407F581F3
:0EA27B0090E4A9E0FAA3E0FBA3E0FCEA4B4C60
:0CA28900700A90E4ACE4F0A3F002A40E14
:05A29500781079327A17
:09A29A0000121ED2AA82AB83E57A
:0CA2A3001A2403F8A60208A60390E4A900
:0CA2AF00E0FCA3E0FDA3E0FEE51A24059E
:0CA2BB00F8A60408A60508A606E51A246B
:0EA2C70005F886820886830886F0124766FF37
:0CA2D500A3124766FAE51A2405F874028B
:0EA2E10026FBE40836FC0886058B828C838DF4
:0EA2EF00F0124766FBA3124766FCEB2FFFEC54
:0CA2FD003AFAE51A2403F8EFC396FFEAD2
:0CA309000896FAA81A08A60708A602E5A4
:0CA315001A2405F8740426FCE40836FD48
:0EA321000886068C828D838EF0124766FCA3A0
:0AA32F00124766FDA3124766FEE523
:0CA339001A2405F8A60408A60508A606CC
:0CA34500E51A2405F8B6000B08B6000766
:07A3510008B6000302A3FAA5
:0CA35800E51A2405F88682088683088632
:0BA36400F0124766FCA3124766FDE5FF
:0CA36F001A2405F8740226FEE40836FFEC
:0EA37B000886028E828F838AF0124766FAA34C
:0CA38900124766FBEA2CFEEB3DFFE51AD4
:0CA395002403F8EEC396FEEF0896FFA824
:0CA3A1001A08C3EE96EF0896501BEA2C39
:0CA3AD00FCEB3DFDE51A2403F8ECC39620
:0CA3B900FCED0896FDA81A08A60408A6F2
:01A3C5000592
:0CA3C600E51A2405F8740426FAE40836B1
:0EA3D200FB0886048A828B838CF0124766FAA1
:0BA3E000A3124766FBA3124766FCE5D2
:0CA3EB001A2405F8A60208A60308A60420
:03A3F70002A34579
:09A3FA00E51A2403F8A91A0990E0
:0BA40300E4ACE726F009E70836A3F000
:06A40E00851A81D01A023C
:02A414001EE444
:0AA41600C01AE581F51A240CF58147
:0EA42000AA82AB83ACF07D01124766FEA31248
:0BA42E004766FFBE0005BF0002800B68
:08A43900BE5A05BF0002801E9F
:03A4410002A81B53
:09A4440090E4A9E4F0A3F0A3F0F8
:0EA44D007D008A828B838CF0745A124010A31B
:04A45B00E4124010B7
:09A45F00ED700675820102A82DC2
:0AA46800E51A24FCF8B68702800311
:03A4720002A60D32
:0CA47500E51A24F9F8860508860608861A
:0CA4810007E51A2407F8A60508A606083F
:02A48D00A60720
:0EA48F0090E4A9E0FDA3E0FEA3E0FFED4E4F38
:0EA49D00606EC002C003C00474072DFAE43ED6
:0EA4AB00FB8F048A828B838CF0124766FAA323
:0AA4B900124766FBA3124766FCE59C
:0CA4C3001A2407F8E6B5020C08E6B50301
:08A4CF000708E6B5040280084D
:08A4D700D004D003D002802E56
:0EA4DF00D004D003D00274042DFDE43EFE8DA7
:0EA4ED00828E838FF0124766FDA3124766FE33
:0EA4FB00A3124766FF90E4A9EDF0A3EEF0A3D4
:04A50900EFF080826D
:0EA50D0090E4A9E0FDA3E0FEA3E0FFED4E4FB9
:05A51B00700302A44DD5
:0BA52000A81A08A60508A60608A60752
:0CA52B00A81A08740426FDE40836FE0897
:0CA5370086078D828E838FF0E51A240ABF
:0DA54300F8124766F6A312476608F6A31249
:0CA55000476608F6E51A240AF8E60846FB
:07A55C000846700302A44D44
:0CA56300C002C003C004E51A240AF8740A
:0EA56F000726FAE40836FB0886048A828B83EE
:0DA57D008CF0124766FAA3124766FBA3128A
:0CA58A004766FCE51A2407F8E6B5020C51
:0CA5960008E6B5030708E6B504028008DB
:08A5A200D004D003D002804177
:0CA5AA00E51A240AF8740426FAE40836C6
:0EA5B600FB0886048A828B838CF0124766FABB
:0EA5C400A3124766FBA3124766FC8D828E83AE
:0EA5D2008FF0EA124010A3EB124010A3EC121F
:0BA5E0004010D004D003D00202A52BD5
:0EA5EB008D828E838FF0124766FDA3124766A5
:0CA5F900FEA3124766FFA81A08A605087A
:08A60500A60608A60702A52B1A
:0AA60D00E51A24FCF8B6820280036F
:03A6170002A44D4D
:0CA61A00E51A2404F8E4F608F6087600BF
:0CA6260090E4A9E0FDA3E0FEA3E0FFA883
:0AA632001A08A60508A60608A607E8
:0CA63C00A81A08B6000B08B6000708B604
:05A64800000302A44D17
:0CA64D00A81A0886820886830886F0C0E0
:0AA6590002C003C004781C79267AC1
:0CA6630000121ED2E5828583F0D004D0E6
:0AA66F0003D00245F0700302A7D9E2
:0CA67900C002C003C004A81A0874072621
:0EA68500FDE40836FE0886078D828E838FF076
:0BA69300124766FAA3124766FBA312F1
:0CA69E004766FCC004C005C006C007A849
